
SAME70.elf:     file format elf32-littlearm

Sections:
Idx Name          Size      VMA       LMA       File off  Algn
  0 .text         00001b30  00400000  00400000  00010000  2**2
                  CONTENTS, ALLOC, LOAD, READONLY, CODE
  1 .ARM.exidx    00000008  00401b30  00401b30  00011b30  2**2
                  CONTENTS, ALLOC, LOAD, READONLY, DATA
  2 .relocate     0000043c  20400000  00401b38  00020000  2**3
                  CONTENTS, ALLOC, LOAD, CODE
  3 .bss          000000b4  2040043c  00401f74  0002043c  2**2
                  ALLOC
  4 .stack        00002000  204004f0  00402028  0002043c  2**0
                  ALLOC
  5 .heap         00000200  204024f0  00404028  0002043c  2**0
                  ALLOC
  6 .ARM.attributes 0000002e  00000000  00000000  0002043c  2**0
                  CONTENTS, READONLY
  7 .comment      00000059  00000000  00000000  0002046a  2**0
                  CONTENTS, READONLY
  8 .debug_info   0000cf9d  00000000  00000000  000204c3  2**0
                  CONTENTS, READONLY, DEBUGGING
  9 .debug_abbrev 000017d0  00000000  00000000  0002d460  2**0
                  CONTENTS, READONLY, DEBUGGING
 10 .debug_loc    00005476  00000000  00000000  0002ec30  2**0
                  CONTENTS, READONLY, DEBUGGING
 11 .debug_aranges 000008f8  00000000  00000000  000340a6  2**0
                  CONTENTS, READONLY, DEBUGGING
 12 .debug_ranges 00000858  00000000  00000000  0003499e  2**0
                  CONTENTS, READONLY, DEBUGGING
 13 .debug_macro  0001c80f  00000000  00000000  000351f6  2**0
                  CONTENTS, READONLY, DEBUGGING
 14 .debug_line   00007cd2  00000000  00000000  00051a05  2**0
                  CONTENTS, READONLY, DEBUGGING
 15 .debug_str    0008a0b3  00000000  00000000  000596d7  2**0
                  CONTENTS, READONLY, DEBUGGING
 16 .debug_frame  000028a4  00000000  00000000  000e378c  2**2
                  CONTENTS, READONLY, DEBUGGING

Disassembly of section .text:

00400000 <exception_table>:
  400000:	f0 24 40 20 31 0f 40 00 e1 0f 40 00 e1 0f 40 00     .$@ 1.@...@...@.
  400010:	e1 0f 40 00 e1 0f 40 00 e1 0f 40 00 00 00 00 00     ..@...@...@.....
	...
  40002c:	e1 0f 40 00 e1 0f 40 00 00 00 00 00 e1 0f 40 00     ..@...@.......@.
  40003c:	e1 0f 40 00 e1 0f 40 00 e1 0f 40 00 e1 0f 40 00     ..@...@...@...@.
  40004c:	e1 0f 40 00 e1 0f 40 00 e1 0f 40 00 e1 0f 40 00     ..@...@...@...@.
  40005c:	e1 0f 40 00 e1 0f 40 00 00 00 00 00 95 08 40 00     ..@...@.......@.
  40006c:	ad 08 40 00 c5 08 40 00 e1 0f 40 00 e1 0f 40 00     ..@...@...@...@.
  40007c:	e1 0f 40 00 dd 08 40 00 f5 08 40 00 e1 0f 40 00     ..@...@...@...@.
  40008c:	e1 0f 40 00 e1 0f 40 00 e1 0f 40 00 e1 0f 40 00     ..@...@...@...@.
  40009c:	e1 0f 40 00 e1 0f 40 00 e1 0f 40 00 e1 0f 40 00     ..@...@...@...@.
  4000ac:	e1 0f 40 00 e1 0f 40 00 e1 0f 40 00 e1 0f 40 00     ..@...@...@...@.
  4000bc:	e1 0f 40 00 e1 0f 40 00 e1 0f 40 00 e1 0f 40 00     ..@...@...@...@.
  4000cc:	e1 0f 40 00 00 00 00 00 e1 0f 40 00 00 00 00 00     ..@.......@.....
  4000dc:	e1 0f 40 00 e1 0f 40 00 e1 0f 40 00 e1 0f 40 00     ..@...@...@...@.
  4000ec:	e1 0f 40 00 e1 0f 40 00 e1 0f 40 00 e1 0f 40 00     ..@...@...@...@.
  4000fc:	e1 0f 40 00 e1 0f 40 00 e1 0f 40 00 e1 0f 40 00     ..@...@...@...@.
  40010c:	e1 0f 40 00 e1 0f 40 00 00 00 00 00 00 00 00 00     ..@...@.........
  40011c:	00 00 00 00 e1 0f 40 00 e1 0f 40 00 e1 0f 40 00     ......@...@...@.
  40012c:	e1 0f 40 00 e1 0f 40 00 00 00 00 00 e1 0f 40 00     ..@...@.......@.
  40013c:	e1 0f 40 00                                         ..@.

00400140 <__do_global_dtors_aux>:
  400140:	b510      	push	{r4, lr}
  400142:	4c05      	ldr	r4, [pc, #20]	; (400158 <__do_global_dtors_aux+0x18>)
  400144:	7823      	ldrb	r3, [r4, #0]
  400146:	b933      	cbnz	r3, 400156 <__do_global_dtors_aux+0x16>
  400148:	4b04      	ldr	r3, [pc, #16]	; (40015c <__do_global_dtors_aux+0x1c>)
  40014a:	b113      	cbz	r3, 400152 <__do_global_dtors_aux+0x12>
  40014c:	4804      	ldr	r0, [pc, #16]	; (400160 <__do_global_dtors_aux+0x20>)
  40014e:	f3af 8000 	nop.w
  400152:	2301      	movs	r3, #1
  400154:	7023      	strb	r3, [r4, #0]
  400156:	bd10      	pop	{r4, pc}
  400158:	2040043c 	.word	0x2040043c
  40015c:	00000000 	.word	0x00000000
  400160:	00401b38 	.word	0x00401b38

00400164 <frame_dummy>:
  400164:	4b0c      	ldr	r3, [pc, #48]	; (400198 <frame_dummy+0x34>)
  400166:	b143      	cbz	r3, 40017a <frame_dummy+0x16>
  400168:	480c      	ldr	r0, [pc, #48]	; (40019c <frame_dummy+0x38>)
  40016a:	490d      	ldr	r1, [pc, #52]	; (4001a0 <frame_dummy+0x3c>)
  40016c:	b510      	push	{r4, lr}
  40016e:	f3af 8000 	nop.w
  400172:	480c      	ldr	r0, [pc, #48]	; (4001a4 <frame_dummy+0x40>)
  400174:	6803      	ldr	r3, [r0, #0]
  400176:	b923      	cbnz	r3, 400182 <frame_dummy+0x1e>
  400178:	bd10      	pop	{r4, pc}
  40017a:	480a      	ldr	r0, [pc, #40]	; (4001a4 <frame_dummy+0x40>)
  40017c:	6803      	ldr	r3, [r0, #0]
  40017e:	b933      	cbnz	r3, 40018e <frame_dummy+0x2a>
  400180:	4770      	bx	lr
  400182:	4b09      	ldr	r3, [pc, #36]	; (4001a8 <frame_dummy+0x44>)
  400184:	2b00      	cmp	r3, #0
  400186:	d0f7      	beq.n	400178 <frame_dummy+0x14>
  400188:	e8bd 4010 	ldmia.w	sp!, {r4, lr}
  40018c:	4718      	bx	r3
  40018e:	4b06      	ldr	r3, [pc, #24]	; (4001a8 <frame_dummy+0x44>)
  400190:	2b00      	cmp	r3, #0
  400192:	d0f5      	beq.n	400180 <frame_dummy+0x1c>
  400194:	4718      	bx	r3
  400196:	bf00      	nop
  400198:	00000000 	.word	0x00000000
  40019c:	00401b38 	.word	0x00401b38
  4001a0:	20400440 	.word	0x20400440
  4001a4:	00401b38 	.word	0x00401b38
  4001a8:	00000000 	.word	0x00000000

004001ac <osc_enable>:
  4001ac:	b580      	push	{r7, lr}
  4001ae:	b082      	sub	sp, #8
  4001b0:	af00      	add	r7, sp, #0
  4001b2:	6078      	str	r0, [r7, #4]
  4001b4:	687b      	ldr	r3, [r7, #4]
  4001b6:	2b07      	cmp	r3, #7
  4001b8:	d831      	bhi.n	40021e <osc_enable+0x72>
  4001ba:	a201      	add	r2, pc, #4	; (adr r2, 4001c0 <osc_enable+0x14>)
  4001bc:	f852 f023 	ldr.w	pc, [r2, r3, lsl #2]
  4001c0:	0040021d 	.word	0x0040021d
  4001c4:	004001e1 	.word	0x004001e1
  4001c8:	004001e9 	.word	0x004001e9
  4001cc:	004001f1 	.word	0x004001f1
  4001d0:	004001f9 	.word	0x004001f9
  4001d4:	00400201 	.word	0x00400201
  4001d8:	00400209 	.word	0x00400209
  4001dc:	00400213 	.word	0x00400213
  4001e0:	2000      	movs	r0, #0
  4001e2:	4b11      	ldr	r3, [pc, #68]	; (400228 <osc_enable+0x7c>)
  4001e4:	4798      	blx	r3
  4001e6:	e01a      	b.n	40021e <osc_enable+0x72>
  4001e8:	2001      	movs	r0, #1
  4001ea:	4b0f      	ldr	r3, [pc, #60]	; (400228 <osc_enable+0x7c>)
  4001ec:	4798      	blx	r3
  4001ee:	e016      	b.n	40021e <osc_enable+0x72>
  4001f0:	2000      	movs	r0, #0
  4001f2:	4b0e      	ldr	r3, [pc, #56]	; (40022c <osc_enable+0x80>)
  4001f4:	4798      	blx	r3
  4001f6:	e012      	b.n	40021e <osc_enable+0x72>
  4001f8:	2010      	movs	r0, #16
  4001fa:	4b0c      	ldr	r3, [pc, #48]	; (40022c <osc_enable+0x80>)
  4001fc:	4798      	blx	r3
  4001fe:	e00e      	b.n	40021e <osc_enable+0x72>
  400200:	2020      	movs	r0, #32
  400202:	4b0a      	ldr	r3, [pc, #40]	; (40022c <osc_enable+0x80>)
  400204:	4798      	blx	r3
  400206:	e00a      	b.n	40021e <osc_enable+0x72>
  400208:	213e      	movs	r1, #62	; 0x3e
  40020a:	2000      	movs	r0, #0
  40020c:	4b08      	ldr	r3, [pc, #32]	; (400230 <osc_enable+0x84>)
  40020e:	4798      	blx	r3
  400210:	e005      	b.n	40021e <osc_enable+0x72>
  400212:	213e      	movs	r1, #62	; 0x3e
  400214:	2001      	movs	r0, #1
  400216:	4b06      	ldr	r3, [pc, #24]	; (400230 <osc_enable+0x84>)
  400218:	4798      	blx	r3
  40021a:	e000      	b.n	40021e <osc_enable+0x72>
  40021c:	bf00      	nop
  40021e:	bf00      	nop
  400220:	3708      	adds	r7, #8
  400222:	46bd      	mov	sp, r7
  400224:	bd80      	pop	{r7, pc}
  400226:	bf00      	nop
  400228:	00400a0d 	.word	0x00400a0d
  40022c:	00400a79 	.word	0x00400a79
  400230:	00400ae9 	.word	0x00400ae9

00400234 <osc_is_ready>:
  400234:	b580      	push	{r7, lr}
  400236:	b082      	sub	sp, #8
  400238:	af00      	add	r7, sp, #0
  40023a:	6078      	str	r0, [r7, #4]
  40023c:	687b      	ldr	r3, [r7, #4]
  40023e:	2b07      	cmp	r3, #7
  400240:	d826      	bhi.n	400290 <osc_is_ready+0x5c>
  400242:	a201      	add	r2, pc, #4	; (adr r2, 400248 <osc_is_ready+0x14>)
  400244:	f852 f023 	ldr.w	pc, [r2, r3, lsl #2]
  400248:	00400269 	.word	0x00400269
  40024c:	0040026d 	.word	0x0040026d
  400250:	0040026d 	.word	0x0040026d
  400254:	0040027f 	.word	0x0040027f
  400258:	0040027f 	.word	0x0040027f
  40025c:	0040027f 	.word	0x0040027f
  400260:	0040027f 	.word	0x0040027f
  400264:	0040027f 	.word	0x0040027f
  400268:	2301      	movs	r3, #1
  40026a:	e012      	b.n	400292 <osc_is_ready+0x5e>
  40026c:	4b0b      	ldr	r3, [pc, #44]	; (40029c <osc_is_ready+0x68>)
  40026e:	4798      	blx	r3
  400270:	4603      	mov	r3, r0
  400272:	2b00      	cmp	r3, #0
  400274:	bf14      	ite	ne
  400276:	2301      	movne	r3, #1
  400278:	2300      	moveq	r3, #0
  40027a:	b2db      	uxtb	r3, r3
  40027c:	e009      	b.n	400292 <osc_is_ready+0x5e>
  40027e:	4b08      	ldr	r3, [pc, #32]	; (4002a0 <osc_is_ready+0x6c>)
  400280:	4798      	blx	r3
  400282:	4603      	mov	r3, r0
  400284:	2b00      	cmp	r3, #0
  400286:	bf14      	ite	ne
  400288:	2301      	movne	r3, #1
  40028a:	2300      	moveq	r3, #0
  40028c:	b2db      	uxtb	r3, r3
  40028e:	e000      	b.n	400292 <osc_is_ready+0x5e>
  400290:	2300      	movs	r3, #0
  400292:	4618      	mov	r0, r3
  400294:	3708      	adds	r7, #8
  400296:	46bd      	mov	sp, r7
  400298:	bd80      	pop	{r7, pc}
  40029a:	bf00      	nop
  40029c:	00400a45 	.word	0x00400a45
  4002a0:	00400b61 	.word	0x00400b61

004002a4 <osc_get_rate>:
  4002a4:	b480      	push	{r7}
  4002a6:	b083      	sub	sp, #12
  4002a8:	af00      	add	r7, sp, #0
  4002aa:	6078      	str	r0, [r7, #4]
  4002ac:	687b      	ldr	r3, [r7, #4]
  4002ae:	2b07      	cmp	r3, #7
  4002b0:	d825      	bhi.n	4002fe <osc_get_rate+0x5a>
  4002b2:	a201      	add	r2, pc, #4	; (adr r2, 4002b8 <osc_get_rate+0x14>)
  4002b4:	f852 f023 	ldr.w	pc, [r2, r3, lsl #2]
  4002b8:	004002d9 	.word	0x004002d9
  4002bc:	004002df 	.word	0x004002df
  4002c0:	004002e5 	.word	0x004002e5
  4002c4:	004002eb 	.word	0x004002eb
  4002c8:	004002ef 	.word	0x004002ef
  4002cc:	004002f3 	.word	0x004002f3
  4002d0:	004002f7 	.word	0x004002f7
  4002d4:	004002fb 	.word	0x004002fb
  4002d8:	f44f 43fa 	mov.w	r3, #32000	; 0x7d00
  4002dc:	e010      	b.n	400300 <osc_get_rate+0x5c>
  4002de:	f44f 4300 	mov.w	r3, #32768	; 0x8000
  4002e2:	e00d      	b.n	400300 <osc_get_rate+0x5c>
  4002e4:	f44f 4300 	mov.w	r3, #32768	; 0x8000
  4002e8:	e00a      	b.n	400300 <osc_get_rate+0x5c>
  4002ea:	4b08      	ldr	r3, [pc, #32]	; (40030c <osc_get_rate+0x68>)
  4002ec:	e008      	b.n	400300 <osc_get_rate+0x5c>
  4002ee:	4b08      	ldr	r3, [pc, #32]	; (400310 <osc_get_rate+0x6c>)
  4002f0:	e006      	b.n	400300 <osc_get_rate+0x5c>
  4002f2:	4b08      	ldr	r3, [pc, #32]	; (400314 <osc_get_rate+0x70>)
  4002f4:	e004      	b.n	400300 <osc_get_rate+0x5c>
  4002f6:	4b07      	ldr	r3, [pc, #28]	; (400314 <osc_get_rate+0x70>)
  4002f8:	e002      	b.n	400300 <osc_get_rate+0x5c>
  4002fa:	4b06      	ldr	r3, [pc, #24]	; (400314 <osc_get_rate+0x70>)
  4002fc:	e000      	b.n	400300 <osc_get_rate+0x5c>
  4002fe:	2300      	movs	r3, #0
  400300:	4618      	mov	r0, r3
  400302:	370c      	adds	r7, #12
  400304:	46bd      	mov	sp, r7
  400306:	f85d 7b04 	ldr.w	r7, [sp], #4
  40030a:	4770      	bx	lr
  40030c:	003d0900 	.word	0x003d0900
  400310:	007a1200 	.word	0x007a1200
  400314:	00b71b00 	.word	0x00b71b00

00400318 <osc_wait_ready>:
  400318:	b580      	push	{r7, lr}
  40031a:	b082      	sub	sp, #8
  40031c:	af00      	add	r7, sp, #0
  40031e:	4603      	mov	r3, r0
  400320:	71fb      	strb	r3, [r7, #7]
  400322:	bf00      	nop
  400324:	79fb      	ldrb	r3, [r7, #7]
  400326:	4618      	mov	r0, r3
  400328:	4b05      	ldr	r3, [pc, #20]	; (400340 <osc_wait_ready+0x28>)
  40032a:	4798      	blx	r3
  40032c:	4603      	mov	r3, r0
  40032e:	f083 0301 	eor.w	r3, r3, #1
  400332:	b2db      	uxtb	r3, r3
  400334:	2b00      	cmp	r3, #0
  400336:	d1f5      	bne.n	400324 <osc_wait_ready+0xc>
  400338:	bf00      	nop
  40033a:	3708      	adds	r7, #8
  40033c:	46bd      	mov	sp, r7
  40033e:	bd80      	pop	{r7, pc}
  400340:	00400235 	.word	0x00400235

00400344 <pll_config_init>:
  400344:	b580      	push	{r7, lr}
  400346:	b086      	sub	sp, #24
  400348:	af00      	add	r7, sp, #0
  40034a:	60f8      	str	r0, [r7, #12]
  40034c:	607a      	str	r2, [r7, #4]
  40034e:	603b      	str	r3, [r7, #0]
  400350:	460b      	mov	r3, r1
  400352:	72fb      	strb	r3, [r7, #11]
  400354:	687b      	ldr	r3, [r7, #4]
  400356:	2b00      	cmp	r3, #0
  400358:	d107      	bne.n	40036a <pll_config_init+0x26>
  40035a:	683b      	ldr	r3, [r7, #0]
  40035c:	2b00      	cmp	r3, #0
  40035e:	d104      	bne.n	40036a <pll_config_init+0x26>
  400360:	68fb      	ldr	r3, [r7, #12]
  400362:	f44f 0270 	mov.w	r2, #15728640	; 0xf00000
  400366:	601a      	str	r2, [r3, #0]
  400368:	e019      	b.n	40039e <pll_config_init+0x5a>
  40036a:	7afb      	ldrb	r3, [r7, #11]
  40036c:	4618      	mov	r0, r3
  40036e:	4b0e      	ldr	r3, [pc, #56]	; (4003a8 <pll_config_init+0x64>)
  400370:	4798      	blx	r3
  400372:	4602      	mov	r2, r0
  400374:	687b      	ldr	r3, [r7, #4]
  400376:	fbb2 f3f3 	udiv	r3, r2, r3
  40037a:	617b      	str	r3, [r7, #20]
  40037c:	697b      	ldr	r3, [r7, #20]
  40037e:	683a      	ldr	r2, [r7, #0]
  400380:	fb02 f303 	mul.w	r3, r2, r3
  400384:	617b      	str	r3, [r7, #20]
  400386:	683b      	ldr	r3, [r7, #0]
  400388:	3b01      	subs	r3, #1
  40038a:	041a      	lsls	r2, r3, #16
  40038c:	4b07      	ldr	r3, [pc, #28]	; (4003ac <pll_config_init+0x68>)
  40038e:	4013      	ands	r3, r2
  400390:	687a      	ldr	r2, [r7, #4]
  400392:	b2d2      	uxtb	r2, r2
  400394:	4313      	orrs	r3, r2
  400396:	f443 527c 	orr.w	r2, r3, #16128	; 0x3f00
  40039a:	68fb      	ldr	r3, [r7, #12]
  40039c:	601a      	str	r2, [r3, #0]
  40039e:	bf00      	nop
  4003a0:	3718      	adds	r7, #24
  4003a2:	46bd      	mov	sp, r7
  4003a4:	bd80      	pop	{r7, pc}
  4003a6:	bf00      	nop
  4003a8:	004002a5 	.word	0x004002a5
  4003ac:	07ff0000 	.word	0x07ff0000

004003b0 <pll_enable>:
  4003b0:	b580      	push	{r7, lr}
  4003b2:	b082      	sub	sp, #8
  4003b4:	af00      	add	r7, sp, #0
  4003b6:	6078      	str	r0, [r7, #4]
  4003b8:	6039      	str	r1, [r7, #0]
  4003ba:	683b      	ldr	r3, [r7, #0]
  4003bc:	2b00      	cmp	r3, #0
  4003be:	d108      	bne.n	4003d2 <pll_enable+0x22>
  4003c0:	4b09      	ldr	r3, [pc, #36]	; (4003e8 <pll_enable+0x38>)
  4003c2:	4798      	blx	r3
  4003c4:	4a09      	ldr	r2, [pc, #36]	; (4003ec <pll_enable+0x3c>)
  4003c6:	687b      	ldr	r3, [r7, #4]
  4003c8:	681b      	ldr	r3, [r3, #0]
  4003ca:	f043 5300 	orr.w	r3, r3, #536870912	; 0x20000000
  4003ce:	6293      	str	r3, [r2, #40]	; 0x28
  4003d0:	e005      	b.n	4003de <pll_enable+0x2e>
  4003d2:	4a06      	ldr	r2, [pc, #24]	; (4003ec <pll_enable+0x3c>)
  4003d4:	687b      	ldr	r3, [r7, #4]
  4003d6:	681b      	ldr	r3, [r3, #0]
  4003d8:	f443 3380 	orr.w	r3, r3, #65536	; 0x10000
  4003dc:	61d3      	str	r3, [r2, #28]
  4003de:	bf00      	nop
  4003e0:	3708      	adds	r7, #8
  4003e2:	46bd      	mov	sp, r7
  4003e4:	bd80      	pop	{r7, pc}
  4003e6:	bf00      	nop
  4003e8:	00400b7d 	.word	0x00400b7d
  4003ec:	400e0600 	.word	0x400e0600

004003f0 <pll_is_locked>:
  4003f0:	b580      	push	{r7, lr}
  4003f2:	b082      	sub	sp, #8
  4003f4:	af00      	add	r7, sp, #0
  4003f6:	6078      	str	r0, [r7, #4]
  4003f8:	687b      	ldr	r3, [r7, #4]
  4003fa:	2b00      	cmp	r3, #0
  4003fc:	d103      	bne.n	400406 <pll_is_locked+0x16>
  4003fe:	4b05      	ldr	r3, [pc, #20]	; (400414 <pll_is_locked+0x24>)
  400400:	4798      	blx	r3
  400402:	4603      	mov	r3, r0
  400404:	e002      	b.n	40040c <pll_is_locked+0x1c>
  400406:	4b04      	ldr	r3, [pc, #16]	; (400418 <pll_is_locked+0x28>)
  400408:	4798      	blx	r3
  40040a:	4603      	mov	r3, r0
  40040c:	4618      	mov	r0, r3
  40040e:	3708      	adds	r7, #8
  400410:	46bd      	mov	sp, r7
  400412:	bd80      	pop	{r7, pc}
  400414:	00400b99 	.word	0x00400b99
  400418:	00400bb5 	.word	0x00400bb5

0040041c <pll_enable_source>:
  40041c:	b580      	push	{r7, lr}
  40041e:	b082      	sub	sp, #8
  400420:	af00      	add	r7, sp, #0
  400422:	4603      	mov	r3, r0
  400424:	71fb      	strb	r3, [r7, #7]
  400426:	79fb      	ldrb	r3, [r7, #7]
  400428:	3b03      	subs	r3, #3
  40042a:	2b04      	cmp	r3, #4
  40042c:	d808      	bhi.n	400440 <pll_enable_source+0x24>
  40042e:	79fb      	ldrb	r3, [r7, #7]
  400430:	4618      	mov	r0, r3
  400432:	4b06      	ldr	r3, [pc, #24]	; (40044c <pll_enable_source+0x30>)
  400434:	4798      	blx	r3
  400436:	79fb      	ldrb	r3, [r7, #7]
  400438:	4618      	mov	r0, r3
  40043a:	4b05      	ldr	r3, [pc, #20]	; (400450 <pll_enable_source+0x34>)
  40043c:	4798      	blx	r3
  40043e:	e000      	b.n	400442 <pll_enable_source+0x26>
  400440:	bf00      	nop
  400442:	bf00      	nop
  400444:	3708      	adds	r7, #8
  400446:	46bd      	mov	sp, r7
  400448:	bd80      	pop	{r7, pc}
  40044a:	bf00      	nop
  40044c:	004001ad 	.word	0x004001ad
  400450:	00400319 	.word	0x00400319

00400454 <pll_wait_for_lock>:
  400454:	b580      	push	{r7, lr}
  400456:	b082      	sub	sp, #8
  400458:	af00      	add	r7, sp, #0
  40045a:	6078      	str	r0, [r7, #4]
  40045c:	bf00      	nop
  40045e:	6878      	ldr	r0, [r7, #4]
  400460:	4b04      	ldr	r3, [pc, #16]	; (400474 <pll_wait_for_lock+0x20>)
  400462:	4798      	blx	r3
  400464:	4603      	mov	r3, r0
  400466:	2b00      	cmp	r3, #0
  400468:	d0f9      	beq.n	40045e <pll_wait_for_lock+0xa>
  40046a:	2300      	movs	r3, #0
  40046c:	4618      	mov	r0, r3
  40046e:	3708      	adds	r7, #8
  400470:	46bd      	mov	sp, r7
  400472:	bd80      	pop	{r7, pc}
  400474:	004003f1 	.word	0x004003f1

00400478 <sysclk_get_main_hz>:
  400478:	b580      	push	{r7, lr}
  40047a:	af00      	add	r7, sp, #0
  40047c:	2006      	movs	r0, #6
  40047e:	4b05      	ldr	r3, [pc, #20]	; (400494 <sysclk_get_main_hz+0x1c>)
  400480:	4798      	blx	r3
  400482:	4602      	mov	r2, r0
  400484:	4613      	mov	r3, r2
  400486:	009b      	lsls	r3, r3, #2
  400488:	4413      	add	r3, r2
  40048a:	009a      	lsls	r2, r3, #2
  40048c:	4413      	add	r3, r2
  40048e:	4618      	mov	r0, r3
  400490:	bd80      	pop	{r7, pc}
  400492:	bf00      	nop
  400494:	004002a5 	.word	0x004002a5

00400498 <sysclk_get_cpu_hz>:
  400498:	b580      	push	{r7, lr}
  40049a:	af00      	add	r7, sp, #0
  40049c:	4b02      	ldr	r3, [pc, #8]	; (4004a8 <sysclk_get_cpu_hz+0x10>)
  40049e:	4798      	blx	r3
  4004a0:	4603      	mov	r3, r0
  4004a2:	4618      	mov	r0, r3
  4004a4:	bd80      	pop	{r7, pc}
  4004a6:	bf00      	nop
  4004a8:	00400479 	.word	0x00400479

004004ac <sysclk_init>:
  4004ac:	b590      	push	{r4, r7, lr}
  4004ae:	b083      	sub	sp, #12
  4004b0:	af00      	add	r7, sp, #0
  4004b2:	4813      	ldr	r0, [pc, #76]	; (400500 <sysclk_init+0x54>)
  4004b4:	4b13      	ldr	r3, [pc, #76]	; (400504 <sysclk_init+0x58>)
  4004b6:	4798      	blx	r3
  4004b8:	2006      	movs	r0, #6
  4004ba:	4b13      	ldr	r3, [pc, #76]	; (400508 <sysclk_init+0x5c>)
  4004bc:	4798      	blx	r3
  4004be:	1d38      	adds	r0, r7, #4
  4004c0:	2319      	movs	r3, #25
  4004c2:	2201      	movs	r2, #1
  4004c4:	2106      	movs	r1, #6
  4004c6:	4c11      	ldr	r4, [pc, #68]	; (40050c <sysclk_init+0x60>)
  4004c8:	47a0      	blx	r4
  4004ca:	1d3b      	adds	r3, r7, #4
  4004cc:	2100      	movs	r1, #0
  4004ce:	4618      	mov	r0, r3
  4004d0:	4b0f      	ldr	r3, [pc, #60]	; (400510 <sysclk_init+0x64>)
  4004d2:	4798      	blx	r3
  4004d4:	2000      	movs	r0, #0
  4004d6:	4b0f      	ldr	r3, [pc, #60]	; (400514 <sysclk_init+0x68>)
  4004d8:	4798      	blx	r3
  4004da:	2002      	movs	r0, #2
  4004dc:	4b0e      	ldr	r3, [pc, #56]	; (400518 <sysclk_init+0x6c>)
  4004de:	4798      	blx	r3
  4004e0:	2000      	movs	r0, #0
  4004e2:	4b0e      	ldr	r3, [pc, #56]	; (40051c <sysclk_init+0x70>)
  4004e4:	4798      	blx	r3
  4004e6:	4b0e      	ldr	r3, [pc, #56]	; (400520 <sysclk_init+0x74>)
  4004e8:	4798      	blx	r3
  4004ea:	4b0e      	ldr	r3, [pc, #56]	; (400524 <sysclk_init+0x78>)
  4004ec:	4798      	blx	r3
  4004ee:	4603      	mov	r3, r0
  4004f0:	4618      	mov	r0, r3
  4004f2:	4b04      	ldr	r3, [pc, #16]	; (400504 <sysclk_init+0x58>)
  4004f4:	4798      	blx	r3
  4004f6:	bf00      	nop
  4004f8:	370c      	adds	r7, #12
  4004fa:	46bd      	mov	sp, r7
  4004fc:	bd90      	pop	{r4, r7, pc}
  4004fe:	bf00      	nop
  400500:	11e1a300 	.word	0x11e1a300
  400504:	00401151 	.word	0x00401151
  400508:	0040041d 	.word	0x0040041d
  40050c:	00400345 	.word	0x00400345
  400510:	004003b1 	.word	0x004003b1
  400514:	00400455 	.word	0x00400455
  400518:	0040090d 	.word	0x0040090d
  40051c:	00400989 	.word	0x00400989
  400520:	00400fe9 	.word	0x00400fe9
  400524:	00400499 	.word	0x00400499

00400528 <pio_pull_up>:
  400528:	b480      	push	{r7}
  40052a:	b085      	sub	sp, #20
  40052c:	af00      	add	r7, sp, #0
  40052e:	60f8      	str	r0, [r7, #12]
  400530:	60b9      	str	r1, [r7, #8]
  400532:	607a      	str	r2, [r7, #4]
  400534:	687b      	ldr	r3, [r7, #4]
  400536:	2b00      	cmp	r3, #0
  400538:	d003      	beq.n	400542 <pio_pull_up+0x1a>
  40053a:	68fb      	ldr	r3, [r7, #12]
  40053c:	68ba      	ldr	r2, [r7, #8]
  40053e:	665a      	str	r2, [r3, #100]	; 0x64
  400540:	e002      	b.n	400548 <pio_pull_up+0x20>
  400542:	68fb      	ldr	r3, [r7, #12]
  400544:	68ba      	ldr	r2, [r7, #8]
  400546:	661a      	str	r2, [r3, #96]	; 0x60
  400548:	bf00      	nop
  40054a:	3714      	adds	r7, #20
  40054c:	46bd      	mov	sp, r7
  40054e:	f85d 7b04 	ldr.w	r7, [sp], #4
  400552:	4770      	bx	lr

00400554 <pio_set>:
  400554:	b480      	push	{r7}
  400556:	b083      	sub	sp, #12
  400558:	af00      	add	r7, sp, #0
  40055a:	6078      	str	r0, [r7, #4]
  40055c:	6039      	str	r1, [r7, #0]
  40055e:	687b      	ldr	r3, [r7, #4]
  400560:	683a      	ldr	r2, [r7, #0]
  400562:	631a      	str	r2, [r3, #48]	; 0x30
  400564:	bf00      	nop
  400566:	370c      	adds	r7, #12
  400568:	46bd      	mov	sp, r7
  40056a:	f85d 7b04 	ldr.w	r7, [sp], #4
  40056e:	4770      	bx	lr

00400570 <pio_set_peripheral>:
  400570:	b480      	push	{r7}
  400572:	b087      	sub	sp, #28
  400574:	af00      	add	r7, sp, #0
  400576:	60f8      	str	r0, [r7, #12]
  400578:	60b9      	str	r1, [r7, #8]
  40057a:	607a      	str	r2, [r7, #4]
  40057c:	68fb      	ldr	r3, [r7, #12]
  40057e:	687a      	ldr	r2, [r7, #4]
  400580:	645a      	str	r2, [r3, #68]	; 0x44
  400582:	68bb      	ldr	r3, [r7, #8]
  400584:	f1b3 5fc0 	cmp.w	r3, #402653184	; 0x18000000
  400588:	d04a      	beq.n	400620 <pio_set_peripheral+0xb0>
  40058a:	f1b3 5fc0 	cmp.w	r3, #402653184	; 0x18000000
  40058e:	d808      	bhi.n	4005a2 <pio_set_peripheral+0x32>
  400590:	f1b3 6f00 	cmp.w	r3, #134217728	; 0x8000000
  400594:	d016      	beq.n	4005c4 <pio_set_peripheral+0x54>
  400596:	f1b3 5f80 	cmp.w	r3, #268435456	; 0x10000000
  40059a:	d02c      	beq.n	4005f6 <pio_set_peripheral+0x86>
  40059c:	2b00      	cmp	r3, #0
  40059e:	d069      	beq.n	400674 <pio_set_peripheral+0x104>
  4005a0:	e064      	b.n	40066c <pio_set_peripheral+0xfc>
  4005a2:	f1b3 5f20 	cmp.w	r3, #671088640	; 0x28000000
  4005a6:	d065      	beq.n	400674 <pio_set_peripheral+0x104>
  4005a8:	f1b3 5f20 	cmp.w	r3, #671088640	; 0x28000000
  4005ac:	d803      	bhi.n	4005b6 <pio_set_peripheral+0x46>
  4005ae:	f1b3 5f00 	cmp.w	r3, #536870912	; 0x20000000
  4005b2:	d04a      	beq.n	40064a <pio_set_peripheral+0xda>
  4005b4:	e05a      	b.n	40066c <pio_set_peripheral+0xfc>
  4005b6:	f1b3 5f40 	cmp.w	r3, #805306368	; 0x30000000
  4005ba:	d05b      	beq.n	400674 <pio_set_peripheral+0x104>
  4005bc:	f1b3 5f60 	cmp.w	r3, #939524096	; 0x38000000
  4005c0:	d058      	beq.n	400674 <pio_set_peripheral+0x104>
  4005c2:	e053      	b.n	40066c <pio_set_peripheral+0xfc>
  4005c4:	68fb      	ldr	r3, [r7, #12]
  4005c6:	6f1b      	ldr	r3, [r3, #112]	; 0x70
  4005c8:	617b      	str	r3, [r7, #20]
  4005ca:	68fb      	ldr	r3, [r7, #12]
  4005cc:	6f1a      	ldr	r2, [r3, #112]	; 0x70
  4005ce:	687b      	ldr	r3, [r7, #4]
  4005d0:	43d9      	mvns	r1, r3
  4005d2:	697b      	ldr	r3, [r7, #20]
  4005d4:	400b      	ands	r3, r1
  4005d6:	401a      	ands	r2, r3
  4005d8:	68fb      	ldr	r3, [r7, #12]
  4005da:	671a      	str	r2, [r3, #112]	; 0x70
  4005dc:	68fb      	ldr	r3, [r7, #12]
  4005de:	6f5b      	ldr	r3, [r3, #116]	; 0x74
  4005e0:	617b      	str	r3, [r7, #20]
  4005e2:	68fb      	ldr	r3, [r7, #12]
  4005e4:	6f5a      	ldr	r2, [r3, #116]	; 0x74
  4005e6:	687b      	ldr	r3, [r7, #4]
  4005e8:	43d9      	mvns	r1, r3
  4005ea:	697b      	ldr	r3, [r7, #20]
  4005ec:	400b      	ands	r3, r1
  4005ee:	401a      	ands	r2, r3
  4005f0:	68fb      	ldr	r3, [r7, #12]
  4005f2:	675a      	str	r2, [r3, #116]	; 0x74
  4005f4:	e03a      	b.n	40066c <pio_set_peripheral+0xfc>
  4005f6:	68fb      	ldr	r3, [r7, #12]
  4005f8:	6f1b      	ldr	r3, [r3, #112]	; 0x70
  4005fa:	617b      	str	r3, [r7, #20]
  4005fc:	687a      	ldr	r2, [r7, #4]
  4005fe:	697b      	ldr	r3, [r7, #20]
  400600:	431a      	orrs	r2, r3
  400602:	68fb      	ldr	r3, [r7, #12]
  400604:	671a      	str	r2, [r3, #112]	; 0x70
  400606:	68fb      	ldr	r3, [r7, #12]
  400608:	6f5b      	ldr	r3, [r3, #116]	; 0x74
  40060a:	617b      	str	r3, [r7, #20]
  40060c:	68fb      	ldr	r3, [r7, #12]
  40060e:	6f5a      	ldr	r2, [r3, #116]	; 0x74
  400610:	687b      	ldr	r3, [r7, #4]
  400612:	43d9      	mvns	r1, r3
  400614:	697b      	ldr	r3, [r7, #20]
  400616:	400b      	ands	r3, r1
  400618:	401a      	ands	r2, r3
  40061a:	68fb      	ldr	r3, [r7, #12]
  40061c:	675a      	str	r2, [r3, #116]	; 0x74
  40061e:	e025      	b.n	40066c <pio_set_peripheral+0xfc>
  400620:	68fb      	ldr	r3, [r7, #12]
  400622:	6f1b      	ldr	r3, [r3, #112]	; 0x70
  400624:	617b      	str	r3, [r7, #20]
  400626:	68fb      	ldr	r3, [r7, #12]
  400628:	6f1a      	ldr	r2, [r3, #112]	; 0x70
  40062a:	687b      	ldr	r3, [r7, #4]
  40062c:	43d9      	mvns	r1, r3
  40062e:	697b      	ldr	r3, [r7, #20]
  400630:	400b      	ands	r3, r1
  400632:	401a      	ands	r2, r3
  400634:	68fb      	ldr	r3, [r7, #12]
  400636:	671a      	str	r2, [r3, #112]	; 0x70
  400638:	68fb      	ldr	r3, [r7, #12]
  40063a:	6f5b      	ldr	r3, [r3, #116]	; 0x74
  40063c:	617b      	str	r3, [r7, #20]
  40063e:	687a      	ldr	r2, [r7, #4]
  400640:	697b      	ldr	r3, [r7, #20]
  400642:	431a      	orrs	r2, r3
  400644:	68fb      	ldr	r3, [r7, #12]
  400646:	675a      	str	r2, [r3, #116]	; 0x74
  400648:	e010      	b.n	40066c <pio_set_peripheral+0xfc>
  40064a:	68fb      	ldr	r3, [r7, #12]
  40064c:	6f1b      	ldr	r3, [r3, #112]	; 0x70
  40064e:	617b      	str	r3, [r7, #20]
  400650:	687a      	ldr	r2, [r7, #4]
  400652:	697b      	ldr	r3, [r7, #20]
  400654:	431a      	orrs	r2, r3
  400656:	68fb      	ldr	r3, [r7, #12]
  400658:	671a      	str	r2, [r3, #112]	; 0x70
  40065a:	68fb      	ldr	r3, [r7, #12]
  40065c:	6f5b      	ldr	r3, [r3, #116]	; 0x74
  40065e:	617b      	str	r3, [r7, #20]
  400660:	687a      	ldr	r2, [r7, #4]
  400662:	697b      	ldr	r3, [r7, #20]
  400664:	431a      	orrs	r2, r3
  400666:	68fb      	ldr	r3, [r7, #12]
  400668:	675a      	str	r2, [r3, #116]	; 0x74
  40066a:	bf00      	nop
  40066c:	68fb      	ldr	r3, [r7, #12]
  40066e:	687a      	ldr	r2, [r7, #4]
  400670:	605a      	str	r2, [r3, #4]
  400672:	e000      	b.n	400676 <pio_set_peripheral+0x106>
  400674:	bf00      	nop
  400676:	371c      	adds	r7, #28
  400678:	46bd      	mov	sp, r7
  40067a:	f85d 7b04 	ldr.w	r7, [sp], #4
  40067e:	4770      	bx	lr

00400680 <pio_set_input>:
  400680:	b580      	push	{r7, lr}
  400682:	b084      	sub	sp, #16
  400684:	af00      	add	r7, sp, #0
  400686:	60f8      	str	r0, [r7, #12]
  400688:	60b9      	str	r1, [r7, #8]
  40068a:	607a      	str	r2, [r7, #4]
  40068c:	68b9      	ldr	r1, [r7, #8]
  40068e:	68f8      	ldr	r0, [r7, #12]
  400690:	4b19      	ldr	r3, [pc, #100]	; (4006f8 <pio_set_input+0x78>)
  400692:	4798      	blx	r3
  400694:	687b      	ldr	r3, [r7, #4]
  400696:	f003 0301 	and.w	r3, r3, #1
  40069a:	461a      	mov	r2, r3
  40069c:	68b9      	ldr	r1, [r7, #8]
  40069e:	68f8      	ldr	r0, [r7, #12]
  4006a0:	4b16      	ldr	r3, [pc, #88]	; (4006fc <pio_set_input+0x7c>)
  4006a2:	4798      	blx	r3
  4006a4:	687b      	ldr	r3, [r7, #4]
  4006a6:	f003 030a 	and.w	r3, r3, #10
  4006aa:	2b00      	cmp	r3, #0
  4006ac:	d003      	beq.n	4006b6 <pio_set_input+0x36>
  4006ae:	68fb      	ldr	r3, [r7, #12]
  4006b0:	68ba      	ldr	r2, [r7, #8]
  4006b2:	621a      	str	r2, [r3, #32]
  4006b4:	e002      	b.n	4006bc <pio_set_input+0x3c>
  4006b6:	68fb      	ldr	r3, [r7, #12]
  4006b8:	68ba      	ldr	r2, [r7, #8]
  4006ba:	625a      	str	r2, [r3, #36]	; 0x24
  4006bc:	687b      	ldr	r3, [r7, #4]
  4006be:	f003 0302 	and.w	r3, r3, #2
  4006c2:	2b00      	cmp	r3, #0
  4006c4:	d004      	beq.n	4006d0 <pio_set_input+0x50>
  4006c6:	68fb      	ldr	r3, [r7, #12]
  4006c8:	68ba      	ldr	r2, [r7, #8]
  4006ca:	f8c3 2080 	str.w	r2, [r3, #128]	; 0x80
  4006ce:	e008      	b.n	4006e2 <pio_set_input+0x62>
  4006d0:	687b      	ldr	r3, [r7, #4]
  4006d2:	f003 0308 	and.w	r3, r3, #8
  4006d6:	2b00      	cmp	r3, #0
  4006d8:	d003      	beq.n	4006e2 <pio_set_input+0x62>
  4006da:	68fb      	ldr	r3, [r7, #12]
  4006dc:	68ba      	ldr	r2, [r7, #8]
  4006de:	f8c3 2084 	str.w	r2, [r3, #132]	; 0x84
  4006e2:	68fb      	ldr	r3, [r7, #12]
  4006e4:	68ba      	ldr	r2, [r7, #8]
  4006e6:	615a      	str	r2, [r3, #20]
  4006e8:	68fb      	ldr	r3, [r7, #12]
  4006ea:	68ba      	ldr	r2, [r7, #8]
  4006ec:	601a      	str	r2, [r3, #0]
  4006ee:	bf00      	nop
  4006f0:	3710      	adds	r7, #16
  4006f2:	46bd      	mov	sp, r7
  4006f4:	bd80      	pop	{r7, pc}
  4006f6:	bf00      	nop
  4006f8:	00400795 	.word	0x00400795
  4006fc:	00400529 	.word	0x00400529

00400700 <pio_set_output>:
  400700:	b580      	push	{r7, lr}
  400702:	b084      	sub	sp, #16
  400704:	af00      	add	r7, sp, #0
  400706:	60f8      	str	r0, [r7, #12]
  400708:	60b9      	str	r1, [r7, #8]
  40070a:	607a      	str	r2, [r7, #4]
  40070c:	603b      	str	r3, [r7, #0]
  40070e:	68b9      	ldr	r1, [r7, #8]
  400710:	68f8      	ldr	r0, [r7, #12]
  400712:	4b12      	ldr	r3, [pc, #72]	; (40075c <pio_set_output+0x5c>)
  400714:	4798      	blx	r3
  400716:	69ba      	ldr	r2, [r7, #24]
  400718:	68b9      	ldr	r1, [r7, #8]
  40071a:	68f8      	ldr	r0, [r7, #12]
  40071c:	4b10      	ldr	r3, [pc, #64]	; (400760 <pio_set_output+0x60>)
  40071e:	4798      	blx	r3
  400720:	683b      	ldr	r3, [r7, #0]
  400722:	2b00      	cmp	r3, #0
  400724:	d003      	beq.n	40072e <pio_set_output+0x2e>
  400726:	68fb      	ldr	r3, [r7, #12]
  400728:	68ba      	ldr	r2, [r7, #8]
  40072a:	651a      	str	r2, [r3, #80]	; 0x50
  40072c:	e002      	b.n	400734 <pio_set_output+0x34>
  40072e:	68fb      	ldr	r3, [r7, #12]
  400730:	68ba      	ldr	r2, [r7, #8]
  400732:	655a      	str	r2, [r3, #84]	; 0x54
  400734:	687b      	ldr	r3, [r7, #4]
  400736:	2b00      	cmp	r3, #0
  400738:	d003      	beq.n	400742 <pio_set_output+0x42>
  40073a:	68fb      	ldr	r3, [r7, #12]
  40073c:	68ba      	ldr	r2, [r7, #8]
  40073e:	631a      	str	r2, [r3, #48]	; 0x30
  400740:	e002      	b.n	400748 <pio_set_output+0x48>
  400742:	68fb      	ldr	r3, [r7, #12]
  400744:	68ba      	ldr	r2, [r7, #8]
  400746:	635a      	str	r2, [r3, #52]	; 0x34
  400748:	68fb      	ldr	r3, [r7, #12]
  40074a:	68ba      	ldr	r2, [r7, #8]
  40074c:	611a      	str	r2, [r3, #16]
  40074e:	68fb      	ldr	r3, [r7, #12]
  400750:	68ba      	ldr	r2, [r7, #8]
  400752:	601a      	str	r2, [r3, #0]
  400754:	bf00      	nop
  400756:	3710      	adds	r7, #16
  400758:	46bd      	mov	sp, r7
  40075a:	bd80      	pop	{r7, pc}
  40075c:	00400795 	.word	0x00400795
  400760:	00400529 	.word	0x00400529

00400764 <pio_pull_down>:
  400764:	b480      	push	{r7}
  400766:	b085      	sub	sp, #20
  400768:	af00      	add	r7, sp, #0
  40076a:	60f8      	str	r0, [r7, #12]
  40076c:	60b9      	str	r1, [r7, #8]
  40076e:	607a      	str	r2, [r7, #4]
  400770:	687b      	ldr	r3, [r7, #4]
  400772:	2b00      	cmp	r3, #0
  400774:	d004      	beq.n	400780 <pio_pull_down+0x1c>
  400776:	68fb      	ldr	r3, [r7, #12]
  400778:	68ba      	ldr	r2, [r7, #8]
  40077a:	f8c3 2094 	str.w	r2, [r3, #148]	; 0x94
  40077e:	e003      	b.n	400788 <pio_pull_down+0x24>
  400780:	68fb      	ldr	r3, [r7, #12]
  400782:	68ba      	ldr	r2, [r7, #8]
  400784:	f8c3 2090 	str.w	r2, [r3, #144]	; 0x90
  400788:	bf00      	nop
  40078a:	3714      	adds	r7, #20
  40078c:	46bd      	mov	sp, r7
  40078e:	f85d 7b04 	ldr.w	r7, [sp], #4
  400792:	4770      	bx	lr

00400794 <pio_disable_interrupt>:
  400794:	b480      	push	{r7}
  400796:	b083      	sub	sp, #12
  400798:	af00      	add	r7, sp, #0
  40079a:	6078      	str	r0, [r7, #4]
  40079c:	6039      	str	r1, [r7, #0]
  40079e:	687b      	ldr	r3, [r7, #4]
  4007a0:	683a      	ldr	r2, [r7, #0]
  4007a2:	645a      	str	r2, [r3, #68]	; 0x44
  4007a4:	bf00      	nop
  4007a6:	370c      	adds	r7, #12
  4007a8:	46bd      	mov	sp, r7
  4007aa:	f85d 7b04 	ldr.w	r7, [sp], #4
  4007ae:	4770      	bx	lr

004007b0 <pio_get_interrupt_status>:
  4007b0:	b480      	push	{r7}
  4007b2:	b083      	sub	sp, #12
  4007b4:	af00      	add	r7, sp, #0
  4007b6:	6078      	str	r0, [r7, #4]
  4007b8:	687b      	ldr	r3, [r7, #4]
  4007ba:	6cdb      	ldr	r3, [r3, #76]	; 0x4c
  4007bc:	4618      	mov	r0, r3
  4007be:	370c      	adds	r7, #12
  4007c0:	46bd      	mov	sp, r7
  4007c2:	f85d 7b04 	ldr.w	r7, [sp], #4
  4007c6:	4770      	bx	lr

004007c8 <pio_get_interrupt_mask>:
  4007c8:	b480      	push	{r7}
  4007ca:	b083      	sub	sp, #12
  4007cc:	af00      	add	r7, sp, #0
  4007ce:	6078      	str	r0, [r7, #4]
  4007d0:	687b      	ldr	r3, [r7, #4]
  4007d2:	6c9b      	ldr	r3, [r3, #72]	; 0x48
  4007d4:	4618      	mov	r0, r3
  4007d6:	370c      	adds	r7, #12
  4007d8:	46bd      	mov	sp, r7
  4007da:	f85d 7b04 	ldr.w	r7, [sp], #4
  4007de:	4770      	bx	lr

004007e0 <pio_handler_process>:
  4007e0:	b580      	push	{r7, lr}
  4007e2:	b084      	sub	sp, #16
  4007e4:	af00      	add	r7, sp, #0
  4007e6:	6078      	str	r0, [r7, #4]
  4007e8:	6039      	str	r1, [r7, #0]
  4007ea:	6878      	ldr	r0, [r7, #4]
  4007ec:	4b26      	ldr	r3, [pc, #152]	; (400888 <pio_handler_process+0xa8>)
  4007ee:	4798      	blx	r3
  4007f0:	60f8      	str	r0, [r7, #12]
  4007f2:	6878      	ldr	r0, [r7, #4]
  4007f4:	4b25      	ldr	r3, [pc, #148]	; (40088c <pio_handler_process+0xac>)
  4007f6:	4798      	blx	r3
  4007f8:	4602      	mov	r2, r0
  4007fa:	68fb      	ldr	r3, [r7, #12]
  4007fc:	4013      	ands	r3, r2
  4007fe:	60fb      	str	r3, [r7, #12]
  400800:	68fb      	ldr	r3, [r7, #12]
  400802:	2b00      	cmp	r3, #0
  400804:	d03c      	beq.n	400880 <pio_handler_process+0xa0>
  400806:	2300      	movs	r3, #0
  400808:	60bb      	str	r3, [r7, #8]
  40080a:	e034      	b.n	400876 <pio_handler_process+0x96>
  40080c:	4a20      	ldr	r2, [pc, #128]	; (400890 <pio_handler_process+0xb0>)
  40080e:	68bb      	ldr	r3, [r7, #8]
  400810:	011b      	lsls	r3, r3, #4
  400812:	4413      	add	r3, r2
  400814:	681a      	ldr	r2, [r3, #0]
  400816:	683b      	ldr	r3, [r7, #0]
  400818:	429a      	cmp	r2, r3
  40081a:	d126      	bne.n	40086a <pio_handler_process+0x8a>
  40081c:	4a1c      	ldr	r2, [pc, #112]	; (400890 <pio_handler_process+0xb0>)
  40081e:	68bb      	ldr	r3, [r7, #8]
  400820:	011b      	lsls	r3, r3, #4
  400822:	4413      	add	r3, r2
  400824:	3304      	adds	r3, #4
  400826:	681a      	ldr	r2, [r3, #0]
  400828:	68fb      	ldr	r3, [r7, #12]
  40082a:	4013      	ands	r3, r2
  40082c:	2b00      	cmp	r3, #0
  40082e:	d01c      	beq.n	40086a <pio_handler_process+0x8a>
  400830:	4a17      	ldr	r2, [pc, #92]	; (400890 <pio_handler_process+0xb0>)
  400832:	68bb      	ldr	r3, [r7, #8]
  400834:	011b      	lsls	r3, r3, #4
  400836:	4413      	add	r3, r2
  400838:	330c      	adds	r3, #12
  40083a:	681b      	ldr	r3, [r3, #0]
  40083c:	4914      	ldr	r1, [pc, #80]	; (400890 <pio_handler_process+0xb0>)
  40083e:	68ba      	ldr	r2, [r7, #8]
  400840:	0112      	lsls	r2, r2, #4
  400842:	440a      	add	r2, r1
  400844:	6810      	ldr	r0, [r2, #0]
  400846:	4912      	ldr	r1, [pc, #72]	; (400890 <pio_handler_process+0xb0>)
  400848:	68ba      	ldr	r2, [r7, #8]
  40084a:	0112      	lsls	r2, r2, #4
  40084c:	440a      	add	r2, r1
  40084e:	3204      	adds	r2, #4
  400850:	6812      	ldr	r2, [r2, #0]
  400852:	4611      	mov	r1, r2
  400854:	4798      	blx	r3
  400856:	4a0e      	ldr	r2, [pc, #56]	; (400890 <pio_handler_process+0xb0>)
  400858:	68bb      	ldr	r3, [r7, #8]
  40085a:	011b      	lsls	r3, r3, #4
  40085c:	4413      	add	r3, r2
  40085e:	3304      	adds	r3, #4
  400860:	681b      	ldr	r3, [r3, #0]
  400862:	43db      	mvns	r3, r3
  400864:	68fa      	ldr	r2, [r7, #12]
  400866:	4013      	ands	r3, r2
  400868:	60fb      	str	r3, [r7, #12]
  40086a:	68bb      	ldr	r3, [r7, #8]
  40086c:	3301      	adds	r3, #1
  40086e:	60bb      	str	r3, [r7, #8]
  400870:	68bb      	ldr	r3, [r7, #8]
  400872:	2b06      	cmp	r3, #6
  400874:	d803      	bhi.n	40087e <pio_handler_process+0x9e>
  400876:	68fb      	ldr	r3, [r7, #12]
  400878:	2b00      	cmp	r3, #0
  40087a:	d1c7      	bne.n	40080c <pio_handler_process+0x2c>
  40087c:	e000      	b.n	400880 <pio_handler_process+0xa0>
  40087e:	bf00      	nop
  400880:	bf00      	nop
  400882:	3710      	adds	r7, #16
  400884:	46bd      	mov	sp, r7
  400886:	bd80      	pop	{r7, pc}
  400888:	004007b1 	.word	0x004007b1
  40088c:	004007c9 	.word	0x004007c9
  400890:	20400458 	.word	0x20400458

00400894 <PIOA_Handler>:
  400894:	b580      	push	{r7, lr}
  400896:	af00      	add	r7, sp, #0
  400898:	210a      	movs	r1, #10
  40089a:	4802      	ldr	r0, [pc, #8]	; (4008a4 <PIOA_Handler+0x10>)
  40089c:	4b02      	ldr	r3, [pc, #8]	; (4008a8 <PIOA_Handler+0x14>)
  40089e:	4798      	blx	r3
  4008a0:	bf00      	nop
  4008a2:	bd80      	pop	{r7, pc}
  4008a4:	400e0e00 	.word	0x400e0e00
  4008a8:	004007e1 	.word	0x004007e1

004008ac <PIOB_Handler>:
  4008ac:	b580      	push	{r7, lr}
  4008ae:	af00      	add	r7, sp, #0
  4008b0:	210b      	movs	r1, #11
  4008b2:	4802      	ldr	r0, [pc, #8]	; (4008bc <PIOB_Handler+0x10>)
  4008b4:	4b02      	ldr	r3, [pc, #8]	; (4008c0 <PIOB_Handler+0x14>)
  4008b6:	4798      	blx	r3
  4008b8:	bf00      	nop
  4008ba:	bd80      	pop	{r7, pc}
  4008bc:	400e1000 	.word	0x400e1000
  4008c0:	004007e1 	.word	0x004007e1

004008c4 <PIOC_Handler>:
  4008c4:	b580      	push	{r7, lr}
  4008c6:	af00      	add	r7, sp, #0
  4008c8:	210c      	movs	r1, #12
  4008ca:	4802      	ldr	r0, [pc, #8]	; (4008d4 <PIOC_Handler+0x10>)
  4008cc:	4b02      	ldr	r3, [pc, #8]	; (4008d8 <PIOC_Handler+0x14>)
  4008ce:	4798      	blx	r3
  4008d0:	bf00      	nop
  4008d2:	bd80      	pop	{r7, pc}
  4008d4:	400e1200 	.word	0x400e1200
  4008d8:	004007e1 	.word	0x004007e1

004008dc <PIOD_Handler>:
  4008dc:	b580      	push	{r7, lr}
  4008de:	af00      	add	r7, sp, #0
  4008e0:	2110      	movs	r1, #16
  4008e2:	4802      	ldr	r0, [pc, #8]	; (4008ec <PIOD_Handler+0x10>)
  4008e4:	4b02      	ldr	r3, [pc, #8]	; (4008f0 <PIOD_Handler+0x14>)
  4008e6:	4798      	blx	r3
  4008e8:	bf00      	nop
  4008ea:	bd80      	pop	{r7, pc}
  4008ec:	400e1400 	.word	0x400e1400
  4008f0:	004007e1 	.word	0x004007e1

004008f4 <PIOE_Handler>:
  4008f4:	b580      	push	{r7, lr}
  4008f6:	af00      	add	r7, sp, #0
  4008f8:	2111      	movs	r1, #17
  4008fa:	4802      	ldr	r0, [pc, #8]	; (400904 <PIOE_Handler+0x10>)
  4008fc:	4b02      	ldr	r3, [pc, #8]	; (400908 <PIOE_Handler+0x14>)
  4008fe:	4798      	blx	r3
  400900:	bf00      	nop
  400902:	bd80      	pop	{r7, pc}
  400904:	400e1600 	.word	0x400e1600
  400908:	004007e1 	.word	0x004007e1

0040090c <pmc_mck_set_division>:
  40090c:	b480      	push	{r7}
  40090e:	b083      	sub	sp, #12
  400910:	af00      	add	r7, sp, #0
  400912:	6078      	str	r0, [r7, #4]
  400914:	687b      	ldr	r3, [r7, #4]
  400916:	3b01      	subs	r3, #1
  400918:	2b03      	cmp	r3, #3
  40091a:	d81a      	bhi.n	400952 <pmc_mck_set_division+0x46>
  40091c:	a201      	add	r2, pc, #4	; (adr r2, 400924 <pmc_mck_set_division+0x18>)
  40091e:	f852 f023 	ldr.w	pc, [r2, r3, lsl #2]
  400922:	bf00      	nop
  400924:	00400935 	.word	0x00400935
  400928:	0040093b 	.word	0x0040093b
  40092c:	00400943 	.word	0x00400943
  400930:	0040094b 	.word	0x0040094b
  400934:	2300      	movs	r3, #0
  400936:	607b      	str	r3, [r7, #4]
  400938:	e00e      	b.n	400958 <pmc_mck_set_division+0x4c>
  40093a:	f44f 7380 	mov.w	r3, #256	; 0x100
  40093e:	607b      	str	r3, [r7, #4]
  400940:	e00a      	b.n	400958 <pmc_mck_set_division+0x4c>
  400942:	f44f 7340 	mov.w	r3, #768	; 0x300
  400946:	607b      	str	r3, [r7, #4]
  400948:	e006      	b.n	400958 <pmc_mck_set_division+0x4c>
  40094a:	f44f 7300 	mov.w	r3, #512	; 0x200
  40094e:	607b      	str	r3, [r7, #4]
  400950:	e002      	b.n	400958 <pmc_mck_set_division+0x4c>
  400952:	2300      	movs	r3, #0
  400954:	607b      	str	r3, [r7, #4]
  400956:	bf00      	nop
  400958:	490a      	ldr	r1, [pc, #40]	; (400984 <pmc_mck_set_division+0x78>)
  40095a:	4b0a      	ldr	r3, [pc, #40]	; (400984 <pmc_mck_set_division+0x78>)
  40095c:	6b1b      	ldr	r3, [r3, #48]	; 0x30
  40095e:	f423 7240 	bic.w	r2, r3, #768	; 0x300
  400962:	687b      	ldr	r3, [r7, #4]
  400964:	4313      	orrs	r3, r2
  400966:	630b      	str	r3, [r1, #48]	; 0x30
  400968:	bf00      	nop
  40096a:	4b06      	ldr	r3, [pc, #24]	; (400984 <pmc_mck_set_division+0x78>)
  40096c:	6e9b      	ldr	r3, [r3, #104]	; 0x68
  40096e:	f003 0308 	and.w	r3, r3, #8
  400972:	2b00      	cmp	r3, #0
  400974:	d0f9      	beq.n	40096a <pmc_mck_set_division+0x5e>
  400976:	bf00      	nop
  400978:	370c      	adds	r7, #12
  40097a:	46bd      	mov	sp, r7
  40097c:	f85d 7b04 	ldr.w	r7, [sp], #4
  400980:	4770      	bx	lr
  400982:	bf00      	nop
  400984:	400e0600 	.word	0x400e0600

00400988 <pmc_switch_mck_to_pllack>:
  400988:	b480      	push	{r7}
  40098a:	b085      	sub	sp, #20
  40098c:	af00      	add	r7, sp, #0
  40098e:	6078      	str	r0, [r7, #4]
  400990:	491d      	ldr	r1, [pc, #116]	; (400a08 <pmc_switch_mck_to_pllack+0x80>)
  400992:	4b1d      	ldr	r3, [pc, #116]	; (400a08 <pmc_switch_mck_to_pllack+0x80>)
  400994:	6b1b      	ldr	r3, [r3, #48]	; 0x30
  400996:	f023 0270 	bic.w	r2, r3, #112	; 0x70
  40099a:	687b      	ldr	r3, [r7, #4]
  40099c:	4313      	orrs	r3, r2
  40099e:	630b      	str	r3, [r1, #48]	; 0x30
  4009a0:	f44f 5380 	mov.w	r3, #4096	; 0x1000
  4009a4:	60fb      	str	r3, [r7, #12]
  4009a6:	e007      	b.n	4009b8 <pmc_switch_mck_to_pllack+0x30>
  4009a8:	68fb      	ldr	r3, [r7, #12]
  4009aa:	2b00      	cmp	r3, #0
  4009ac:	d101      	bne.n	4009b2 <pmc_switch_mck_to_pllack+0x2a>
  4009ae:	2301      	movs	r3, #1
  4009b0:	e023      	b.n	4009fa <pmc_switch_mck_to_pllack+0x72>
  4009b2:	68fb      	ldr	r3, [r7, #12]
  4009b4:	3b01      	subs	r3, #1
  4009b6:	60fb      	str	r3, [r7, #12]
  4009b8:	4b13      	ldr	r3, [pc, #76]	; (400a08 <pmc_switch_mck_to_pllack+0x80>)
  4009ba:	6e9b      	ldr	r3, [r3, #104]	; 0x68
  4009bc:	f003 0308 	and.w	r3, r3, #8
  4009c0:	2b00      	cmp	r3, #0
  4009c2:	d0f1      	beq.n	4009a8 <pmc_switch_mck_to_pllack+0x20>
  4009c4:	4a10      	ldr	r2, [pc, #64]	; (400a08 <pmc_switch_mck_to_pllack+0x80>)
  4009c6:	4b10      	ldr	r3, [pc, #64]	; (400a08 <pmc_switch_mck_to_pllack+0x80>)
  4009c8:	6b1b      	ldr	r3, [r3, #48]	; 0x30
  4009ca:	f023 0303 	bic.w	r3, r3, #3
  4009ce:	f043 0302 	orr.w	r3, r3, #2
  4009d2:	6313      	str	r3, [r2, #48]	; 0x30
  4009d4:	f44f 5380 	mov.w	r3, #4096	; 0x1000
  4009d8:	60fb      	str	r3, [r7, #12]
  4009da:	e007      	b.n	4009ec <pmc_switch_mck_to_pllack+0x64>
  4009dc:	68fb      	ldr	r3, [r7, #12]
  4009de:	2b00      	cmp	r3, #0
  4009e0:	d101      	bne.n	4009e6 <pmc_switch_mck_to_pllack+0x5e>
  4009e2:	2301      	movs	r3, #1
  4009e4:	e009      	b.n	4009fa <pmc_switch_mck_to_pllack+0x72>
  4009e6:	68fb      	ldr	r3, [r7, #12]
  4009e8:	3b01      	subs	r3, #1
  4009ea:	60fb      	str	r3, [r7, #12]
  4009ec:	4b06      	ldr	r3, [pc, #24]	; (400a08 <pmc_switch_mck_to_pllack+0x80>)
  4009ee:	6e9b      	ldr	r3, [r3, #104]	; 0x68
  4009f0:	f003 0308 	and.w	r3, r3, #8
  4009f4:	2b00      	cmp	r3, #0
  4009f6:	d0f1      	beq.n	4009dc <pmc_switch_mck_to_pllack+0x54>
  4009f8:	2300      	movs	r3, #0
  4009fa:	4618      	mov	r0, r3
  4009fc:	3714      	adds	r7, #20
  4009fe:	46bd      	mov	sp, r7
  400a00:	f85d 7b04 	ldr.w	r7, [sp], #4
  400a04:	4770      	bx	lr
  400a06:	bf00      	nop
  400a08:	400e0600 	.word	0x400e0600

00400a0c <pmc_switch_sclk_to_32kxtal>:
  400a0c:	b480      	push	{r7}
  400a0e:	b083      	sub	sp, #12
  400a10:	af00      	add	r7, sp, #0
  400a12:	6078      	str	r0, [r7, #4]
  400a14:	687b      	ldr	r3, [r7, #4]
  400a16:	2b01      	cmp	r3, #1
  400a18:	d105      	bne.n	400a26 <pmc_switch_sclk_to_32kxtal+0x1a>
  400a1a:	4907      	ldr	r1, [pc, #28]	; (400a38 <pmc_switch_sclk_to_32kxtal+0x2c>)
  400a1c:	4b06      	ldr	r3, [pc, #24]	; (400a38 <pmc_switch_sclk_to_32kxtal+0x2c>)
  400a1e:	689a      	ldr	r2, [r3, #8]
  400a20:	4b06      	ldr	r3, [pc, #24]	; (400a3c <pmc_switch_sclk_to_32kxtal+0x30>)
  400a22:	4313      	orrs	r3, r2
  400a24:	608b      	str	r3, [r1, #8]
  400a26:	4b04      	ldr	r3, [pc, #16]	; (400a38 <pmc_switch_sclk_to_32kxtal+0x2c>)
  400a28:	4a05      	ldr	r2, [pc, #20]	; (400a40 <pmc_switch_sclk_to_32kxtal+0x34>)
  400a2a:	601a      	str	r2, [r3, #0]
  400a2c:	bf00      	nop
  400a2e:	370c      	adds	r7, #12
  400a30:	46bd      	mov	sp, r7
  400a32:	f85d 7b04 	ldr.w	r7, [sp], #4
  400a36:	4770      	bx	lr
  400a38:	400e1810 	.word	0x400e1810
  400a3c:	a5100000 	.word	0xa5100000
  400a40:	a5000008 	.word	0xa5000008

00400a44 <pmc_osc_is_ready_32kxtal>:
  400a44:	b480      	push	{r7}
  400a46:	af00      	add	r7, sp, #0
  400a48:	4b09      	ldr	r3, [pc, #36]	; (400a70 <pmc_osc_is_ready_32kxtal+0x2c>)
  400a4a:	695b      	ldr	r3, [r3, #20]
  400a4c:	f003 0380 	and.w	r3, r3, #128	; 0x80
  400a50:	2b00      	cmp	r3, #0
  400a52:	d007      	beq.n	400a64 <pmc_osc_is_ready_32kxtal+0x20>
  400a54:	4b07      	ldr	r3, [pc, #28]	; (400a74 <pmc_osc_is_ready_32kxtal+0x30>)
  400a56:	6e9b      	ldr	r3, [r3, #104]	; 0x68
  400a58:	f003 0380 	and.w	r3, r3, #128	; 0x80
  400a5c:	2b00      	cmp	r3, #0
  400a5e:	d001      	beq.n	400a64 <pmc_osc_is_ready_32kxtal+0x20>
  400a60:	2301      	movs	r3, #1
  400a62:	e000      	b.n	400a66 <pmc_osc_is_ready_32kxtal+0x22>
  400a64:	2300      	movs	r3, #0
  400a66:	4618      	mov	r0, r3
  400a68:	46bd      	mov	sp, r7
  400a6a:	f85d 7b04 	ldr.w	r7, [sp], #4
  400a6e:	4770      	bx	lr
  400a70:	400e1810 	.word	0x400e1810
  400a74:	400e0600 	.word	0x400e0600

00400a78 <pmc_switch_mainck_to_fastrc>:
  400a78:	b480      	push	{r7}
  400a7a:	b083      	sub	sp, #12
  400a7c:	af00      	add	r7, sp, #0
  400a7e:	6078      	str	r0, [r7, #4]
  400a80:	4915      	ldr	r1, [pc, #84]	; (400ad8 <pmc_switch_mainck_to_fastrc+0x60>)
  400a82:	4b15      	ldr	r3, [pc, #84]	; (400ad8 <pmc_switch_mainck_to_fastrc+0x60>)
  400a84:	6a1a      	ldr	r2, [r3, #32]
  400a86:	4b15      	ldr	r3, [pc, #84]	; (400adc <pmc_switch_mainck_to_fastrc+0x64>)
  400a88:	4313      	orrs	r3, r2
  400a8a:	620b      	str	r3, [r1, #32]
  400a8c:	bf00      	nop
  400a8e:	4b12      	ldr	r3, [pc, #72]	; (400ad8 <pmc_switch_mainck_to_fastrc+0x60>)
  400a90:	6e9b      	ldr	r3, [r3, #104]	; 0x68
  400a92:	f403 3300 	and.w	r3, r3, #131072	; 0x20000
  400a96:	2b00      	cmp	r3, #0
  400a98:	d0f9      	beq.n	400a8e <pmc_switch_mainck_to_fastrc+0x16>
  400a9a:	490f      	ldr	r1, [pc, #60]	; (400ad8 <pmc_switch_mainck_to_fastrc+0x60>)
  400a9c:	4b0e      	ldr	r3, [pc, #56]	; (400ad8 <pmc_switch_mainck_to_fastrc+0x60>)
  400a9e:	6a1a      	ldr	r2, [r3, #32]
  400aa0:	4b0f      	ldr	r3, [pc, #60]	; (400ae0 <pmc_switch_mainck_to_fastrc+0x68>)
  400aa2:	4013      	ands	r3, r2
  400aa4:	687a      	ldr	r2, [r7, #4]
  400aa6:	4313      	orrs	r3, r2
  400aa8:	f443 135c 	orr.w	r3, r3, #3604480	; 0x370000
  400aac:	620b      	str	r3, [r1, #32]
  400aae:	bf00      	nop
  400ab0:	4b09      	ldr	r3, [pc, #36]	; (400ad8 <pmc_switch_mainck_to_fastrc+0x60>)
  400ab2:	6e9b      	ldr	r3, [r3, #104]	; 0x68
  400ab4:	f403 3300 	and.w	r3, r3, #131072	; 0x20000
  400ab8:	2b00      	cmp	r3, #0
  400aba:	d0f9      	beq.n	400ab0 <pmc_switch_mainck_to_fastrc+0x38>
  400abc:	4906      	ldr	r1, [pc, #24]	; (400ad8 <pmc_switch_mainck_to_fastrc+0x60>)
  400abe:	4b06      	ldr	r3, [pc, #24]	; (400ad8 <pmc_switch_mainck_to_fastrc+0x60>)
  400ac0:	6a1a      	ldr	r2, [r3, #32]
  400ac2:	4b08      	ldr	r3, [pc, #32]	; (400ae4 <pmc_switch_mainck_to_fastrc+0x6c>)
  400ac4:	4013      	ands	r3, r2
  400ac6:	f443 135c 	orr.w	r3, r3, #3604480	; 0x370000
  400aca:	620b      	str	r3, [r1, #32]
  400acc:	bf00      	nop
  400ace:	370c      	adds	r7, #12
  400ad0:	46bd      	mov	sp, r7
  400ad2:	f85d 7b04 	ldr.w	r7, [sp], #4
  400ad6:	4770      	bx	lr
  400ad8:	400e0600 	.word	0x400e0600
  400adc:	00370008 	.word	0x00370008
  400ae0:	ffc8ff8f 	.word	0xffc8ff8f
  400ae4:	fec8ffff 	.word	0xfec8ffff

00400ae8 <pmc_switch_mainck_to_xtal>:
  400ae8:	b480      	push	{r7}
  400aea:	b083      	sub	sp, #12
  400aec:	af00      	add	r7, sp, #0
  400aee:	6078      	str	r0, [r7, #4]
  400af0:	6039      	str	r1, [r7, #0]
  400af2:	687b      	ldr	r3, [r7, #4]
  400af4:	2b00      	cmp	r3, #0
  400af6:	d008      	beq.n	400b0a <pmc_switch_mainck_to_xtal+0x22>
  400af8:	4913      	ldr	r1, [pc, #76]	; (400b48 <pmc_switch_mainck_to_xtal+0x60>)
  400afa:	4b13      	ldr	r3, [pc, #76]	; (400b48 <pmc_switch_mainck_to_xtal+0x60>)
  400afc:	6a1b      	ldr	r3, [r3, #32]
  400afe:	4a13      	ldr	r2, [pc, #76]	; (400b4c <pmc_switch_mainck_to_xtal+0x64>)
  400b00:	401a      	ands	r2, r3
  400b02:	4b13      	ldr	r3, [pc, #76]	; (400b50 <pmc_switch_mainck_to_xtal+0x68>)
  400b04:	4313      	orrs	r3, r2
  400b06:	620b      	str	r3, [r1, #32]
  400b08:	e018      	b.n	400b3c <pmc_switch_mainck_to_xtal+0x54>
  400b0a:	490f      	ldr	r1, [pc, #60]	; (400b48 <pmc_switch_mainck_to_xtal+0x60>)
  400b0c:	4b0e      	ldr	r3, [pc, #56]	; (400b48 <pmc_switch_mainck_to_xtal+0x60>)
  400b0e:	6a1a      	ldr	r2, [r3, #32]
  400b10:	4b10      	ldr	r3, [pc, #64]	; (400b54 <pmc_switch_mainck_to_xtal+0x6c>)
  400b12:	4013      	ands	r3, r2
  400b14:	683a      	ldr	r2, [r7, #0]
  400b16:	0212      	lsls	r2, r2, #8
  400b18:	b292      	uxth	r2, r2
  400b1a:	431a      	orrs	r2, r3
  400b1c:	4b0e      	ldr	r3, [pc, #56]	; (400b58 <pmc_switch_mainck_to_xtal+0x70>)
  400b1e:	4313      	orrs	r3, r2
  400b20:	620b      	str	r3, [r1, #32]
  400b22:	bf00      	nop
  400b24:	4b08      	ldr	r3, [pc, #32]	; (400b48 <pmc_switch_mainck_to_xtal+0x60>)
  400b26:	6e9b      	ldr	r3, [r3, #104]	; 0x68
  400b28:	f003 0301 	and.w	r3, r3, #1
  400b2c:	2b00      	cmp	r3, #0
  400b2e:	d0f9      	beq.n	400b24 <pmc_switch_mainck_to_xtal+0x3c>
  400b30:	4905      	ldr	r1, [pc, #20]	; (400b48 <pmc_switch_mainck_to_xtal+0x60>)
  400b32:	4b05      	ldr	r3, [pc, #20]	; (400b48 <pmc_switch_mainck_to_xtal+0x60>)
  400b34:	6a1a      	ldr	r2, [r3, #32]
  400b36:	4b09      	ldr	r3, [pc, #36]	; (400b5c <pmc_switch_mainck_to_xtal+0x74>)
  400b38:	4313      	orrs	r3, r2
  400b3a:	620b      	str	r3, [r1, #32]
  400b3c:	bf00      	nop
  400b3e:	370c      	adds	r7, #12
  400b40:	46bd      	mov	sp, r7
  400b42:	f85d 7b04 	ldr.w	r7, [sp], #4
  400b46:	4770      	bx	lr
  400b48:	400e0600 	.word	0x400e0600
  400b4c:	fec8fffc 	.word	0xfec8fffc
  400b50:	01370002 	.word	0x01370002
  400b54:	ffc8fffc 	.word	0xffc8fffc
  400b58:	00370001 	.word	0x00370001
  400b5c:	01370000 	.word	0x01370000

00400b60 <pmc_osc_is_ready_mainck>:
  400b60:	b480      	push	{r7}
  400b62:	af00      	add	r7, sp, #0
  400b64:	4b04      	ldr	r3, [pc, #16]	; (400b78 <pmc_osc_is_ready_mainck+0x18>)
  400b66:	6e9b      	ldr	r3, [r3, #104]	; 0x68
  400b68:	f403 3380 	and.w	r3, r3, #65536	; 0x10000
  400b6c:	4618      	mov	r0, r3
  400b6e:	46bd      	mov	sp, r7
  400b70:	f85d 7b04 	ldr.w	r7, [sp], #4
  400b74:	4770      	bx	lr
  400b76:	bf00      	nop
  400b78:	400e0600 	.word	0x400e0600

00400b7c <pmc_disable_pllack>:
  400b7c:	b480      	push	{r7}
  400b7e:	af00      	add	r7, sp, #0
  400b80:	4b04      	ldr	r3, [pc, #16]	; (400b94 <pmc_disable_pllack+0x18>)
  400b82:	f04f 5200 	mov.w	r2, #536870912	; 0x20000000
  400b86:	629a      	str	r2, [r3, #40]	; 0x28
  400b88:	bf00      	nop
  400b8a:	46bd      	mov	sp, r7
  400b8c:	f85d 7b04 	ldr.w	r7, [sp], #4
  400b90:	4770      	bx	lr
  400b92:	bf00      	nop
  400b94:	400e0600 	.word	0x400e0600

00400b98 <pmc_is_locked_pllack>:
  400b98:	b480      	push	{r7}
  400b9a:	af00      	add	r7, sp, #0
  400b9c:	4b04      	ldr	r3, [pc, #16]	; (400bb0 <pmc_is_locked_pllack+0x18>)
  400b9e:	6e9b      	ldr	r3, [r3, #104]	; 0x68
  400ba0:	f003 0302 	and.w	r3, r3, #2
  400ba4:	4618      	mov	r0, r3
  400ba6:	46bd      	mov	sp, r7
  400ba8:	f85d 7b04 	ldr.w	r7, [sp], #4
  400bac:	4770      	bx	lr
  400bae:	bf00      	nop
  400bb0:	400e0600 	.word	0x400e0600

00400bb4 <pmc_is_locked_upll>:
  400bb4:	b480      	push	{r7}
  400bb6:	af00      	add	r7, sp, #0
  400bb8:	4b04      	ldr	r3, [pc, #16]	; (400bcc <pmc_is_locked_upll+0x18>)
  400bba:	6e9b      	ldr	r3, [r3, #104]	; 0x68
  400bbc:	f003 0340 	and.w	r3, r3, #64	; 0x40
  400bc0:	4618      	mov	r0, r3
  400bc2:	46bd      	mov	sp, r7
  400bc4:	f85d 7b04 	ldr.w	r7, [sp], #4
  400bc8:	4770      	bx	lr
  400bca:	bf00      	nop
  400bcc:	400e0600 	.word	0x400e0600

00400bd0 <pmc_enable_periph_clk>:
  400bd0:	b480      	push	{r7}
  400bd2:	b083      	sub	sp, #12
  400bd4:	af00      	add	r7, sp, #0
  400bd6:	6078      	str	r0, [r7, #4]
  400bd8:	687b      	ldr	r3, [r7, #4]
  400bda:	2b3f      	cmp	r3, #63	; 0x3f
  400bdc:	d901      	bls.n	400be2 <pmc_enable_periph_clk+0x12>
  400bde:	2301      	movs	r3, #1
  400be0:	e02f      	b.n	400c42 <pmc_enable_periph_clk+0x72>
  400be2:	687b      	ldr	r3, [r7, #4]
  400be4:	2b1f      	cmp	r3, #31
  400be6:	d813      	bhi.n	400c10 <pmc_enable_periph_clk+0x40>
  400be8:	4b19      	ldr	r3, [pc, #100]	; (400c50 <pmc_enable_periph_clk+0x80>)
  400bea:	699a      	ldr	r2, [r3, #24]
  400bec:	2101      	movs	r1, #1
  400bee:	687b      	ldr	r3, [r7, #4]
  400bf0:	fa01 f303 	lsl.w	r3, r1, r3
  400bf4:	401a      	ands	r2, r3
  400bf6:	2101      	movs	r1, #1
  400bf8:	687b      	ldr	r3, [r7, #4]
  400bfa:	fa01 f303 	lsl.w	r3, r1, r3
  400bfe:	429a      	cmp	r2, r3
  400c00:	d01e      	beq.n	400c40 <pmc_enable_periph_clk+0x70>
  400c02:	4a13      	ldr	r2, [pc, #76]	; (400c50 <pmc_enable_periph_clk+0x80>)
  400c04:	2101      	movs	r1, #1
  400c06:	687b      	ldr	r3, [r7, #4]
  400c08:	fa01 f303 	lsl.w	r3, r1, r3
  400c0c:	6113      	str	r3, [r2, #16]
  400c0e:	e017      	b.n	400c40 <pmc_enable_periph_clk+0x70>
  400c10:	687b      	ldr	r3, [r7, #4]
  400c12:	3b20      	subs	r3, #32
  400c14:	607b      	str	r3, [r7, #4]
  400c16:	4b0e      	ldr	r3, [pc, #56]	; (400c50 <pmc_enable_periph_clk+0x80>)
  400c18:	f8d3 2108 	ldr.w	r2, [r3, #264]	; 0x108
  400c1c:	2101      	movs	r1, #1
  400c1e:	687b      	ldr	r3, [r7, #4]
  400c20:	fa01 f303 	lsl.w	r3, r1, r3
  400c24:	401a      	ands	r2, r3
  400c26:	2101      	movs	r1, #1
  400c28:	687b      	ldr	r3, [r7, #4]
  400c2a:	fa01 f303 	lsl.w	r3, r1, r3
  400c2e:	429a      	cmp	r2, r3
  400c30:	d006      	beq.n	400c40 <pmc_enable_periph_clk+0x70>
  400c32:	4a07      	ldr	r2, [pc, #28]	; (400c50 <pmc_enable_periph_clk+0x80>)
  400c34:	2101      	movs	r1, #1
  400c36:	687b      	ldr	r3, [r7, #4]
  400c38:	fa01 f303 	lsl.w	r3, r1, r3
  400c3c:	f8c2 3100 	str.w	r3, [r2, #256]	; 0x100
  400c40:	2300      	movs	r3, #0
  400c42:	4618      	mov	r0, r3
  400c44:	370c      	adds	r7, #12
  400c46:	46bd      	mov	sp, r7
  400c48:	f85d 7b04 	ldr.w	r7, [sp], #4
  400c4c:	4770      	bx	lr
  400c4e:	bf00      	nop
  400c50:	400e0600 	.word	0x400e0600

00400c54 <usart_set_async_baudrate>:
  400c54:	b480      	push	{r7}
  400c56:	b089      	sub	sp, #36	; 0x24
  400c58:	af00      	add	r7, sp, #0
  400c5a:	60f8      	str	r0, [r7, #12]
  400c5c:	60b9      	str	r1, [r7, #8]
  400c5e:	607a      	str	r2, [r7, #4]
  400c60:	68bb      	ldr	r3, [r7, #8]
  400c62:	011a      	lsls	r2, r3, #4
  400c64:	687b      	ldr	r3, [r7, #4]
  400c66:	429a      	cmp	r2, r3
  400c68:	d802      	bhi.n	400c70 <usart_set_async_baudrate+0x1c>
  400c6a:	2310      	movs	r3, #16
  400c6c:	61fb      	str	r3, [r7, #28]
  400c6e:	e001      	b.n	400c74 <usart_set_async_baudrate+0x20>
  400c70:	2308      	movs	r3, #8
  400c72:	61fb      	str	r3, [r7, #28]
  400c74:	687b      	ldr	r3, [r7, #4]
  400c76:	00da      	lsls	r2, r3, #3
  400c78:	69fb      	ldr	r3, [r7, #28]
  400c7a:	68b9      	ldr	r1, [r7, #8]
  400c7c:	fb01 f303 	mul.w	r3, r1, r3
  400c80:	085b      	lsrs	r3, r3, #1
  400c82:	441a      	add	r2, r3
  400c84:	69fb      	ldr	r3, [r7, #28]
  400c86:	68b9      	ldr	r1, [r7, #8]
  400c88:	fb01 f303 	mul.w	r3, r1, r3
  400c8c:	fbb2 f3f3 	udiv	r3, r2, r3
  400c90:	61bb      	str	r3, [r7, #24]
  400c92:	69bb      	ldr	r3, [r7, #24]
  400c94:	08db      	lsrs	r3, r3, #3
  400c96:	617b      	str	r3, [r7, #20]
  400c98:	69bb      	ldr	r3, [r7, #24]
  400c9a:	f003 0307 	and.w	r3, r3, #7
  400c9e:	613b      	str	r3, [r7, #16]
  400ca0:	697b      	ldr	r3, [r7, #20]
  400ca2:	2b00      	cmp	r3, #0
  400ca4:	d003      	beq.n	400cae <usart_set_async_baudrate+0x5a>
  400ca6:	697b      	ldr	r3, [r7, #20]
  400ca8:	f5b3 3f80 	cmp.w	r3, #65536	; 0x10000
  400cac:	d301      	bcc.n	400cb2 <usart_set_async_baudrate+0x5e>
  400cae:	2301      	movs	r3, #1
  400cb0:	e00f      	b.n	400cd2 <usart_set_async_baudrate+0x7e>
  400cb2:	69fb      	ldr	r3, [r7, #28]
  400cb4:	2b08      	cmp	r3, #8
  400cb6:	d105      	bne.n	400cc4 <usart_set_async_baudrate+0x70>
  400cb8:	68fb      	ldr	r3, [r7, #12]
  400cba:	685b      	ldr	r3, [r3, #4]
  400cbc:	f443 2200 	orr.w	r2, r3, #524288	; 0x80000
  400cc0:	68fb      	ldr	r3, [r7, #12]
  400cc2:	605a      	str	r2, [r3, #4]
  400cc4:	693b      	ldr	r3, [r7, #16]
  400cc6:	041a      	lsls	r2, r3, #16
  400cc8:	697b      	ldr	r3, [r7, #20]
  400cca:	431a      	orrs	r2, r3
  400ccc:	68fb      	ldr	r3, [r7, #12]
  400cce:	621a      	str	r2, [r3, #32]
  400cd0:	2300      	movs	r3, #0
  400cd2:	4618      	mov	r0, r3
  400cd4:	3724      	adds	r7, #36	; 0x24
  400cd6:	46bd      	mov	sp, r7
  400cd8:	f85d 7b04 	ldr.w	r7, [sp], #4
  400cdc:	4770      	bx	lr
	...

00400ce0 <usart_reset>:
  400ce0:	b580      	push	{r7, lr}
  400ce2:	b082      	sub	sp, #8
  400ce4:	af00      	add	r7, sp, #0
  400ce6:	6078      	str	r0, [r7, #4]
  400ce8:	6878      	ldr	r0, [r7, #4]
  400cea:	4b0d      	ldr	r3, [pc, #52]	; (400d20 <usart_reset+0x40>)
  400cec:	4798      	blx	r3
  400cee:	687b      	ldr	r3, [r7, #4]
  400cf0:	2200      	movs	r2, #0
  400cf2:	605a      	str	r2, [r3, #4]
  400cf4:	687b      	ldr	r3, [r7, #4]
  400cf6:	2200      	movs	r2, #0
  400cf8:	625a      	str	r2, [r3, #36]	; 0x24
  400cfa:	687b      	ldr	r3, [r7, #4]
  400cfc:	2200      	movs	r2, #0
  400cfe:	629a      	str	r2, [r3, #40]	; 0x28
  400d00:	6878      	ldr	r0, [r7, #4]
  400d02:	4b08      	ldr	r3, [pc, #32]	; (400d24 <usart_reset+0x44>)
  400d04:	4798      	blx	r3
  400d06:	6878      	ldr	r0, [r7, #4]
  400d08:	4b07      	ldr	r3, [pc, #28]	; (400d28 <usart_reset+0x48>)
  400d0a:	4798      	blx	r3
  400d0c:	6878      	ldr	r0, [r7, #4]
  400d0e:	4b07      	ldr	r3, [pc, #28]	; (400d2c <usart_reset+0x4c>)
  400d10:	4798      	blx	r3
  400d12:	6878      	ldr	r0, [r7, #4]
  400d14:	4b06      	ldr	r3, [pc, #24]	; (400d30 <usart_reset+0x50>)
  400d16:	4798      	blx	r3
  400d18:	bf00      	nop
  400d1a:	3708      	adds	r7, #8
  400d1c:	46bd      	mov	sp, r7
  400d1e:	bd80      	pop	{r7, pc}
  400d20:	00400e89 	.word	0x00400e89
  400d24:	00400dd3 	.word	0x00400dd3
  400d28:	00400e07 	.word	0x00400e07
  400d2c:	00400e21 	.word	0x00400e21
  400d30:	00400e3d 	.word	0x00400e3d

00400d34 <usart_init_rs232>:
  400d34:	b580      	push	{r7, lr}
  400d36:	b084      	sub	sp, #16
  400d38:	af00      	add	r7, sp, #0
  400d3a:	60f8      	str	r0, [r7, #12]
  400d3c:	60b9      	str	r1, [r7, #8]
  400d3e:	607a      	str	r2, [r7, #4]
  400d40:	68f8      	ldr	r0, [r7, #12]
  400d42:	4b1a      	ldr	r3, [pc, #104]	; (400dac <usart_init_rs232+0x78>)
  400d44:	4798      	blx	r3
  400d46:	4b1a      	ldr	r3, [pc, #104]	; (400db0 <usart_init_rs232+0x7c>)
  400d48:	2200      	movs	r2, #0
  400d4a:	601a      	str	r2, [r3, #0]
  400d4c:	68bb      	ldr	r3, [r7, #8]
  400d4e:	2b00      	cmp	r3, #0
  400d50:	d009      	beq.n	400d66 <usart_init_rs232+0x32>
  400d52:	68bb      	ldr	r3, [r7, #8]
  400d54:	681b      	ldr	r3, [r3, #0]
  400d56:	687a      	ldr	r2, [r7, #4]
  400d58:	4619      	mov	r1, r3
  400d5a:	68f8      	ldr	r0, [r7, #12]
  400d5c:	4b15      	ldr	r3, [pc, #84]	; (400db4 <usart_init_rs232+0x80>)
  400d5e:	4798      	blx	r3
  400d60:	4603      	mov	r3, r0
  400d62:	2b00      	cmp	r3, #0
  400d64:	d001      	beq.n	400d6a <usart_init_rs232+0x36>
  400d66:	2301      	movs	r3, #1
  400d68:	e01b      	b.n	400da2 <usart_init_rs232+0x6e>
  400d6a:	68bb      	ldr	r3, [r7, #8]
  400d6c:	685a      	ldr	r2, [r3, #4]
  400d6e:	68bb      	ldr	r3, [r7, #8]
  400d70:	689b      	ldr	r3, [r3, #8]
  400d72:	431a      	orrs	r2, r3
  400d74:	68bb      	ldr	r3, [r7, #8]
  400d76:	691b      	ldr	r3, [r3, #16]
  400d78:	431a      	orrs	r2, r3
  400d7a:	68bb      	ldr	r3, [r7, #8]
  400d7c:	68db      	ldr	r3, [r3, #12]
  400d7e:	431a      	orrs	r2, r3
  400d80:	4b0b      	ldr	r3, [pc, #44]	; (400db0 <usart_init_rs232+0x7c>)
  400d82:	681b      	ldr	r3, [r3, #0]
  400d84:	4313      	orrs	r3, r2
  400d86:	4a0a      	ldr	r2, [pc, #40]	; (400db0 <usart_init_rs232+0x7c>)
  400d88:	6013      	str	r3, [r2, #0]
  400d8a:	4b09      	ldr	r3, [pc, #36]	; (400db0 <usart_init_rs232+0x7c>)
  400d8c:	681b      	ldr	r3, [r3, #0]
  400d8e:	4a08      	ldr	r2, [pc, #32]	; (400db0 <usart_init_rs232+0x7c>)
  400d90:	6013      	str	r3, [r2, #0]
  400d92:	68fb      	ldr	r3, [r7, #12]
  400d94:	685a      	ldr	r2, [r3, #4]
  400d96:	4b06      	ldr	r3, [pc, #24]	; (400db0 <usart_init_rs232+0x7c>)
  400d98:	681b      	ldr	r3, [r3, #0]
  400d9a:	431a      	orrs	r2, r3
  400d9c:	68fb      	ldr	r3, [r7, #12]
  400d9e:	605a      	str	r2, [r3, #4]
  400da0:	2300      	movs	r3, #0
  400da2:	4618      	mov	r0, r3
  400da4:	3710      	adds	r7, #16
  400da6:	46bd      	mov	sp, r7
  400da8:	bd80      	pop	{r7, pc}
  400daa:	bf00      	nop
  400dac:	00400ce1 	.word	0x00400ce1
  400db0:	204004c8 	.word	0x204004c8
  400db4:	00400c55 	.word	0x00400c55

00400db8 <usart_enable_tx>:
  400db8:	b480      	push	{r7}
  400dba:	b083      	sub	sp, #12
  400dbc:	af00      	add	r7, sp, #0
  400dbe:	6078      	str	r0, [r7, #4]
  400dc0:	687b      	ldr	r3, [r7, #4]
  400dc2:	2240      	movs	r2, #64	; 0x40
  400dc4:	601a      	str	r2, [r3, #0]
  400dc6:	bf00      	nop
  400dc8:	370c      	adds	r7, #12
  400dca:	46bd      	mov	sp, r7
  400dcc:	f85d 7b04 	ldr.w	r7, [sp], #4
  400dd0:	4770      	bx	lr

00400dd2 <usart_reset_tx>:
  400dd2:	b480      	push	{r7}
  400dd4:	b083      	sub	sp, #12
  400dd6:	af00      	add	r7, sp, #0
  400dd8:	6078      	str	r0, [r7, #4]
  400dda:	687b      	ldr	r3, [r7, #4]
  400ddc:	2288      	movs	r2, #136	; 0x88
  400dde:	601a      	str	r2, [r3, #0]
  400de0:	bf00      	nop
  400de2:	370c      	adds	r7, #12
  400de4:	46bd      	mov	sp, r7
  400de6:	f85d 7b04 	ldr.w	r7, [sp], #4
  400dea:	4770      	bx	lr

00400dec <usart_enable_rx>:
  400dec:	b480      	push	{r7}
  400dee:	b083      	sub	sp, #12
  400df0:	af00      	add	r7, sp, #0
  400df2:	6078      	str	r0, [r7, #4]
  400df4:	687b      	ldr	r3, [r7, #4]
  400df6:	2210      	movs	r2, #16
  400df8:	601a      	str	r2, [r3, #0]
  400dfa:	bf00      	nop
  400dfc:	370c      	adds	r7, #12
  400dfe:	46bd      	mov	sp, r7
  400e00:	f85d 7b04 	ldr.w	r7, [sp], #4
  400e04:	4770      	bx	lr

00400e06 <usart_reset_rx>:
  400e06:	b480      	push	{r7}
  400e08:	b083      	sub	sp, #12
  400e0a:	af00      	add	r7, sp, #0
  400e0c:	6078      	str	r0, [r7, #4]
  400e0e:	687b      	ldr	r3, [r7, #4]
  400e10:	2224      	movs	r2, #36	; 0x24
  400e12:	601a      	str	r2, [r3, #0]
  400e14:	bf00      	nop
  400e16:	370c      	adds	r7, #12
  400e18:	46bd      	mov	sp, r7
  400e1a:	f85d 7b04 	ldr.w	r7, [sp], #4
  400e1e:	4770      	bx	lr

00400e20 <usart_reset_status>:
  400e20:	b480      	push	{r7}
  400e22:	b083      	sub	sp, #12
  400e24:	af00      	add	r7, sp, #0
  400e26:	6078      	str	r0, [r7, #4]
  400e28:	687b      	ldr	r3, [r7, #4]
  400e2a:	f44f 7280 	mov.w	r2, #256	; 0x100
  400e2e:	601a      	str	r2, [r3, #0]
  400e30:	bf00      	nop
  400e32:	370c      	adds	r7, #12
  400e34:	46bd      	mov	sp, r7
  400e36:	f85d 7b04 	ldr.w	r7, [sp], #4
  400e3a:	4770      	bx	lr

00400e3c <usart_drive_RTS_pin_high>:
  400e3c:	b480      	push	{r7}
  400e3e:	b083      	sub	sp, #12
  400e40:	af00      	add	r7, sp, #0
  400e42:	6078      	str	r0, [r7, #4]
  400e44:	687b      	ldr	r3, [r7, #4]
  400e46:	f44f 2200 	mov.w	r2, #524288	; 0x80000
  400e4a:	601a      	str	r2, [r3, #0]
  400e4c:	bf00      	nop
  400e4e:	370c      	adds	r7, #12
  400e50:	46bd      	mov	sp, r7
  400e52:	f85d 7b04 	ldr.w	r7, [sp], #4
  400e56:	4770      	bx	lr

00400e58 <usart_putchar>:
  400e58:	b480      	push	{r7}
  400e5a:	b083      	sub	sp, #12
  400e5c:	af00      	add	r7, sp, #0
  400e5e:	6078      	str	r0, [r7, #4]
  400e60:	6039      	str	r1, [r7, #0]
  400e62:	bf00      	nop
  400e64:	687b      	ldr	r3, [r7, #4]
  400e66:	695b      	ldr	r3, [r3, #20]
  400e68:	f003 0302 	and.w	r3, r3, #2
  400e6c:	2b00      	cmp	r3, #0
  400e6e:	d0f9      	beq.n	400e64 <usart_putchar+0xc>
  400e70:	683b      	ldr	r3, [r7, #0]
  400e72:	f3c3 0208 	ubfx	r2, r3, #0, #9
  400e76:	687b      	ldr	r3, [r7, #4]
  400e78:	61da      	str	r2, [r3, #28]
  400e7a:	2300      	movs	r3, #0
  400e7c:	4618      	mov	r0, r3
  400e7e:	370c      	adds	r7, #12
  400e80:	46bd      	mov	sp, r7
  400e82:	f85d 7b04 	ldr.w	r7, [sp], #4
  400e86:	4770      	bx	lr

00400e88 <usart_disable_writeprotect>:
  400e88:	b480      	push	{r7}
  400e8a:	b083      	sub	sp, #12
  400e8c:	af00      	add	r7, sp, #0
  400e8e:	6078      	str	r0, [r7, #4]
  400e90:	687b      	ldr	r3, [r7, #4]
  400e92:	4a04      	ldr	r2, [pc, #16]	; (400ea4 <usart_disable_writeprotect+0x1c>)
  400e94:	f8c3 20e4 	str.w	r2, [r3, #228]	; 0xe4
  400e98:	bf00      	nop
  400e9a:	370c      	adds	r7, #12
  400e9c:	46bd      	mov	sp, r7
  400e9e:	f85d 7b04 	ldr.w	r7, [sp], #4
  400ea2:	4770      	bx	lr
  400ea4:	55534100 	.word	0x55534100

00400ea8 <cpu_irq_save>:
  400ea8:	b480      	push	{r7}
  400eaa:	b083      	sub	sp, #12
  400eac:	af00      	add	r7, sp, #0
  400eae:	f3ef 8310 	mrs	r3, PRIMASK
  400eb2:	607b      	str	r3, [r7, #4]
  400eb4:	687b      	ldr	r3, [r7, #4]
  400eb6:	2b00      	cmp	r3, #0
  400eb8:	bf0c      	ite	eq
  400eba:	2301      	moveq	r3, #1
  400ebc:	2300      	movne	r3, #0
  400ebe:	b2db      	uxtb	r3, r3
  400ec0:	603b      	str	r3, [r7, #0]
  400ec2:	b672      	cpsid	i
  400ec4:	f3bf 8f5f 	dmb	sy
  400ec8:	4b04      	ldr	r3, [pc, #16]	; (400edc <cpu_irq_save+0x34>)
  400eca:	2200      	movs	r2, #0
  400ecc:	701a      	strb	r2, [r3, #0]
  400ece:	683b      	ldr	r3, [r7, #0]
  400ed0:	4618      	mov	r0, r3
  400ed2:	370c      	adds	r7, #12
  400ed4:	46bd      	mov	sp, r7
  400ed6:	f85d 7b04 	ldr.w	r7, [sp], #4
  400eda:	4770      	bx	lr
  400edc:	2040000a 	.word	0x2040000a

00400ee0 <cpu_irq_is_enabled_flags>:
  400ee0:	b480      	push	{r7}
  400ee2:	b083      	sub	sp, #12
  400ee4:	af00      	add	r7, sp, #0
  400ee6:	6078      	str	r0, [r7, #4]
  400ee8:	687b      	ldr	r3, [r7, #4]
  400eea:	2b00      	cmp	r3, #0
  400eec:	bf14      	ite	ne
  400eee:	2301      	movne	r3, #1
  400ef0:	2300      	moveq	r3, #0
  400ef2:	b2db      	uxtb	r3, r3
  400ef4:	4618      	mov	r0, r3
  400ef6:	370c      	adds	r7, #12
  400ef8:	46bd      	mov	sp, r7
  400efa:	f85d 7b04 	ldr.w	r7, [sp], #4
  400efe:	4770      	bx	lr

00400f00 <cpu_irq_restore>:
  400f00:	b580      	push	{r7, lr}
  400f02:	b082      	sub	sp, #8
  400f04:	af00      	add	r7, sp, #0
  400f06:	6078      	str	r0, [r7, #4]
  400f08:	6878      	ldr	r0, [r7, #4]
  400f0a:	4b07      	ldr	r3, [pc, #28]	; (400f28 <cpu_irq_restore+0x28>)
  400f0c:	4798      	blx	r3
  400f0e:	4603      	mov	r3, r0
  400f10:	2b00      	cmp	r3, #0
  400f12:	d005      	beq.n	400f20 <cpu_irq_restore+0x20>
  400f14:	4b05      	ldr	r3, [pc, #20]	; (400f2c <cpu_irq_restore+0x2c>)
  400f16:	2201      	movs	r2, #1
  400f18:	701a      	strb	r2, [r3, #0]
  400f1a:	f3bf 8f5f 	dmb	sy
  400f1e:	b662      	cpsie	i
  400f20:	bf00      	nop
  400f22:	3708      	adds	r7, #8
  400f24:	46bd      	mov	sp, r7
  400f26:	bd80      	pop	{r7, pc}
  400f28:	00400ee1 	.word	0x00400ee1
  400f2c:	2040000a 	.word	0x2040000a

00400f30 <Reset_Handler>:
  400f30:	b580      	push	{r7, lr}
  400f32:	b084      	sub	sp, #16
  400f34:	af00      	add	r7, sp, #0
  400f36:	4b1e      	ldr	r3, [pc, #120]	; (400fb0 <Reset_Handler+0x80>)
  400f38:	60fb      	str	r3, [r7, #12]
  400f3a:	4b1e      	ldr	r3, [pc, #120]	; (400fb4 <Reset_Handler+0x84>)
  400f3c:	60bb      	str	r3, [r7, #8]
  400f3e:	68fa      	ldr	r2, [r7, #12]
  400f40:	68bb      	ldr	r3, [r7, #8]
  400f42:	429a      	cmp	r2, r3
  400f44:	d00c      	beq.n	400f60 <Reset_Handler+0x30>
  400f46:	e007      	b.n	400f58 <Reset_Handler+0x28>
  400f48:	68bb      	ldr	r3, [r7, #8]
  400f4a:	1d1a      	adds	r2, r3, #4
  400f4c:	60ba      	str	r2, [r7, #8]
  400f4e:	68fa      	ldr	r2, [r7, #12]
  400f50:	1d11      	adds	r1, r2, #4
  400f52:	60f9      	str	r1, [r7, #12]
  400f54:	6812      	ldr	r2, [r2, #0]
  400f56:	601a      	str	r2, [r3, #0]
  400f58:	68bb      	ldr	r3, [r7, #8]
  400f5a:	4a17      	ldr	r2, [pc, #92]	; (400fb8 <Reset_Handler+0x88>)
  400f5c:	4293      	cmp	r3, r2
  400f5e:	d3f3      	bcc.n	400f48 <Reset_Handler+0x18>
  400f60:	4b16      	ldr	r3, [pc, #88]	; (400fbc <Reset_Handler+0x8c>)
  400f62:	60bb      	str	r3, [r7, #8]
  400f64:	e004      	b.n	400f70 <Reset_Handler+0x40>
  400f66:	68bb      	ldr	r3, [r7, #8]
  400f68:	1d1a      	adds	r2, r3, #4
  400f6a:	60ba      	str	r2, [r7, #8]
  400f6c:	2200      	movs	r2, #0
  400f6e:	601a      	str	r2, [r3, #0]
  400f70:	68bb      	ldr	r3, [r7, #8]
  400f72:	4a13      	ldr	r2, [pc, #76]	; (400fc0 <Reset_Handler+0x90>)
  400f74:	4293      	cmp	r3, r2
  400f76:	d3f6      	bcc.n	400f66 <Reset_Handler+0x36>
  400f78:	4b12      	ldr	r3, [pc, #72]	; (400fc4 <Reset_Handler+0x94>)
  400f7a:	60fb      	str	r3, [r7, #12]
  400f7c:	4a12      	ldr	r2, [pc, #72]	; (400fc8 <Reset_Handler+0x98>)
  400f7e:	68fb      	ldr	r3, [r7, #12]
  400f80:	f023 037f 	bic.w	r3, r3, #127	; 0x7f
  400f84:	6093      	str	r3, [r2, #8]
  400f86:	4b11      	ldr	r3, [pc, #68]	; (400fcc <Reset_Handler+0x9c>)
  400f88:	4798      	blx	r3
  400f8a:	6078      	str	r0, [r7, #4]
  400f8c:	4a10      	ldr	r2, [pc, #64]	; (400fd0 <Reset_Handler+0xa0>)
  400f8e:	4b10      	ldr	r3, [pc, #64]	; (400fd0 <Reset_Handler+0xa0>)
  400f90:	681b      	ldr	r3, [r3, #0]
  400f92:	f443 0370 	orr.w	r3, r3, #15728640	; 0xf00000
  400f96:	6013      	str	r3, [r2, #0]
  400f98:	f3bf 8f4f 	dsb	sy
  400f9c:	f3bf 8f6f 	isb	sy
  400fa0:	6878      	ldr	r0, [r7, #4]
  400fa2:	4b0c      	ldr	r3, [pc, #48]	; (400fd4 <Reset_Handler+0xa4>)
  400fa4:	4798      	blx	r3
  400fa6:	4b0c      	ldr	r3, [pc, #48]	; (400fd8 <Reset_Handler+0xa8>)
  400fa8:	4798      	blx	r3
  400faa:	4b0c      	ldr	r3, [pc, #48]	; (400fdc <Reset_Handler+0xac>)
  400fac:	4798      	blx	r3
  400fae:	e7fe      	b.n	400fae <Reset_Handler+0x7e>
  400fb0:	00401b38 	.word	0x00401b38
  400fb4:	20400000 	.word	0x20400000
  400fb8:	2040043c 	.word	0x2040043c
  400fbc:	2040043c 	.word	0x2040043c
  400fc0:	204004f0 	.word	0x204004f0
  400fc4:	00400000 	.word	0x00400000
  400fc8:	e000ed00 	.word	0xe000ed00
  400fcc:	00400ea9 	.word	0x00400ea9
  400fd0:	e000ed88 	.word	0xe000ed88
  400fd4:	00400f01 	.word	0x00400f01
  400fd8:	00401999 	.word	0x00401999
  400fdc:	004013b9 	.word	0x004013b9

00400fe0 <Dummy_Handler>:
  400fe0:	b480      	push	{r7}
  400fe2:	af00      	add	r7, sp, #0
  400fe4:	e7fe      	b.n	400fe4 <Dummy_Handler+0x4>
	...

00400fe8 <SystemCoreClockUpdate>:
  400fe8:	b480      	push	{r7}
  400fea:	af00      	add	r7, sp, #0
  400fec:	4b52      	ldr	r3, [pc, #328]	; (401138 <SystemCoreClockUpdate+0x150>)
  400fee:	6b1b      	ldr	r3, [r3, #48]	; 0x30
  400ff0:	f003 0303 	and.w	r3, r3, #3
  400ff4:	2b01      	cmp	r3, #1
  400ff6:	d014      	beq.n	401022 <SystemCoreClockUpdate+0x3a>
  400ff8:	2b01      	cmp	r3, #1
  400ffa:	d302      	bcc.n	401002 <SystemCoreClockUpdate+0x1a>
  400ffc:	2b02      	cmp	r3, #2
  400ffe:	d038      	beq.n	401072 <SystemCoreClockUpdate+0x8a>
  401000:	e07a      	b.n	4010f8 <SystemCoreClockUpdate+0x110>
  401002:	4b4e      	ldr	r3, [pc, #312]	; (40113c <SystemCoreClockUpdate+0x154>)
  401004:	695b      	ldr	r3, [r3, #20]
  401006:	f003 0380 	and.w	r3, r3, #128	; 0x80
  40100a:	2b00      	cmp	r3, #0
  40100c:	d004      	beq.n	401018 <SystemCoreClockUpdate+0x30>
  40100e:	4b4c      	ldr	r3, [pc, #304]	; (401140 <SystemCoreClockUpdate+0x158>)
  401010:	f44f 4200 	mov.w	r2, #32768	; 0x8000
  401014:	601a      	str	r2, [r3, #0]
  401016:	e06f      	b.n	4010f8 <SystemCoreClockUpdate+0x110>
  401018:	4b49      	ldr	r3, [pc, #292]	; (401140 <SystemCoreClockUpdate+0x158>)
  40101a:	f44f 42fa 	mov.w	r2, #32000	; 0x7d00
  40101e:	601a      	str	r2, [r3, #0]
  401020:	e06a      	b.n	4010f8 <SystemCoreClockUpdate+0x110>
  401022:	4b45      	ldr	r3, [pc, #276]	; (401138 <SystemCoreClockUpdate+0x150>)
  401024:	6a1b      	ldr	r3, [r3, #32]
  401026:	f003 7380 	and.w	r3, r3, #16777216	; 0x1000000
  40102a:	2b00      	cmp	r3, #0
  40102c:	d003      	beq.n	401036 <SystemCoreClockUpdate+0x4e>
  40102e:	4b44      	ldr	r3, [pc, #272]	; (401140 <SystemCoreClockUpdate+0x158>)
  401030:	4a44      	ldr	r2, [pc, #272]	; (401144 <SystemCoreClockUpdate+0x15c>)
  401032:	601a      	str	r2, [r3, #0]
  401034:	e060      	b.n	4010f8 <SystemCoreClockUpdate+0x110>
  401036:	4b42      	ldr	r3, [pc, #264]	; (401140 <SystemCoreClockUpdate+0x158>)
  401038:	4a43      	ldr	r2, [pc, #268]	; (401148 <SystemCoreClockUpdate+0x160>)
  40103a:	601a      	str	r2, [r3, #0]
  40103c:	4b3e      	ldr	r3, [pc, #248]	; (401138 <SystemCoreClockUpdate+0x150>)
  40103e:	6a1b      	ldr	r3, [r3, #32]
  401040:	f003 0370 	and.w	r3, r3, #112	; 0x70
  401044:	2b10      	cmp	r3, #16
  401046:	d004      	beq.n	401052 <SystemCoreClockUpdate+0x6a>
  401048:	2b20      	cmp	r3, #32
  40104a:	d008      	beq.n	40105e <SystemCoreClockUpdate+0x76>
  40104c:	2b00      	cmp	r3, #0
  40104e:	d00e      	beq.n	40106e <SystemCoreClockUpdate+0x86>
  401050:	e00e      	b.n	401070 <SystemCoreClockUpdate+0x88>
  401052:	4b3b      	ldr	r3, [pc, #236]	; (401140 <SystemCoreClockUpdate+0x158>)
  401054:	681b      	ldr	r3, [r3, #0]
  401056:	005b      	lsls	r3, r3, #1
  401058:	4a39      	ldr	r2, [pc, #228]	; (401140 <SystemCoreClockUpdate+0x158>)
  40105a:	6013      	str	r3, [r2, #0]
  40105c:	e008      	b.n	401070 <SystemCoreClockUpdate+0x88>
  40105e:	4b38      	ldr	r3, [pc, #224]	; (401140 <SystemCoreClockUpdate+0x158>)
  401060:	681a      	ldr	r2, [r3, #0]
  401062:	4613      	mov	r3, r2
  401064:	005b      	lsls	r3, r3, #1
  401066:	4413      	add	r3, r2
  401068:	4a35      	ldr	r2, [pc, #212]	; (401140 <SystemCoreClockUpdate+0x158>)
  40106a:	6013      	str	r3, [r2, #0]
  40106c:	e000      	b.n	401070 <SystemCoreClockUpdate+0x88>
  40106e:	bf00      	nop
  401070:	e042      	b.n	4010f8 <SystemCoreClockUpdate+0x110>
  401072:	4b31      	ldr	r3, [pc, #196]	; (401138 <SystemCoreClockUpdate+0x150>)
  401074:	6a1b      	ldr	r3, [r3, #32]
  401076:	f003 7380 	and.w	r3, r3, #16777216	; 0x1000000
  40107a:	2b00      	cmp	r3, #0
  40107c:	d003      	beq.n	401086 <SystemCoreClockUpdate+0x9e>
  40107e:	4b30      	ldr	r3, [pc, #192]	; (401140 <SystemCoreClockUpdate+0x158>)
  401080:	4a30      	ldr	r2, [pc, #192]	; (401144 <SystemCoreClockUpdate+0x15c>)
  401082:	601a      	str	r2, [r3, #0]
  401084:	e01c      	b.n	4010c0 <SystemCoreClockUpdate+0xd8>
  401086:	4b2e      	ldr	r3, [pc, #184]	; (401140 <SystemCoreClockUpdate+0x158>)
  401088:	4a2f      	ldr	r2, [pc, #188]	; (401148 <SystemCoreClockUpdate+0x160>)
  40108a:	601a      	str	r2, [r3, #0]
  40108c:	4b2a      	ldr	r3, [pc, #168]	; (401138 <SystemCoreClockUpdate+0x150>)
  40108e:	6a1b      	ldr	r3, [r3, #32]
  401090:	f003 0370 	and.w	r3, r3, #112	; 0x70
  401094:	2b10      	cmp	r3, #16
  401096:	d004      	beq.n	4010a2 <SystemCoreClockUpdate+0xba>
  401098:	2b20      	cmp	r3, #32
  40109a:	d008      	beq.n	4010ae <SystemCoreClockUpdate+0xc6>
  40109c:	2b00      	cmp	r3, #0
  40109e:	d00e      	beq.n	4010be <SystemCoreClockUpdate+0xd6>
  4010a0:	e00e      	b.n	4010c0 <SystemCoreClockUpdate+0xd8>
  4010a2:	4b27      	ldr	r3, [pc, #156]	; (401140 <SystemCoreClockUpdate+0x158>)
  4010a4:	681b      	ldr	r3, [r3, #0]
  4010a6:	005b      	lsls	r3, r3, #1
  4010a8:	4a25      	ldr	r2, [pc, #148]	; (401140 <SystemCoreClockUpdate+0x158>)
  4010aa:	6013      	str	r3, [r2, #0]
  4010ac:	e008      	b.n	4010c0 <SystemCoreClockUpdate+0xd8>
  4010ae:	4b24      	ldr	r3, [pc, #144]	; (401140 <SystemCoreClockUpdate+0x158>)
  4010b0:	681a      	ldr	r2, [r3, #0]
  4010b2:	4613      	mov	r3, r2
  4010b4:	005b      	lsls	r3, r3, #1
  4010b6:	4413      	add	r3, r2
  4010b8:	4a21      	ldr	r2, [pc, #132]	; (401140 <SystemCoreClockUpdate+0x158>)
  4010ba:	6013      	str	r3, [r2, #0]
  4010bc:	e000      	b.n	4010c0 <SystemCoreClockUpdate+0xd8>
  4010be:	bf00      	nop
  4010c0:	4b1d      	ldr	r3, [pc, #116]	; (401138 <SystemCoreClockUpdate+0x150>)
  4010c2:	6b1b      	ldr	r3, [r3, #48]	; 0x30
  4010c4:	f003 0303 	and.w	r3, r3, #3
  4010c8:	2b02      	cmp	r3, #2
  4010ca:	d114      	bne.n	4010f6 <SystemCoreClockUpdate+0x10e>
  4010cc:	4b1a      	ldr	r3, [pc, #104]	; (401138 <SystemCoreClockUpdate+0x150>)
  4010ce:	6a9b      	ldr	r3, [r3, #40]	; 0x28
  4010d0:	0c1b      	lsrs	r3, r3, #16
  4010d2:	f3c3 030a 	ubfx	r3, r3, #0, #11
  4010d6:	3301      	adds	r3, #1
  4010d8:	4a19      	ldr	r2, [pc, #100]	; (401140 <SystemCoreClockUpdate+0x158>)
  4010da:	6812      	ldr	r2, [r2, #0]
  4010dc:	fb02 f303 	mul.w	r3, r2, r3
  4010e0:	4a17      	ldr	r2, [pc, #92]	; (401140 <SystemCoreClockUpdate+0x158>)
  4010e2:	6013      	str	r3, [r2, #0]
  4010e4:	4b14      	ldr	r3, [pc, #80]	; (401138 <SystemCoreClockUpdate+0x150>)
  4010e6:	6a9b      	ldr	r3, [r3, #40]	; 0x28
  4010e8:	b2db      	uxtb	r3, r3
  4010ea:	4a15      	ldr	r2, [pc, #84]	; (401140 <SystemCoreClockUpdate+0x158>)
  4010ec:	6812      	ldr	r2, [r2, #0]
  4010ee:	fbb2 f3f3 	udiv	r3, r2, r3
  4010f2:	4a13      	ldr	r2, [pc, #76]	; (401140 <SystemCoreClockUpdate+0x158>)
  4010f4:	6013      	str	r3, [r2, #0]
  4010f6:	bf00      	nop
  4010f8:	4b0f      	ldr	r3, [pc, #60]	; (401138 <SystemCoreClockUpdate+0x150>)
  4010fa:	6b1b      	ldr	r3, [r3, #48]	; 0x30
  4010fc:	f003 0370 	and.w	r3, r3, #112	; 0x70
  401100:	2b70      	cmp	r3, #112	; 0x70
  401102:	d108      	bne.n	401116 <SystemCoreClockUpdate+0x12e>
  401104:	4b0e      	ldr	r3, [pc, #56]	; (401140 <SystemCoreClockUpdate+0x158>)
  401106:	681b      	ldr	r3, [r3, #0]
  401108:	4a10      	ldr	r2, [pc, #64]	; (40114c <SystemCoreClockUpdate+0x164>)
  40110a:	fba2 2303 	umull	r2, r3, r2, r3
  40110e:	085b      	lsrs	r3, r3, #1
  401110:	4a0b      	ldr	r2, [pc, #44]	; (401140 <SystemCoreClockUpdate+0x158>)
  401112:	6013      	str	r3, [r2, #0]
  401114:	e00a      	b.n	40112c <SystemCoreClockUpdate+0x144>
  401116:	4b08      	ldr	r3, [pc, #32]	; (401138 <SystemCoreClockUpdate+0x150>)
  401118:	6b1b      	ldr	r3, [r3, #48]	; 0x30
  40111a:	091b      	lsrs	r3, r3, #4
  40111c:	f003 0307 	and.w	r3, r3, #7
  401120:	4a07      	ldr	r2, [pc, #28]	; (401140 <SystemCoreClockUpdate+0x158>)
  401122:	6812      	ldr	r2, [r2, #0]
  401124:	fa22 f303 	lsr.w	r3, r2, r3
  401128:	4a05      	ldr	r2, [pc, #20]	; (401140 <SystemCoreClockUpdate+0x158>)
  40112a:	6013      	str	r3, [r2, #0]
  40112c:	bf00      	nop
  40112e:	46bd      	mov	sp, r7
  401130:	f85d 7b04 	ldr.w	r7, [sp], #4
  401134:	4770      	bx	lr
  401136:	bf00      	nop
  401138:	400e0600 	.word	0x400e0600
  40113c:	400e1810 	.word	0x400e1810
  401140:	2040000c 	.word	0x2040000c
  401144:	00b71b00 	.word	0x00b71b00
  401148:	003d0900 	.word	0x003d0900
  40114c:	aaaaaaab 	.word	0xaaaaaaab

00401150 <system_init_flash>:
  401150:	b480      	push	{r7}
  401152:	b083      	sub	sp, #12
  401154:	af00      	add	r7, sp, #0
  401156:	6078      	str	r0, [r7, #4]
  401158:	687b      	ldr	r3, [r7, #4]
  40115a:	4a19      	ldr	r2, [pc, #100]	; (4011c0 <system_init_flash+0x70>)
  40115c:	4293      	cmp	r3, r2
  40115e:	d804      	bhi.n	40116a <system_init_flash+0x1a>
  401160:	4b18      	ldr	r3, [pc, #96]	; (4011c4 <system_init_flash+0x74>)
  401162:	f04f 6280 	mov.w	r2, #67108864	; 0x4000000
  401166:	601a      	str	r2, [r3, #0]
  401168:	e023      	b.n	4011b2 <system_init_flash+0x62>
  40116a:	687b      	ldr	r3, [r7, #4]
  40116c:	4a16      	ldr	r2, [pc, #88]	; (4011c8 <system_init_flash+0x78>)
  40116e:	4293      	cmp	r3, r2
  401170:	d803      	bhi.n	40117a <system_init_flash+0x2a>
  401172:	4b14      	ldr	r3, [pc, #80]	; (4011c4 <system_init_flash+0x74>)
  401174:	4a15      	ldr	r2, [pc, #84]	; (4011cc <system_init_flash+0x7c>)
  401176:	601a      	str	r2, [r3, #0]
  401178:	e01b      	b.n	4011b2 <system_init_flash+0x62>
  40117a:	687b      	ldr	r3, [r7, #4]
  40117c:	4a14      	ldr	r2, [pc, #80]	; (4011d0 <system_init_flash+0x80>)
  40117e:	4293      	cmp	r3, r2
  401180:	d803      	bhi.n	40118a <system_init_flash+0x3a>
  401182:	4b10      	ldr	r3, [pc, #64]	; (4011c4 <system_init_flash+0x74>)
  401184:	4a13      	ldr	r2, [pc, #76]	; (4011d4 <system_init_flash+0x84>)
  401186:	601a      	str	r2, [r3, #0]
  401188:	e013      	b.n	4011b2 <system_init_flash+0x62>
  40118a:	687b      	ldr	r3, [r7, #4]
  40118c:	4a12      	ldr	r2, [pc, #72]	; (4011d8 <system_init_flash+0x88>)
  40118e:	4293      	cmp	r3, r2
  401190:	d803      	bhi.n	40119a <system_init_flash+0x4a>
  401192:	4b0c      	ldr	r3, [pc, #48]	; (4011c4 <system_init_flash+0x74>)
  401194:	4a11      	ldr	r2, [pc, #68]	; (4011dc <system_init_flash+0x8c>)
  401196:	601a      	str	r2, [r3, #0]
  401198:	e00b      	b.n	4011b2 <system_init_flash+0x62>
  40119a:	687b      	ldr	r3, [r7, #4]
  40119c:	4a10      	ldr	r2, [pc, #64]	; (4011e0 <system_init_flash+0x90>)
  40119e:	4293      	cmp	r3, r2
  4011a0:	d804      	bhi.n	4011ac <system_init_flash+0x5c>
  4011a2:	4b08      	ldr	r3, [pc, #32]	; (4011c4 <system_init_flash+0x74>)
  4011a4:	f04f 2204 	mov.w	r2, #67109888	; 0x4000400
  4011a8:	601a      	str	r2, [r3, #0]
  4011aa:	e002      	b.n	4011b2 <system_init_flash+0x62>
  4011ac:	4b05      	ldr	r3, [pc, #20]	; (4011c4 <system_init_flash+0x74>)
  4011ae:	4a0d      	ldr	r2, [pc, #52]	; (4011e4 <system_init_flash+0x94>)
  4011b0:	601a      	str	r2, [r3, #0]
  4011b2:	bf00      	nop
  4011b4:	370c      	adds	r7, #12
  4011b6:	46bd      	mov	sp, r7
  4011b8:	f85d 7b04 	ldr.w	r7, [sp], #4
  4011bc:	4770      	bx	lr
  4011be:	bf00      	nop
  4011c0:	01312cff 	.word	0x01312cff
  4011c4:	400e0c00 	.word	0x400e0c00
  4011c8:	026259ff 	.word	0x026259ff
  4011cc:	04000100 	.word	0x04000100
  4011d0:	039386ff 	.word	0x039386ff
  4011d4:	04000200 	.word	0x04000200
  4011d8:	04c4b3ff 	.word	0x04c4b3ff
  4011dc:	04000300 	.word	0x04000300
  4011e0:	05f5e0ff 	.word	0x05f5e0ff
  4011e4:	04000500 	.word	0x04000500

004011e8 <osc_get_rate>:

	return 0;
}

static inline uint32_t osc_get_rate(uint32_t ul_id)
{
  4011e8:	b480      	push	{r7}
  4011ea:	b083      	sub	sp, #12
  4011ec:	af00      	add	r7, sp, #0
  4011ee:	6078      	str	r0, [r7, #4]
	switch (ul_id) {
  4011f0:	687b      	ldr	r3, [r7, #4]
  4011f2:	2b07      	cmp	r3, #7
  4011f4:	d825      	bhi.n	401242 <osc_get_rate+0x5a>
  4011f6:	a201      	add	r2, pc, #4	; (adr r2, 4011fc <osc_get_rate+0x14>)
  4011f8:	f852 f023 	ldr.w	pc, [r2, r3, lsl #2]
  4011fc:	0040121d 	.word	0x0040121d
  401200:	00401223 	.word	0x00401223
  401204:	00401229 	.word	0x00401229
  401208:	0040122f 	.word	0x0040122f
  40120c:	00401233 	.word	0x00401233
  401210:	00401237 	.word	0x00401237
  401214:	0040123b 	.word	0x0040123b
  401218:	0040123f 	.word	0x0040123f
	case OSC_SLCK_32K_RC:
		return OSC_SLCK_32K_RC_HZ;
  40121c:	f44f 43fa 	mov.w	r3, #32000	; 0x7d00
  401220:	e010      	b.n	401244 <osc_get_rate+0x5c>

	case OSC_SLCK_32K_XTAL:
		return BOARD_FREQ_SLCK_XTAL;
  401222:	f44f 4300 	mov.w	r3, #32768	; 0x8000
  401226:	e00d      	b.n	401244 <osc_get_rate+0x5c>

	case OSC_SLCK_32K_BYPASS:
		return BOARD_FREQ_SLCK_BYPASS;
  401228:	f44f 4300 	mov.w	r3, #32768	; 0x8000
  40122c:	e00a      	b.n	401244 <osc_get_rate+0x5c>

	case OSC_MAINCK_4M_RC:
		return OSC_MAINCK_4M_RC_HZ;
  40122e:	4b08      	ldr	r3, [pc, #32]	; (401250 <osc_get_rate+0x68>)
  401230:	e008      	b.n	401244 <osc_get_rate+0x5c>

	case OSC_MAINCK_8M_RC:
		return OSC_MAINCK_8M_RC_HZ;
  401232:	4b08      	ldr	r3, [pc, #32]	; (401254 <osc_get_rate+0x6c>)
  401234:	e006      	b.n	401244 <osc_get_rate+0x5c>

	case OSC_MAINCK_12M_RC:
		return OSC_MAINCK_12M_RC_HZ;
  401236:	4b08      	ldr	r3, [pc, #32]	; (401258 <osc_get_rate+0x70>)
  401238:	e004      	b.n	401244 <osc_get_rate+0x5c>

	case OSC_MAINCK_XTAL:
		return BOARD_FREQ_MAINCK_XTAL;
  40123a:	4b07      	ldr	r3, [pc, #28]	; (401258 <osc_get_rate+0x70>)
  40123c:	e002      	b.n	401244 <osc_get_rate+0x5c>

	case OSC_MAINCK_BYPASS:
		return BOARD_FREQ_MAINCK_BYPASS;
  40123e:	4b06      	ldr	r3, [pc, #24]	; (401258 <osc_get_rate+0x70>)
  401240:	e000      	b.n	401244 <osc_get_rate+0x5c>
	}

	return 0;
  401242:	2300      	movs	r3, #0
}
  401244:	4618      	mov	r0, r3
  401246:	370c      	adds	r7, #12
  401248:	46bd      	mov	sp, r7
  40124a:	f85d 7b04 	ldr.w	r7, [sp], #4
  40124e:	4770      	bx	lr
  401250:	003d0900 	.word	0x003d0900
  401254:	007a1200 	.word	0x007a1200
  401258:	00b71b00 	.word	0x00b71b00

0040125c <sysclk_get_main_hz>:
 */
#if (defined CONFIG_SYSCLK_DEFAULT_RETURNS_SLOW_OSC)
extern uint32_t sysclk_initialized;
#endif
static inline uint32_t sysclk_get_main_hz(void)
{
  40125c:	b580      	push	{r7, lr}
  40125e:	af00      	add	r7, sp, #0
	} else if (CONFIG_SYSCLK_SOURCE == SYSCLK_SRC_MAINCK_BYPASS) {
		return OSC_MAINCK_BYPASS_HZ;
	}
#ifdef CONFIG_PLL0_SOURCE
	else if (CONFIG_SYSCLK_SOURCE == SYSCLK_SRC_PLLACK) {
		return pll_get_default_rate(0);
  401260:	2006      	movs	r0, #6
  401262:	4b05      	ldr	r3, [pc, #20]	; (401278 <sysclk_get_main_hz+0x1c>)
  401264:	4798      	blx	r3
  401266:	4602      	mov	r2, r0
  401268:	4613      	mov	r3, r2
  40126a:	009b      	lsls	r3, r3, #2
  40126c:	4413      	add	r3, r2
  40126e:	009a      	lsls	r2, r3, #2
  401270:	4413      	add	r3, r2
#endif
	else {
		/* unhandled_case(CONFIG_SYSCLK_SOURCE); */
		return 0;
	}
}
  401272:	4618      	mov	r0, r3
  401274:	bd80      	pop	{r7, pc}
  401276:	bf00      	nop
  401278:	004011e9 	.word	0x004011e9

0040127c <sysclk_get_cpu_hz>:
 * clocks.
 *
 * \return Frequency of the CPU clock, in Hz.
 */
static inline uint32_t sysclk_get_cpu_hz(void)
{
  40127c:	b580      	push	{r7, lr}
  40127e:	af00      	add	r7, sp, #0
	/* CONFIG_SYSCLK_PRES is the register value for setting the expected */
	/* prescaler, not an immediate value. */
	return sysclk_get_main_hz() /
  401280:	4b02      	ldr	r3, [pc, #8]	; (40128c <sysclk_get_cpu_hz+0x10>)
  401282:	4798      	blx	r3
  401284:	4603      	mov	r3, r0
		((CONFIG_SYSCLK_PRES == SYSCLK_PRES_3) ? 3 :
			(1 << (CONFIG_SYSCLK_PRES >> PMC_MCKR_PRES_Pos)));
}
  401286:	4618      	mov	r0, r3
  401288:	bd80      	pop	{r7, pc}
  40128a:	bf00      	nop
  40128c:	0040125d 	.word	0x0040125d

00401290 <sysclk_get_peripheral_hz>:
 * \brief Retrieves the current rate in Hz of the peripheral clocks.
 *
 * \return Frequency of the peripheral clocks, in Hz.
 */
static inline uint32_t sysclk_get_peripheral_hz(void)
{
  401290:	b580      	push	{r7, lr}
  401292:	af00      	add	r7, sp, #0
	/* CONFIG_SYSCLK_PRES is the register value for setting the expected */
	/* prescaler, not an immediate value. */
	return sysclk_get_main_hz() /
  401294:	4b02      	ldr	r3, [pc, #8]	; (4012a0 <sysclk_get_peripheral_hz+0x10>)
  401296:	4798      	blx	r3
  401298:	4603      	mov	r3, r0
  40129a:	085b      	lsrs	r3, r3, #1
		(((CONFIG_SYSCLK_PRES == SYSCLK_PRES_3) ? 3 : (1 << (CONFIG_SYSCLK_PRES >> PMC_MCKR_PRES_Pos))) * CONFIG_SYSCLK_DIV);
}
  40129c:	4618      	mov	r0, r3
  40129e:	bd80      	pop	{r7, pc}
  4012a0:	0040125d 	.word	0x0040125d

004012a4 <sysclk_enable_peripheral_clock>:
 * \brief Enable a peripheral's clock.
 *
 * \param ul_id Id (number) of the peripheral clock.
 */
static inline void sysclk_enable_peripheral_clock(uint32_t ul_id)
{
  4012a4:	b580      	push	{r7, lr}
  4012a6:	b082      	sub	sp, #8
  4012a8:	af00      	add	r7, sp, #0
  4012aa:	6078      	str	r0, [r7, #4]
	pmc_enable_periph_clk(ul_id);
  4012ac:	6878      	ldr	r0, [r7, #4]
  4012ae:	4b03      	ldr	r3, [pc, #12]	; (4012bc <sysclk_enable_peripheral_clock+0x18>)
  4012b0:	4798      	blx	r3
}
  4012b2:	bf00      	nop
  4012b4:	3708      	adds	r7, #8
  4012b6:	46bd      	mov	sp, r7
  4012b8:	bd80      	pop	{r7, pc}
  4012ba:	bf00      	nop
  4012bc:	00400bd1 	.word	0x00400bd1

004012c0 <USART0_init>:
	sysclk_enable_peripheral_clock(CONSOLE_UART_ID);
	stdio_serial_init(CONF_UART, &uart_serial_options);
}
*/

static void USART0_init(void){
  4012c0:	b580      	push	{r7, lr}
  4012c2:	b086      	sub	sp, #24
  4012c4:	af00      	add	r7, sp, #0
	
	/* Configura USART0 Pinos */
	sysclk_enable_peripheral_clock(ID_PIOB);
  4012c6:	200b      	movs	r0, #11
  4012c8:	4b19      	ldr	r3, [pc, #100]	; (401330 <USART0_init+0x70>)
  4012ca:	4798      	blx	r3
	pio_set_peripheral(PIOB, PIO_PERIPH_C, PIO_PB0);
  4012cc:	2201      	movs	r2, #1
  4012ce:	f04f 51c0 	mov.w	r1, #402653184	; 0x18000000
  4012d2:	4818      	ldr	r0, [pc, #96]	; (401334 <USART0_init+0x74>)
  4012d4:	4b18      	ldr	r3, [pc, #96]	; (401338 <USART0_init+0x78>)
  4012d6:	4798      	blx	r3
	pio_set_peripheral(PIOB, PIO_PERIPH_C, PIO_PB1);
  4012d8:	2202      	movs	r2, #2
  4012da:	f04f 51c0 	mov.w	r1, #402653184	; 0x18000000
  4012de:	4815      	ldr	r0, [pc, #84]	; (401334 <USART0_init+0x74>)
  4012e0:	4b15      	ldr	r3, [pc, #84]	; (401338 <USART0_init+0x78>)
  4012e2:	4798      	blx	r3
	
	/* Configura opcoes USART */
	const sam_usart_opt_t usart_settings = {
  4012e4:	463b      	mov	r3, r7
  4012e6:	2200      	movs	r2, #0
  4012e8:	601a      	str	r2, [r3, #0]
  4012ea:	605a      	str	r2, [r3, #4]
  4012ec:	609a      	str	r2, [r3, #8]
  4012ee:	60da      	str	r2, [r3, #12]
  4012f0:	611a      	str	r2, [r3, #16]
  4012f2:	615a      	str	r2, [r3, #20]
  4012f4:	f647 2312 	movw	r3, #31250	; 0x7a12
  4012f8:	603b      	str	r3, [r7, #0]
  4012fa:	23c0      	movs	r3, #192	; 0xc0
  4012fc:	607b      	str	r3, [r7, #4]
  4012fe:	f44f 6300 	mov.w	r3, #2048	; 0x800
  401302:	60bb      	str	r3, [r7, #8]
		.stop_bits    = US_MR_NBSTOP_1_BIT,
		.channel_mode = US_MR_CHMODE_NORMAL
	};

	/* Ativa Clock periferico USART0 */
	sysclk_enable_peripheral_clock(ID_USART0);
  401304:	200d      	movs	r0, #13
  401306:	4b0a      	ldr	r3, [pc, #40]	; (401330 <USART0_init+0x70>)
  401308:	4798      	blx	r3
	
	/* Configura USART para operar em modo RS232 */
	usart_init_rs232(USART0, &usart_settings, sysclk_get_peripheral_hz());
  40130a:	4b0c      	ldr	r3, [pc, #48]	; (40133c <USART0_init+0x7c>)
  40130c:	4798      	blx	r3
  40130e:	4602      	mov	r2, r0
  401310:	463b      	mov	r3, r7
  401312:	4619      	mov	r1, r3
  401314:	480a      	ldr	r0, [pc, #40]	; (401340 <USART0_init+0x80>)
  401316:	4b0b      	ldr	r3, [pc, #44]	; (401344 <USART0_init+0x84>)
  401318:	4798      	blx	r3
	
	/* Enable the receiver and transmitter. */
	usart_enable_tx(USART0);
  40131a:	4809      	ldr	r0, [pc, #36]	; (401340 <USART0_init+0x80>)
  40131c:	4b0a      	ldr	r3, [pc, #40]	; (401348 <USART0_init+0x88>)
  40131e:	4798      	blx	r3
	usart_enable_rx(USART0);
  401320:	4807      	ldr	r0, [pc, #28]	; (401340 <USART0_init+0x80>)
  401322:	4b0a      	ldr	r3, [pc, #40]	; (40134c <USART0_init+0x8c>)
  401324:	4798      	blx	r3
}
  401326:	bf00      	nop
  401328:	3718      	adds	r7, #24
  40132a:	46bd      	mov	sp, r7
  40132c:	bd80      	pop	{r7, pc}
  40132e:	bf00      	nop
  401330:	004012a5 	.word	0x004012a5
  401334:	400e1000 	.word	0x400e1000
  401338:	00400571 	.word	0x00400571
  40133c:	00401291 	.word	0x00401291
  401340:	40024000 	.word	0x40024000
  401344:	00400d35 	.word	0x00400d35
  401348:	00400db9 	.word	0x00400db9
  40134c:	00400ded 	.word	0x00400ded

00401350 <NoteOn>:
	pio_set(midi_pio,midi_mask);

}
*/

void NoteOn(char note){
  401350:	b580      	push	{r7, lr}
  401352:	b082      	sub	sp, #8
  401354:	af00      	add	r7, sp, #0
  401356:	4603      	mov	r3, r0
  401358:	71fb      	strb	r3, [r7, #7]
  usart_putchar(USART0,NOTE_ON_CMD);
  40135a:	2190      	movs	r1, #144	; 0x90
  40135c:	4807      	ldr	r0, [pc, #28]	; (40137c <NoteOn+0x2c>)
  40135e:	4b08      	ldr	r3, [pc, #32]	; (401380 <NoteOn+0x30>)
  401360:	4798      	blx	r3
  usart_putchar(USART0,note);
  401362:	79fb      	ldrb	r3, [r7, #7]
  401364:	4619      	mov	r1, r3
  401366:	4805      	ldr	r0, [pc, #20]	; (40137c <NoteOn+0x2c>)
  401368:	4b05      	ldr	r3, [pc, #20]	; (401380 <NoteOn+0x30>)
  40136a:	4798      	blx	r3
  usart_putchar(USART0,NOTE_VELOCITY);
  40136c:	217f      	movs	r1, #127	; 0x7f
  40136e:	4803      	ldr	r0, [pc, #12]	; (40137c <NoteOn+0x2c>)
  401370:	4b03      	ldr	r3, [pc, #12]	; (401380 <NoteOn+0x30>)
  401372:	4798      	blx	r3
  /*
  SendByteMidi(NOTE_ON_CMD);
  SendByteMidi(note);
  SendByteMidi(NOTE_VELOCITY);
  */
}
  401374:	bf00      	nop
  401376:	3708      	adds	r7, #8
  401378:	46bd      	mov	sp, r7
  40137a:	bd80      	pop	{r7, pc}
  40137c:	40024000 	.word	0x40024000
  401380:	00400e59 	.word	0x00400e59

00401384 <NoteOff>:

void NoteOff(char note){
  401384:	b580      	push	{r7, lr}
  401386:	b082      	sub	sp, #8
  401388:	af00      	add	r7, sp, #0
  40138a:	4603      	mov	r3, r0
  40138c:	71fb      	strb	r3, [r7, #7]
  usart_putchar(USART0,NOTE_OFF_CMD);
  40138e:	2180      	movs	r1, #128	; 0x80
  401390:	4807      	ldr	r0, [pc, #28]	; (4013b0 <NoteOff+0x2c>)
  401392:	4b08      	ldr	r3, [pc, #32]	; (4013b4 <NoteOff+0x30>)
  401394:	4798      	blx	r3
  usart_putchar(USART0,note);
  401396:	79fb      	ldrb	r3, [r7, #7]
  401398:	4619      	mov	r1, r3
  40139a:	4805      	ldr	r0, [pc, #20]	; (4013b0 <NoteOff+0x2c>)
  40139c:	4b05      	ldr	r3, [pc, #20]	; (4013b4 <NoteOff+0x30>)
  40139e:	4798      	blx	r3
  usart_putchar(USART0,NOTE_VELOCITY);
  4013a0:	217f      	movs	r1, #127	; 0x7f
  4013a2:	4803      	ldr	r0, [pc, #12]	; (4013b0 <NoteOff+0x2c>)
  4013a4:	4b03      	ldr	r3, [pc, #12]	; (4013b4 <NoteOff+0x30>)
  4013a6:	4798      	blx	r3
/*
	SendByteMidi(NOTE_OFF_CMD);
	SendByteMidi(note);
	SendByteMidi(NOTE_VELOCITY);
	*/
}
  4013a8:	bf00      	nop
  4013aa:	3708      	adds	r7, #8
  4013ac:	46bd      	mov	sp, r7
  4013ae:	bd80      	pop	{r7, pc}
  4013b0:	40024000 	.word	0x40024000
  4013b4:	00400e59 	.word	0x00400e59

004013b8 <main>:
/************************************************************************/
/* Main                                                                 */
/************************************************************************/

// Funcao principal chamada na inicalizacao do uC.
int main(void){
  4013b8:	e92d 4ff0 	stmdb	sp!, {r4, r5, r6, r7, r8, r9, sl, fp, lr}
  4013bc:	b08b      	sub	sp, #44	; 0x2c
  4013be:	af02      	add	r7, sp, #8
	sysclk_init();
  4013c0:	4ba0      	ldr	r3, [pc, #640]	; (401644 <main+0x28c>)
  4013c2:	4798      	blx	r3
	//board_init();
	WDT->WDT_MR = WDT_MR_WDDIS;
  4013c4:	4ba0      	ldr	r3, [pc, #640]	; (401648 <main+0x290>)
  4013c6:	f44f 4200 	mov.w	r2, #32768	; 0x8000
  4013ca:	605a      	str	r2, [r3, #4]
	//pio_configure(BUT_PIO, PIO_INPUT, BUT_PIO_PIN_MASK, PIO_PULLUP);
	//configurando uart
	//configure_console();
	//configuração do PIO
		
	pmc_enable_periph_clk(PIOA);
  4013cc:	489f      	ldr	r0, [pc, #636]	; (40164c <main+0x294>)
  4013ce:	4ba0      	ldr	r3, [pc, #640]	; (401650 <main+0x298>)
  4013d0:	4798      	blx	r3
	pmc_enable_periph_clk(PIOB);
  4013d2:	48a0      	ldr	r0, [pc, #640]	; (401654 <main+0x29c>)
  4013d4:	4b9e      	ldr	r3, [pc, #632]	; (401650 <main+0x298>)
  4013d6:	4798      	blx	r3
	pmc_enable_periph_clk(PIOC);
  4013d8:	489f      	ldr	r0, [pc, #636]	; (401658 <main+0x2a0>)
  4013da:	4b9d      	ldr	r3, [pc, #628]	; (401650 <main+0x298>)
  4013dc:	4798      	blx	r3
	pmc_enable_periph_clk(PIOD);
  4013de:	489f      	ldr	r0, [pc, #636]	; (40165c <main+0x2a4>)
  4013e0:	4b9b      	ldr	r3, [pc, #620]	; (401650 <main+0x298>)
  4013e2:	4798      	blx	r3
		
		
	//Set all ins to keyboard
	pio_set_output(key_in1_pio, key_in1_mask, 0, 0, 0 );
  4013e4:	2300      	movs	r3, #0
  4013e6:	9300      	str	r3, [sp, #0]
  4013e8:	2300      	movs	r3, #0
  4013ea:	2200      	movs	r2, #0
  4013ec:	f04f 4100 	mov.w	r1, #2147483648	; 0x80000000
  4013f0:	4899      	ldr	r0, [pc, #612]	; (401658 <main+0x2a0>)
  4013f2:	4c9b      	ldr	r4, [pc, #620]	; (401660 <main+0x2a8>)
  4013f4:	47a0      	blx	r4
	pio_set_output(key_in2_pio, key_in2_mask, 0, 0, 0 );
  4013f6:	2300      	movs	r3, #0
  4013f8:	9300      	str	r3, [sp, #0]
  4013fa:	2300      	movs	r3, #0
  4013fc:	2200      	movs	r2, #0
  4013fe:	f04f 4100 	mov.w	r1, #2147483648	; 0x80000000
  401402:	4894      	ldr	r0, [pc, #592]	; (401654 <main+0x29c>)
  401404:	4c96      	ldr	r4, [pc, #600]	; (401660 <main+0x2a8>)
  401406:	47a0      	blx	r4
	pio_set_output(key_in3_pio, key_in3_mask, 0, 0, 0 );
  401408:	2300      	movs	r3, #0
  40140a:	9300      	str	r3, [sp, #0]
  40140c:	2300      	movs	r3, #0
  40140e:	2200      	movs	r2, #0
  401410:	2101      	movs	r1, #1
  401412:	488e      	ldr	r0, [pc, #568]	; (40164c <main+0x294>)
  401414:	4c92      	ldr	r4, [pc, #584]	; (401660 <main+0x2a8>)
  401416:	47a0      	blx	r4
	pio_set_output(key_in4_pio, key_in4_mask, 0, 0, 0 );
  401418:	2300      	movs	r3, #0
  40141a:	9300      	str	r3, [sp, #0]
  40141c:	2300      	movs	r3, #0
  40141e:	2200      	movs	r2, #0
  401420:	f04f 5180 	mov.w	r1, #268435456	; 0x10000000
  401424:	488d      	ldr	r0, [pc, #564]	; (40165c <main+0x2a4>)
  401426:	4c8e      	ldr	r4, [pc, #568]	; (401660 <main+0x2a8>)
  401428:	47a0      	blx	r4
	pio_set_output(key_in5_pio, key_in5_mask, 0, 0, 0 );
  40142a:	2300      	movs	r3, #0
  40142c:	9300      	str	r3, [sp, #0]
  40142e:	2300      	movs	r3, #0
  401430:	2200      	movs	r2, #0
  401432:	2108      	movs	r1, #8
  401434:	4885      	ldr	r0, [pc, #532]	; (40164c <main+0x294>)
  401436:	4c8a      	ldr	r4, [pc, #552]	; (401660 <main+0x2a8>)
  401438:	47a0      	blx	r4
	pio_set_output(key_in6_pio, key_in6_mask, 0, 0, 0 );
  40143a:	2300      	movs	r3, #0
  40143c:	9300      	str	r3, [sp, #0]
  40143e:	2300      	movs	r3, #0
  401440:	2200      	movs	r2, #0
  401442:	2101      	movs	r1, #1
  401444:	4883      	ldr	r0, [pc, #524]	; (401654 <main+0x29c>)
  401446:	4c86      	ldr	r4, [pc, #536]	; (401660 <main+0x2a8>)
  401448:	47a0      	blx	r4

	//set midi port
	pio_set_output(midi_pio, midi_mask, 0, 0, 0 );
  40144a:	2300      	movs	r3, #0
  40144c:	9300      	str	r3, [sp, #0]
  40144e:	2300      	movs	r3, #0
  401450:	2200      	movs	r2, #0
  401452:	f04f 4180 	mov.w	r1, #1073741824	; 0x40000000
  401456:	4881      	ldr	r0, [pc, #516]	; (40165c <main+0x2a4>)
  401458:	4c81      	ldr	r4, [pc, #516]	; (401660 <main+0x2a8>)
  40145a:	47a0      	blx	r4
	pio_set(midi_pio,midi_mask); //set for reference
  40145c:	f04f 4180 	mov.w	r1, #1073741824	; 0x40000000
  401460:	487e      	ldr	r0, [pc, #504]	; (40165c <main+0x2a4>)
  401462:	4b80      	ldr	r3, [pc, #512]	; (401664 <main+0x2ac>)
  401464:	4798      	blx	r3

	//set USART0 to midiport
	USART0_init();
  401466:	4b80      	ldr	r3, [pc, #512]	; (401668 <main+0x2b0>)
  401468:	4798      	blx	r3
		
	//Set all outs from keyboard
	pio_set_input(key_out1_pio, key_out1_mask, PIO_DEBOUNCE);
  40146a:	2208      	movs	r2, #8
  40146c:	f44f 5100 	mov.w	r1, #8192	; 0x2000
  401470:	4879      	ldr	r0, [pc, #484]	; (401658 <main+0x2a0>)
  401472:	4b7e      	ldr	r3, [pc, #504]	; (40166c <main+0x2b4>)
  401474:	4798      	blx	r3
	//pio_set_debounce_filter(key_out1_pio, key_out1_mask,120);
	pio_pull_down(key_out1_pio, key_out1_mask,1);
  401476:	2201      	movs	r2, #1
  401478:	f44f 5100 	mov.w	r1, #8192	; 0x2000
  40147c:	4876      	ldr	r0, [pc, #472]	; (401658 <main+0x2a0>)
  40147e:	4b7c      	ldr	r3, [pc, #496]	; (401670 <main+0x2b8>)
  401480:	4798      	blx	r3
		
		
	pio_set_input(key_out2_pio, key_out2_mask, PIO_DEBOUNCE);
  401482:	2208      	movs	r2, #8
  401484:	f44f 6100 	mov.w	r1, #2048	; 0x800
  401488:	4874      	ldr	r0, [pc, #464]	; (40165c <main+0x2a4>)
  40148a:	4b78      	ldr	r3, [pc, #480]	; (40166c <main+0x2b4>)
  40148c:	4798      	blx	r3
	//pio_set_debounce_filter(key_out2_pio, key_out2_mask,120);
	pio_pull_down(key_out2_pio, key_out2_mask,1);
  40148e:	2201      	movs	r2, #1
  401490:	f44f 6100 	mov.w	r1, #2048	; 0x800
  401494:	4871      	ldr	r0, [pc, #452]	; (40165c <main+0x2a4>)
  401496:	4b76      	ldr	r3, [pc, #472]	; (401670 <main+0x2b8>)
  401498:	4798      	blx	r3
	//pio_configure(key_out2_pio, PIO_INPUT, key_out3_mask, PIO_DEFAULT);
		
	pio_set_input(key_out3_pio, key_out3_mask, PIO_DEBOUNCE);
  40149a:	2208      	movs	r2, #8
  40149c:	f04f 6180 	mov.w	r1, #67108864	; 0x4000000
  4014a0:	486e      	ldr	r0, [pc, #440]	; (40165c <main+0x2a4>)
  4014a2:	4b72      	ldr	r3, [pc, #456]	; (40166c <main+0x2b4>)
  4014a4:	4798      	blx	r3
	//pio_set_debounce_filter(key_out3_pio, key_out3_mask,120);
	pio_pull_down(key_out3_pio, key_out3_mask,1);
  4014a6:	2201      	movs	r2, #1
  4014a8:	f04f 6180 	mov.w	r1, #67108864	; 0x4000000
  4014ac:	486b      	ldr	r0, [pc, #428]	; (40165c <main+0x2a4>)
  4014ae:	4b70      	ldr	r3, [pc, #448]	; (401670 <main+0x2b8>)
  4014b0:	4798      	blx	r3
		
	pio_set_input(key_out4_pio, key_out4_mask, PIO_DEBOUNCE);
  4014b2:	2208      	movs	r2, #8
  4014b4:	f04f 7180 	mov.w	r1, #16777216	; 0x1000000
  4014b8:	4864      	ldr	r0, [pc, #400]	; (40164c <main+0x294>)
  4014ba:	4b6c      	ldr	r3, [pc, #432]	; (40166c <main+0x2b4>)
  4014bc:	4798      	blx	r3
	//p/io_set_debounce_filter(key_out4_pio, key_out4_mask,120);
	pio_pull_down(key_out4_pio, key_out4_mask,1);
  4014be:	2201      	movs	r2, #1
  4014c0:	f04f 7180 	mov.w	r1, #16777216	; 0x1000000
  4014c4:	4861      	ldr	r0, [pc, #388]	; (40164c <main+0x294>)
  4014c6:	4b6a      	ldr	r3, [pc, #424]	; (401670 <main+0x2b8>)
  4014c8:	4798      	blx	r3
		
	pio_set_input(key_out5_pio, key_out5_mask, PIO_DEBOUNCE);
  4014ca:	2208      	movs	r2, #8
  4014cc:	2110      	movs	r1, #16
  4014ce:	485f      	ldr	r0, [pc, #380]	; (40164c <main+0x294>)
  4014d0:	4b66      	ldr	r3, [pc, #408]	; (40166c <main+0x2b4>)
  4014d2:	4798      	blx	r3
	//pio_set_debounce_filter(key_out5_pio, key_out5_mask,120);
	pio_pull_down(key_out5_pio, key_out5_mask,1);
  4014d4:	2201      	movs	r2, #1
  4014d6:	2110      	movs	r1, #16
  4014d8:	485c      	ldr	r0, [pc, #368]	; (40164c <main+0x294>)
  4014da:	4b65      	ldr	r3, [pc, #404]	; (401670 <main+0x2b8>)
  4014dc:	4798      	blx	r3
		
	pio_set_input(key_out6_pio, key_out6_mask, PIO_DEBOUNCE);
  4014de:	2208      	movs	r2, #8
  4014e0:	2110      	movs	r1, #16
  4014e2:	485c      	ldr	r0, [pc, #368]	; (401654 <main+0x29c>)
  4014e4:	4b61      	ldr	r3, [pc, #388]	; (40166c <main+0x2b4>)
  4014e6:	4798      	blx	r3
	//pio_set_debounce_filter(key_out6_pio, key_out6_mask,120);
	pio_pull_down(key_out6_pio, key_out6_mask,1);
  4014e8:	2201      	movs	r2, #1
  4014ea:	2110      	movs	r1, #16
  4014ec:	4859      	ldr	r0, [pc, #356]	; (401654 <main+0x29c>)
  4014ee:	4b60      	ldr	r3, [pc, #384]	; (401670 <main+0x2b8>)
  4014f0:	4798      	blx	r3
		
	pio_set_input(key_out7_pio, key_out7_mask, PIO_DEBOUNCE);
  4014f2:	2208      	movs	r2, #8
  4014f4:	2101      	movs	r1, #1
  4014f6:	4857      	ldr	r0, [pc, #348]	; (401654 <main+0x29c>)
  4014f8:	4b5c      	ldr	r3, [pc, #368]	; (40166c <main+0x2b4>)
  4014fa:	4798      	blx	r3
	////pio_set_debounce_filter(key_out7_pio, key_out7_mask,120);
	pio_pull_down(key_out7_pio, key_out7_mask,1);
  4014fc:	2201      	movs	r2, #1
  4014fe:	2101      	movs	r1, #1
  401500:	4854      	ldr	r0, [pc, #336]	; (401654 <main+0x29c>)
  401502:	4b5b      	ldr	r3, [pc, #364]	; (401670 <main+0x2b8>)
  401504:	4798      	blx	r3
		
	pio_set_input(key_out8_pio, key_out8_mask, PIO_DEBOUNCE);
  401506:	2208      	movs	r2, #8
  401508:	f04f 7100 	mov.w	r1, #33554432	; 0x2000000
  40150c:	4853      	ldr	r0, [pc, #332]	; (40165c <main+0x2a4>)
  40150e:	4b57      	ldr	r3, [pc, #348]	; (40166c <main+0x2b4>)
  401510:	4798      	blx	r3
	////pio_set_debounce_filter(key_out8_pio, key_out8_mask,120);
	pio_pull_down(key_out8_pio, key_out8_mask,1);
  401512:	2201      	movs	r2, #1
  401514:	f04f 7100 	mov.w	r1, #33554432	; 0x2000000
  401518:	4850      	ldr	r0, [pc, #320]	; (40165c <main+0x2a4>)
  40151a:	4b55      	ldr	r3, [pc, #340]	; (401670 <main+0x2b8>)
  40151c:	4798      	blx	r3
		
	pio_set_input(key_out9_pio, key_out9_mask, PIO_DEBOUNCE);
  40151e:	2208      	movs	r2, #8
  401520:	f44f 1180 	mov.w	r1, #1048576	; 0x100000
  401524:	484d      	ldr	r0, [pc, #308]	; (40165c <main+0x2a4>)
  401526:	4b51      	ldr	r3, [pc, #324]	; (40166c <main+0x2b4>)
  401528:	4798      	blx	r3
	//pio_set_debounce_filter(key_out9_pio, key_out9_mask,120);
	pio_pull_down(key_out9_pio, key_out9_mask,1);
  40152a:	2201      	movs	r2, #1
  40152c:	f44f 1180 	mov.w	r1, #1048576	; 0x100000
  401530:	484a      	ldr	r0, [pc, #296]	; (40165c <main+0x2a4>)
  401532:	4b4f      	ldr	r3, [pc, #316]	; (401670 <main+0x2b8>)
  401534:	4798      	blx	r3
		/*
		NoteOn(60);
		*/

		
		NoteOn(60);
  401536:	203c      	movs	r0, #60	; 0x3c
  401538:	4b4e      	ldr	r3, [pc, #312]	; (401674 <main+0x2bc>)
  40153a:	4798      	blx	r3
		delay_ms(300);
  40153c:	4b4e      	ldr	r3, [pc, #312]	; (401678 <main+0x2c0>)
  40153e:	4798      	blx	r3
  401540:	4603      	mov	r3, r0
  401542:	4619      	mov	r1, r3
  401544:	f04f 0200 	mov.w	r2, #0
  401548:	460b      	mov	r3, r1
  40154a:	4614      	mov	r4, r2
  40154c:	00a0      	lsls	r0, r4, #2
  40154e:	61f8      	str	r0, [r7, #28]
  401550:	69f8      	ldr	r0, [r7, #28]
  401552:	ea40 7093 	orr.w	r0, r0, r3, lsr #30
  401556:	61f8      	str	r0, [r7, #28]
  401558:	009b      	lsls	r3, r3, #2
  40155a:	61bb      	str	r3, [r7, #24]
  40155c:	e9d7 3406 	ldrd	r3, r4, [r7, #24]
  401560:	185b      	adds	r3, r3, r1
  401562:	eb44 0402 	adc.w	r4, r4, r2
  401566:	ea4f 1904 	mov.w	r9, r4, lsl #4
  40156a:	ea49 7913 	orr.w	r9, r9, r3, lsr #28
  40156e:	ea4f 1803 	mov.w	r8, r3, lsl #4
  401572:	ebb8 0803 	subs.w	r8, r8, r3
  401576:	eb69 0904 	sbc.w	r9, r9, r4
  40157a:	ea4f 0389 	mov.w	r3, r9, lsl #2
  40157e:	617b      	str	r3, [r7, #20]
  401580:	697b      	ldr	r3, [r7, #20]
  401582:	ea43 7398 	orr.w	r3, r3, r8, lsr #30
  401586:	617b      	str	r3, [r7, #20]
  401588:	ea4f 0388 	mov.w	r3, r8, lsl #2
  40158c:	613b      	str	r3, [r7, #16]
  40158e:	e9d7 8904 	ldrd	r8, r9, [r7, #16]
  401592:	4641      	mov	r1, r8
  401594:	464a      	mov	r2, r9
  401596:	f241 732b 	movw	r3, #5931	; 0x172b
  40159a:	f04f 0400 	mov.w	r4, #0
  40159e:	eb11 0a03 	adds.w	sl, r1, r3
  4015a2:	eb42 0b04 	adc.w	fp, r2, r4
  4015a6:	4650      	mov	r0, sl
  4015a8:	4659      	mov	r1, fp
  4015aa:	4c34      	ldr	r4, [pc, #208]	; (40167c <main+0x2c4>)
  4015ac:	f241 722c 	movw	r2, #5932	; 0x172c
  4015b0:	f04f 0300 	mov.w	r3, #0
  4015b4:	47a0      	blx	r4
  4015b6:	4603      	mov	r3, r0
  4015b8:	460c      	mov	r4, r1
  4015ba:	4618      	mov	r0, r3
  4015bc:	4b30      	ldr	r3, [pc, #192]	; (401680 <main+0x2c8>)
  4015be:	4798      	blx	r3
		NoteOff(60);
  4015c0:	203c      	movs	r0, #60	; 0x3c
  4015c2:	4b30      	ldr	r3, [pc, #192]	; (401684 <main+0x2cc>)
  4015c4:	4798      	blx	r3
		delay_ms(300);
  4015c6:	4b2c      	ldr	r3, [pc, #176]	; (401678 <main+0x2c0>)
  4015c8:	4798      	blx	r3
  4015ca:	4603      	mov	r3, r0
  4015cc:	4619      	mov	r1, r3
  4015ce:	f04f 0200 	mov.w	r2, #0
  4015d2:	460b      	mov	r3, r1
  4015d4:	4614      	mov	r4, r2
  4015d6:	00a0      	lsls	r0, r4, #2
  4015d8:	60f8      	str	r0, [r7, #12]
  4015da:	68f8      	ldr	r0, [r7, #12]
  4015dc:	ea40 7093 	orr.w	r0, r0, r3, lsr #30
  4015e0:	60f8      	str	r0, [r7, #12]
  4015e2:	009b      	lsls	r3, r3, #2
  4015e4:	60bb      	str	r3, [r7, #8]
  4015e6:	e9d7 3402 	ldrd	r3, r4, [r7, #8]
  4015ea:	185b      	adds	r3, r3, r1
  4015ec:	eb44 0402 	adc.w	r4, r4, r2
  4015f0:	0126      	lsls	r6, r4, #4
  4015f2:	ea46 7613 	orr.w	r6, r6, r3, lsr #28
  4015f6:	011d      	lsls	r5, r3, #4
  4015f8:	1aed      	subs	r5, r5, r3
  4015fa:	eb66 0604 	sbc.w	r6, r6, r4
  4015fe:	00b3      	lsls	r3, r6, #2
  401600:	607b      	str	r3, [r7, #4]
  401602:	687b      	ldr	r3, [r7, #4]
  401604:	ea43 7395 	orr.w	r3, r3, r5, lsr #30
  401608:	607b      	str	r3, [r7, #4]
  40160a:	00ab      	lsls	r3, r5, #2
  40160c:	603b      	str	r3, [r7, #0]
  40160e:	e9d7 5600 	ldrd	r5, r6, [r7]
  401612:	4629      	mov	r1, r5
  401614:	4632      	mov	r2, r6
  401616:	f241 732b 	movw	r3, #5931	; 0x172b
  40161a:	f04f 0400 	mov.w	r4, #0
  40161e:	eb11 0a03 	adds.w	sl, r1, r3
  401622:	eb42 0b04 	adc.w	fp, r2, r4
  401626:	4650      	mov	r0, sl
  401628:	4659      	mov	r1, fp
  40162a:	4c14      	ldr	r4, [pc, #80]	; (40167c <main+0x2c4>)
  40162c:	f241 722c 	movw	r2, #5932	; 0x172c
  401630:	f04f 0300 	mov.w	r3, #0
  401634:	47a0      	blx	r4
  401636:	4603      	mov	r3, r0
  401638:	460c      	mov	r4, r1
  40163a:	4618      	mov	r0, r3
  40163c:	4b10      	ldr	r3, [pc, #64]	; (401680 <main+0x2c8>)
  40163e:	4798      	blx	r3
		NoteOn(60);
  401640:	e779      	b.n	401536 <main+0x17e>
  401642:	bf00      	nop
  401644:	004004ad 	.word	0x004004ad
  401648:	400e1850 	.word	0x400e1850
  40164c:	400e0e00 	.word	0x400e0e00
  401650:	00400bd1 	.word	0x00400bd1
  401654:	400e1000 	.word	0x400e1000
  401658:	400e1200 	.word	0x400e1200
  40165c:	400e1400 	.word	0x400e1400
  401660:	00400701 	.word	0x00400701
  401664:	00400555 	.word	0x00400555
  401668:	004012c1 	.word	0x004012c1
  40166c:	00400681 	.word	0x00400681
  401670:	00400765 	.word	0x00400765
  401674:	00401351 	.word	0x00401351
  401678:	0040127d 	.word	0x0040127d
  40167c:	00401689 	.word	0x00401689
  401680:	20400001 	.word	0x20400001
  401684:	00401385 	.word	0x00401385

00401688 <__aeabi_uldivmod>:
  401688:	b953      	cbnz	r3, 4016a0 <__aeabi_uldivmod+0x18>
  40168a:	b94a      	cbnz	r2, 4016a0 <__aeabi_uldivmod+0x18>
  40168c:	2900      	cmp	r1, #0
  40168e:	bf08      	it	eq
  401690:	2800      	cmpeq	r0, #0
  401692:	bf1c      	itt	ne
  401694:	f04f 31ff 	movne.w	r1, #4294967295
  401698:	f04f 30ff 	movne.w	r0, #4294967295
  40169c:	f000 b97a 	b.w	401994 <__aeabi_idiv0>
  4016a0:	f1ad 0c08 	sub.w	ip, sp, #8
  4016a4:	e96d ce04 	strd	ip, lr, [sp, #-16]!
  4016a8:	f000 f806 	bl	4016b8 <__udivmoddi4>
  4016ac:	f8dd e004 	ldr.w	lr, [sp, #4]
  4016b0:	e9dd 2302 	ldrd	r2, r3, [sp, #8]
  4016b4:	b004      	add	sp, #16
  4016b6:	4770      	bx	lr

004016b8 <__udivmoddi4>:
  4016b8:	e92d 47f0 	stmdb	sp!, {r4, r5, r6, r7, r8, r9, sl, lr}
  4016bc:	468c      	mov	ip, r1
  4016be:	460d      	mov	r5, r1
  4016c0:	4604      	mov	r4, r0
  4016c2:	9e08      	ldr	r6, [sp, #32]
  4016c4:	2b00      	cmp	r3, #0
  4016c6:	d151      	bne.n	40176c <__udivmoddi4+0xb4>
  4016c8:	428a      	cmp	r2, r1
  4016ca:	4617      	mov	r7, r2
  4016cc:	d96d      	bls.n	4017aa <__udivmoddi4+0xf2>
  4016ce:	fab2 fe82 	clz	lr, r2
  4016d2:	f1be 0f00 	cmp.w	lr, #0
  4016d6:	d00b      	beq.n	4016f0 <__udivmoddi4+0x38>
  4016d8:	f1ce 0c20 	rsb	ip, lr, #32
  4016dc:	fa01 f50e 	lsl.w	r5, r1, lr
  4016e0:	fa20 fc0c 	lsr.w	ip, r0, ip
  4016e4:	fa02 f70e 	lsl.w	r7, r2, lr
  4016e8:	ea4c 0c05 	orr.w	ip, ip, r5
  4016ec:	fa00 f40e 	lsl.w	r4, r0, lr
  4016f0:	ea4f 4a17 	mov.w	sl, r7, lsr #16
  4016f4:	0c25      	lsrs	r5, r4, #16
  4016f6:	fbbc f8fa 	udiv	r8, ip, sl
  4016fa:	fa1f f987 	uxth.w	r9, r7
  4016fe:	fb0a cc18 	mls	ip, sl, r8, ip
  401702:	ea45 450c 	orr.w	r5, r5, ip, lsl #16
  401706:	fb08 f309 	mul.w	r3, r8, r9
  40170a:	42ab      	cmp	r3, r5
  40170c:	d90a      	bls.n	401724 <__udivmoddi4+0x6c>
  40170e:	19ed      	adds	r5, r5, r7
  401710:	f108 32ff 	add.w	r2, r8, #4294967295
  401714:	f080 8123 	bcs.w	40195e <__udivmoddi4+0x2a6>
  401718:	42ab      	cmp	r3, r5
  40171a:	f240 8120 	bls.w	40195e <__udivmoddi4+0x2a6>
  40171e:	f1a8 0802 	sub.w	r8, r8, #2
  401722:	443d      	add	r5, r7
  401724:	1aed      	subs	r5, r5, r3
  401726:	b2a4      	uxth	r4, r4
  401728:	fbb5 f0fa 	udiv	r0, r5, sl
  40172c:	fb0a 5510 	mls	r5, sl, r0, r5
  401730:	ea44 4405 	orr.w	r4, r4, r5, lsl #16
  401734:	fb00 f909 	mul.w	r9, r0, r9
  401738:	45a1      	cmp	r9, r4
  40173a:	d909      	bls.n	401750 <__udivmoddi4+0x98>
  40173c:	19e4      	adds	r4, r4, r7
  40173e:	f100 33ff 	add.w	r3, r0, #4294967295
  401742:	f080 810a 	bcs.w	40195a <__udivmoddi4+0x2a2>
  401746:	45a1      	cmp	r9, r4
  401748:	f240 8107 	bls.w	40195a <__udivmoddi4+0x2a2>
  40174c:	3802      	subs	r0, #2
  40174e:	443c      	add	r4, r7
  401750:	eba4 0409 	sub.w	r4, r4, r9
  401754:	ea40 4008 	orr.w	r0, r0, r8, lsl #16
  401758:	2100      	movs	r1, #0
  40175a:	2e00      	cmp	r6, #0
  40175c:	d061      	beq.n	401822 <__udivmoddi4+0x16a>
  40175e:	fa24 f40e 	lsr.w	r4, r4, lr
  401762:	2300      	movs	r3, #0
  401764:	6034      	str	r4, [r6, #0]
  401766:	6073      	str	r3, [r6, #4]
  401768:	e8bd 87f0 	ldmia.w	sp!, {r4, r5, r6, r7, r8, r9, sl, pc}
  40176c:	428b      	cmp	r3, r1
  40176e:	d907      	bls.n	401780 <__udivmoddi4+0xc8>
  401770:	2e00      	cmp	r6, #0
  401772:	d054      	beq.n	40181e <__udivmoddi4+0x166>
  401774:	2100      	movs	r1, #0
  401776:	e886 0021 	stmia.w	r6, {r0, r5}
  40177a:	4608      	mov	r0, r1
  40177c:	e8bd 87f0 	ldmia.w	sp!, {r4, r5, r6, r7, r8, r9, sl, pc}
  401780:	fab3 f183 	clz	r1, r3
  401784:	2900      	cmp	r1, #0
  401786:	f040 808e 	bne.w	4018a6 <__udivmoddi4+0x1ee>
  40178a:	42ab      	cmp	r3, r5
  40178c:	d302      	bcc.n	401794 <__udivmoddi4+0xdc>
  40178e:	4282      	cmp	r2, r0
  401790:	f200 80fa 	bhi.w	401988 <__udivmoddi4+0x2d0>
  401794:	1a84      	subs	r4, r0, r2
  401796:	eb65 0503 	sbc.w	r5, r5, r3
  40179a:	2001      	movs	r0, #1
  40179c:	46ac      	mov	ip, r5
  40179e:	2e00      	cmp	r6, #0
  4017a0:	d03f      	beq.n	401822 <__udivmoddi4+0x16a>
  4017a2:	e886 1010 	stmia.w	r6, {r4, ip}
  4017a6:	e8bd 87f0 	ldmia.w	sp!, {r4, r5, r6, r7, r8, r9, sl, pc}
  4017aa:	b912      	cbnz	r2, 4017b2 <__udivmoddi4+0xfa>
  4017ac:	2701      	movs	r7, #1
  4017ae:	fbb7 f7f2 	udiv	r7, r7, r2
  4017b2:	fab7 fe87 	clz	lr, r7
  4017b6:	f1be 0f00 	cmp.w	lr, #0
  4017ba:	d134      	bne.n	401826 <__udivmoddi4+0x16e>
  4017bc:	1beb      	subs	r3, r5, r7
  4017be:	0c3a      	lsrs	r2, r7, #16
  4017c0:	fa1f fc87 	uxth.w	ip, r7
  4017c4:	2101      	movs	r1, #1
  4017c6:	fbb3 f8f2 	udiv	r8, r3, r2
  4017ca:	0c25      	lsrs	r5, r4, #16
  4017cc:	fb02 3318 	mls	r3, r2, r8, r3
  4017d0:	ea45 4503 	orr.w	r5, r5, r3, lsl #16
  4017d4:	fb0c f308 	mul.w	r3, ip, r8
  4017d8:	42ab      	cmp	r3, r5
  4017da:	d907      	bls.n	4017ec <__udivmoddi4+0x134>
  4017dc:	19ed      	adds	r5, r5, r7
  4017de:	f108 30ff 	add.w	r0, r8, #4294967295
  4017e2:	d202      	bcs.n	4017ea <__udivmoddi4+0x132>
  4017e4:	42ab      	cmp	r3, r5
  4017e6:	f200 80d1 	bhi.w	40198c <__udivmoddi4+0x2d4>
  4017ea:	4680      	mov	r8, r0
  4017ec:	1aed      	subs	r5, r5, r3
  4017ee:	b2a3      	uxth	r3, r4
  4017f0:	fbb5 f0f2 	udiv	r0, r5, r2
  4017f4:	fb02 5510 	mls	r5, r2, r0, r5
  4017f8:	ea43 4405 	orr.w	r4, r3, r5, lsl #16
  4017fc:	fb0c fc00 	mul.w	ip, ip, r0
  401800:	45a4      	cmp	ip, r4
  401802:	d907      	bls.n	401814 <__udivmoddi4+0x15c>
  401804:	19e4      	adds	r4, r4, r7
  401806:	f100 33ff 	add.w	r3, r0, #4294967295
  40180a:	d202      	bcs.n	401812 <__udivmoddi4+0x15a>
  40180c:	45a4      	cmp	ip, r4
  40180e:	f200 80b8 	bhi.w	401982 <__udivmoddi4+0x2ca>
  401812:	4618      	mov	r0, r3
  401814:	eba4 040c 	sub.w	r4, r4, ip
  401818:	ea40 4008 	orr.w	r0, r0, r8, lsl #16
  40181c:	e79d      	b.n	40175a <__udivmoddi4+0xa2>
  40181e:	4631      	mov	r1, r6
  401820:	4630      	mov	r0, r6
  401822:	e8bd 87f0 	ldmia.w	sp!, {r4, r5, r6, r7, r8, r9, sl, pc}
  401826:	f1ce 0420 	rsb	r4, lr, #32
  40182a:	fa05 f30e 	lsl.w	r3, r5, lr
  40182e:	fa07 f70e 	lsl.w	r7, r7, lr
  401832:	fa20 f804 	lsr.w	r8, r0, r4
  401836:	0c3a      	lsrs	r2, r7, #16
  401838:	fa25 f404 	lsr.w	r4, r5, r4
  40183c:	ea48 0803 	orr.w	r8, r8, r3
  401840:	fbb4 f1f2 	udiv	r1, r4, r2
  401844:	ea4f 4518 	mov.w	r5, r8, lsr #16
  401848:	fb02 4411 	mls	r4, r2, r1, r4
  40184c:	fa1f fc87 	uxth.w	ip, r7
  401850:	ea45 4504 	orr.w	r5, r5, r4, lsl #16
  401854:	fb01 f30c 	mul.w	r3, r1, ip
  401858:	42ab      	cmp	r3, r5
  40185a:	fa00 f40e 	lsl.w	r4, r0, lr
  40185e:	d909      	bls.n	401874 <__udivmoddi4+0x1bc>
  401860:	19ed      	adds	r5, r5, r7
  401862:	f101 30ff 	add.w	r0, r1, #4294967295
  401866:	f080 808a 	bcs.w	40197e <__udivmoddi4+0x2c6>
  40186a:	42ab      	cmp	r3, r5
  40186c:	f240 8087 	bls.w	40197e <__udivmoddi4+0x2c6>
  401870:	3902      	subs	r1, #2
  401872:	443d      	add	r5, r7
  401874:	1aeb      	subs	r3, r5, r3
  401876:	fa1f f588 	uxth.w	r5, r8
  40187a:	fbb3 f0f2 	udiv	r0, r3, r2
  40187e:	fb02 3310 	mls	r3, r2, r0, r3
  401882:	ea45 4503 	orr.w	r5, r5, r3, lsl #16
  401886:	fb00 f30c 	mul.w	r3, r0, ip
  40188a:	42ab      	cmp	r3, r5
  40188c:	d907      	bls.n	40189e <__udivmoddi4+0x1e6>
  40188e:	19ed      	adds	r5, r5, r7
  401890:	f100 38ff 	add.w	r8, r0, #4294967295
  401894:	d26f      	bcs.n	401976 <__udivmoddi4+0x2be>
  401896:	42ab      	cmp	r3, r5
  401898:	d96d      	bls.n	401976 <__udivmoddi4+0x2be>
  40189a:	3802      	subs	r0, #2
  40189c:	443d      	add	r5, r7
  40189e:	1aeb      	subs	r3, r5, r3
  4018a0:	ea40 4101 	orr.w	r1, r0, r1, lsl #16
  4018a4:	e78f      	b.n	4017c6 <__udivmoddi4+0x10e>
  4018a6:	f1c1 0720 	rsb	r7, r1, #32
  4018aa:	fa22 f807 	lsr.w	r8, r2, r7
  4018ae:	408b      	lsls	r3, r1
  4018b0:	fa05 f401 	lsl.w	r4, r5, r1
  4018b4:	ea48 0303 	orr.w	r3, r8, r3
  4018b8:	fa20 fe07 	lsr.w	lr, r0, r7
  4018bc:	ea4f 4c13 	mov.w	ip, r3, lsr #16
  4018c0:	40fd      	lsrs	r5, r7
  4018c2:	ea4e 0e04 	orr.w	lr, lr, r4
  4018c6:	fbb5 f9fc 	udiv	r9, r5, ip
  4018ca:	ea4f 441e 	mov.w	r4, lr, lsr #16
  4018ce:	fb0c 5519 	mls	r5, ip, r9, r5
  4018d2:	fa1f f883 	uxth.w	r8, r3
  4018d6:	ea44 4505 	orr.w	r5, r4, r5, lsl #16
  4018da:	fb09 f408 	mul.w	r4, r9, r8
  4018de:	42ac      	cmp	r4, r5
  4018e0:	fa02 f201 	lsl.w	r2, r2, r1
  4018e4:	fa00 fa01 	lsl.w	sl, r0, r1
  4018e8:	d908      	bls.n	4018fc <__udivmoddi4+0x244>
  4018ea:	18ed      	adds	r5, r5, r3
  4018ec:	f109 30ff 	add.w	r0, r9, #4294967295
  4018f0:	d243      	bcs.n	40197a <__udivmoddi4+0x2c2>
  4018f2:	42ac      	cmp	r4, r5
  4018f4:	d941      	bls.n	40197a <__udivmoddi4+0x2c2>
  4018f6:	f1a9 0902 	sub.w	r9, r9, #2
  4018fa:	441d      	add	r5, r3
  4018fc:	1b2d      	subs	r5, r5, r4
  4018fe:	fa1f fe8e 	uxth.w	lr, lr
  401902:	fbb5 f0fc 	udiv	r0, r5, ip
  401906:	fb0c 5510 	mls	r5, ip, r0, r5
  40190a:	ea4e 4405 	orr.w	r4, lr, r5, lsl #16
  40190e:	fb00 f808 	mul.w	r8, r0, r8
  401912:	45a0      	cmp	r8, r4
  401914:	d907      	bls.n	401926 <__udivmoddi4+0x26e>
  401916:	18e4      	adds	r4, r4, r3
  401918:	f100 35ff 	add.w	r5, r0, #4294967295
  40191c:	d229      	bcs.n	401972 <__udivmoddi4+0x2ba>
  40191e:	45a0      	cmp	r8, r4
  401920:	d927      	bls.n	401972 <__udivmoddi4+0x2ba>
  401922:	3802      	subs	r0, #2
  401924:	441c      	add	r4, r3
  401926:	ea40 4009 	orr.w	r0, r0, r9, lsl #16
  40192a:	eba4 0408 	sub.w	r4, r4, r8
  40192e:	fba0 8902 	umull	r8, r9, r0, r2
  401932:	454c      	cmp	r4, r9
  401934:	46c6      	mov	lr, r8
  401936:	464d      	mov	r5, r9
  401938:	d315      	bcc.n	401966 <__udivmoddi4+0x2ae>
  40193a:	d012      	beq.n	401962 <__udivmoddi4+0x2aa>
  40193c:	b156      	cbz	r6, 401954 <__udivmoddi4+0x29c>
  40193e:	ebba 030e 	subs.w	r3, sl, lr
  401942:	eb64 0405 	sbc.w	r4, r4, r5
  401946:	fa04 f707 	lsl.w	r7, r4, r7
  40194a:	40cb      	lsrs	r3, r1
  40194c:	431f      	orrs	r7, r3
  40194e:	40cc      	lsrs	r4, r1
  401950:	6037      	str	r7, [r6, #0]
  401952:	6074      	str	r4, [r6, #4]
  401954:	2100      	movs	r1, #0
  401956:	e8bd 87f0 	ldmia.w	sp!, {r4, r5, r6, r7, r8, r9, sl, pc}
  40195a:	4618      	mov	r0, r3
  40195c:	e6f8      	b.n	401750 <__udivmoddi4+0x98>
  40195e:	4690      	mov	r8, r2
  401960:	e6e0      	b.n	401724 <__udivmoddi4+0x6c>
  401962:	45c2      	cmp	sl, r8
  401964:	d2ea      	bcs.n	40193c <__udivmoddi4+0x284>
  401966:	ebb8 0e02 	subs.w	lr, r8, r2
  40196a:	eb69 0503 	sbc.w	r5, r9, r3
  40196e:	3801      	subs	r0, #1
  401970:	e7e4      	b.n	40193c <__udivmoddi4+0x284>
  401972:	4628      	mov	r0, r5
  401974:	e7d7      	b.n	401926 <__udivmoddi4+0x26e>
  401976:	4640      	mov	r0, r8
  401978:	e791      	b.n	40189e <__udivmoddi4+0x1e6>
  40197a:	4681      	mov	r9, r0
  40197c:	e7be      	b.n	4018fc <__udivmoddi4+0x244>
  40197e:	4601      	mov	r1, r0
  401980:	e778      	b.n	401874 <__udivmoddi4+0x1bc>
  401982:	3802      	subs	r0, #2
  401984:	443c      	add	r4, r7
  401986:	e745      	b.n	401814 <__udivmoddi4+0x15c>
  401988:	4608      	mov	r0, r1
  40198a:	e708      	b.n	40179e <__udivmoddi4+0xe6>
  40198c:	f1a8 0802 	sub.w	r8, r8, #2
  401990:	443d      	add	r5, r7
  401992:	e72b      	b.n	4017ec <__udivmoddi4+0x134>

00401994 <__aeabi_idiv0>:
  401994:	4770      	bx	lr
  401996:	bf00      	nop

00401998 <__libc_init_array>:
  401998:	b570      	push	{r4, r5, r6, lr}
  40199a:	4e0f      	ldr	r6, [pc, #60]	; (4019d8 <__libc_init_array+0x40>)
  40199c:	4d0f      	ldr	r5, [pc, #60]	; (4019dc <__libc_init_array+0x44>)
  40199e:	1b76      	subs	r6, r6, r5
  4019a0:	10b6      	asrs	r6, r6, #2
  4019a2:	bf18      	it	ne
  4019a4:	2400      	movne	r4, #0
  4019a6:	d005      	beq.n	4019b4 <__libc_init_array+0x1c>
  4019a8:	3401      	adds	r4, #1
  4019aa:	f855 3b04 	ldr.w	r3, [r5], #4
  4019ae:	4798      	blx	r3
  4019b0:	42a6      	cmp	r6, r4
  4019b2:	d1f9      	bne.n	4019a8 <__libc_init_array+0x10>
  4019b4:	4e0a      	ldr	r6, [pc, #40]	; (4019e0 <__libc_init_array+0x48>)
  4019b6:	4d0b      	ldr	r5, [pc, #44]	; (4019e4 <__libc_init_array+0x4c>)
  4019b8:	1b76      	subs	r6, r6, r5
  4019ba:	f000 f8a7 	bl	401b0c <_init>
  4019be:	10b6      	asrs	r6, r6, #2
  4019c0:	bf18      	it	ne
  4019c2:	2400      	movne	r4, #0
  4019c4:	d006      	beq.n	4019d4 <__libc_init_array+0x3c>
  4019c6:	3401      	adds	r4, #1
  4019c8:	f855 3b04 	ldr.w	r3, [r5], #4
  4019cc:	4798      	blx	r3
  4019ce:	42a6      	cmp	r6, r4
  4019d0:	d1f9      	bne.n	4019c6 <__libc_init_array+0x2e>
  4019d2:	bd70      	pop	{r4, r5, r6, pc}
  4019d4:	bd70      	pop	{r4, r5, r6, pc}
  4019d6:	bf00      	nop
  4019d8:	00401b18 	.word	0x00401b18
  4019dc:	00401b18 	.word	0x00401b18
  4019e0:	00401b20 	.word	0x00401b20
  4019e4:	00401b18 	.word	0x00401b18

004019e8 <register_fini>:
  4019e8:	4b02      	ldr	r3, [pc, #8]	; (4019f4 <register_fini+0xc>)
  4019ea:	b113      	cbz	r3, 4019f2 <register_fini+0xa>
  4019ec:	4802      	ldr	r0, [pc, #8]	; (4019f8 <register_fini+0x10>)
  4019ee:	f000 b805 	b.w	4019fc <atexit>
  4019f2:	4770      	bx	lr
  4019f4:	00000000 	.word	0x00000000
  4019f8:	00401a09 	.word	0x00401a09

004019fc <atexit>:
  4019fc:	2300      	movs	r3, #0
  4019fe:	4601      	mov	r1, r0
  401a00:	461a      	mov	r2, r3
  401a02:	4618      	mov	r0, r3
  401a04:	f000 b81e 	b.w	401a44 <__register_exitproc>

00401a08 <__libc_fini_array>:
  401a08:	b538      	push	{r3, r4, r5, lr}
  401a0a:	4c0a      	ldr	r4, [pc, #40]	; (401a34 <__libc_fini_array+0x2c>)
  401a0c:	4d0a      	ldr	r5, [pc, #40]	; (401a38 <__libc_fini_array+0x30>)
  401a0e:	1b64      	subs	r4, r4, r5
  401a10:	10a4      	asrs	r4, r4, #2
  401a12:	d00a      	beq.n	401a2a <__libc_fini_array+0x22>
  401a14:	f104 4380 	add.w	r3, r4, #1073741824	; 0x40000000
  401a18:	3b01      	subs	r3, #1
  401a1a:	eb05 0583 	add.w	r5, r5, r3, lsl #2
  401a1e:	3c01      	subs	r4, #1
  401a20:	f855 3904 	ldr.w	r3, [r5], #-4
  401a24:	4798      	blx	r3
  401a26:	2c00      	cmp	r4, #0
  401a28:	d1f9      	bne.n	401a1e <__libc_fini_array+0x16>
  401a2a:	e8bd 4038 	ldmia.w	sp!, {r3, r4, r5, lr}
  401a2e:	f000 b877 	b.w	401b20 <_fini>
  401a32:	bf00      	nop
  401a34:	00401b30 	.word	0x00401b30
  401a38:	00401b2c 	.word	0x00401b2c

00401a3c <__retarget_lock_acquire_recursive>:
  401a3c:	4770      	bx	lr
  401a3e:	bf00      	nop

00401a40 <__retarget_lock_release_recursive>:
  401a40:	4770      	bx	lr
  401a42:	bf00      	nop

00401a44 <__register_exitproc>:
  401a44:	e92d 43f8 	stmdb	sp!, {r3, r4, r5, r6, r7, r8, r9, lr}
  401a48:	4d2c      	ldr	r5, [pc, #176]	; (401afc <__register_exitproc+0xb8>)
  401a4a:	4606      	mov	r6, r0
  401a4c:	6828      	ldr	r0, [r5, #0]
  401a4e:	4698      	mov	r8, r3
  401a50:	460f      	mov	r7, r1
  401a52:	4691      	mov	r9, r2
  401a54:	f7ff fff2 	bl	401a3c <__retarget_lock_acquire_recursive>
  401a58:	4b29      	ldr	r3, [pc, #164]	; (401b00 <__register_exitproc+0xbc>)
  401a5a:	681c      	ldr	r4, [r3, #0]
  401a5c:	f8d4 3148 	ldr.w	r3, [r4, #328]	; 0x148
  401a60:	2b00      	cmp	r3, #0
  401a62:	d03e      	beq.n	401ae2 <__register_exitproc+0x9e>
  401a64:	685a      	ldr	r2, [r3, #4]
  401a66:	2a1f      	cmp	r2, #31
  401a68:	dc1c      	bgt.n	401aa4 <__register_exitproc+0x60>
  401a6a:	f102 0e01 	add.w	lr, r2, #1
  401a6e:	b176      	cbz	r6, 401a8e <__register_exitproc+0x4a>
  401a70:	eb03 0182 	add.w	r1, r3, r2, lsl #2
  401a74:	2401      	movs	r4, #1
  401a76:	f8c1 9088 	str.w	r9, [r1, #136]	; 0x88
  401a7a:	f8d3 0188 	ldr.w	r0, [r3, #392]	; 0x188
  401a7e:	4094      	lsls	r4, r2
  401a80:	4320      	orrs	r0, r4
  401a82:	2e02      	cmp	r6, #2
  401a84:	f8c3 0188 	str.w	r0, [r3, #392]	; 0x188
  401a88:	f8c1 8108 	str.w	r8, [r1, #264]	; 0x108
  401a8c:	d023      	beq.n	401ad6 <__register_exitproc+0x92>
  401a8e:	3202      	adds	r2, #2
  401a90:	f8c3 e004 	str.w	lr, [r3, #4]
  401a94:	6828      	ldr	r0, [r5, #0]
  401a96:	f843 7022 	str.w	r7, [r3, r2, lsl #2]
  401a9a:	f7ff ffd1 	bl	401a40 <__retarget_lock_release_recursive>
  401a9e:	2000      	movs	r0, #0
  401aa0:	e8bd 83f8 	ldmia.w	sp!, {r3, r4, r5, r6, r7, r8, r9, pc}
  401aa4:	4b17      	ldr	r3, [pc, #92]	; (401b04 <__register_exitproc+0xc0>)
  401aa6:	b30b      	cbz	r3, 401aec <__register_exitproc+0xa8>
  401aa8:	f44f 70c8 	mov.w	r0, #400	; 0x190
  401aac:	f3af 8000 	nop.w
  401ab0:	4603      	mov	r3, r0
  401ab2:	b1d8      	cbz	r0, 401aec <__register_exitproc+0xa8>
  401ab4:	f8d4 2148 	ldr.w	r2, [r4, #328]	; 0x148
  401ab8:	6002      	str	r2, [r0, #0]
  401aba:	2100      	movs	r1, #0
  401abc:	6041      	str	r1, [r0, #4]
  401abe:	460a      	mov	r2, r1
  401ac0:	f8c4 0148 	str.w	r0, [r4, #328]	; 0x148
  401ac4:	f04f 0e01 	mov.w	lr, #1
  401ac8:	f8c0 1188 	str.w	r1, [r0, #392]	; 0x188
  401acc:	f8c0 118c 	str.w	r1, [r0, #396]	; 0x18c
  401ad0:	2e00      	cmp	r6, #0
  401ad2:	d0dc      	beq.n	401a8e <__register_exitproc+0x4a>
  401ad4:	e7cc      	b.n	401a70 <__register_exitproc+0x2c>
  401ad6:	f8d3 118c 	ldr.w	r1, [r3, #396]	; 0x18c
  401ada:	430c      	orrs	r4, r1
  401adc:	f8c3 418c 	str.w	r4, [r3, #396]	; 0x18c
  401ae0:	e7d5      	b.n	401a8e <__register_exitproc+0x4a>
  401ae2:	f504 73a6 	add.w	r3, r4, #332	; 0x14c
  401ae6:	f8c4 3148 	str.w	r3, [r4, #328]	; 0x148
  401aea:	e7bb      	b.n	401a64 <__register_exitproc+0x20>
  401aec:	6828      	ldr	r0, [r5, #0]
  401aee:	f7ff ffa7 	bl	401a40 <__retarget_lock_release_recursive>
  401af2:	f04f 30ff 	mov.w	r0, #4294967295
  401af6:	e8bd 83f8 	ldmia.w	sp!, {r3, r4, r5, r6, r7, r8, r9, pc}
  401afa:	bf00      	nop
  401afc:	20400438 	.word	0x20400438
  401b00:	00401b08 	.word	0x00401b08
  401b04:	00000000 	.word	0x00000000

00401b08 <_global_impure_ptr>:
  401b08:	20400010                                ..@ 

00401b0c <_init>:
  401b0c:	b5f8      	push	{r3, r4, r5, r6, r7, lr}
  401b0e:	bf00      	nop
  401b10:	bcf8      	pop	{r3, r4, r5, r6, r7}
  401b12:	bc08      	pop	{r3}
  401b14:	469e      	mov	lr, r3
  401b16:	4770      	bx	lr

00401b18 <__init_array_start>:
  401b18:	004019e9 	.word	0x004019e9

00401b1c <__frame_dummy_init_array_entry>:
  401b1c:	00400165                                e.@.

00401b20 <_fini>:
  401b20:	b5f8      	push	{r3, r4, r5, r6, r7, lr}
  401b22:	bf00      	nop
  401b24:	bcf8      	pop	{r3, r4, r5, r6, r7}
  401b26:	bc08      	pop	{r3}
  401b28:	469e      	mov	lr, r3
  401b2a:	4770      	bx	lr

00401b2c <__fini_array_start>:
  401b2c:	00400141 	.word	0x00400141

Disassembly of section .relocate:

20400000 <portable_delay_cycles>:
20400000:	f3bf 8f5f 	dmb	sy
20400004:	3801      	subs	r0, #1
20400006:	d1fb      	bne.n	20400000 <portable_delay_cycles>
20400008:	4770      	bx	lr

2040000a <g_interrupt_enabled>:
2040000a:	0001                                        ..

2040000c <SystemCoreClock>:
2040000c:	0900 003d                                   ..=.

20400010 <impure_data>:
20400010:	0000 0000 02fc 2040 0364 2040 03cc 2040     ......@ d.@ ..@ 
	...
204000b8:	0001 0000 0000 0000 330e abcd 1234 e66d     .........3..4.m.
204000c8:	deec 0005 000b 0000 0000 0000 0000 0000     ................
	...

20400438 <__atexit_recursive_mutex>:
20400438:	04cc 2040                                   ..@ 
