S00E000053414D4537302E7372656389
S214400000F0244020710440006D0440006D04400020
S2144000106D0440006D0440006D0440000000000088
S2144000200000000000000000000000006D044000DA
S2144000306D044000000000006D0440006D04400068
S2144000406D0440006D0440006D0440006D044000A7
S2144000506D0440006D0440006D0440006D04400097
S2144000606D0440000000000095024000A9024000D8
S214400070BD0240006D0440006D0440006D04400029
S214400080D1024000E50240006D0440006D0440008F
S2144000906D0440006D0440006D0440006D04400057
S2144000A06D0440006D0440006D0440006D04400047
S2144000B06D0440006D0440006D0440006D04400037
S2144000C06D0440006D0440006D0440006D04400027
S2144000D0000000006D044000000000006D04400079
S2144000E06D0440006D0440006D0440006D04400007
S2144000F06D0440006D0440006D0440006D044000F7
S2144001006D0440006D0440006D0440006D044000E6
S2144001106D044000000000000000000000000000E9
S2144001206D0440006D0440006D0440006D044000C6
S2144001306D044000000000006D0440006D04400067
S21440014010B5054C237833B9044B13B10448AFF3CC
S21440015000800123237010BD3C04402000000000B6
S214400160EC0840000C4B43B10C480D4910B5AFF3BA
S21440017000800C48036823B910BD0A48036833B9A9
S2144001807047094B002BF7D0BDE810401847064B88
S214400190002BF5D0184700BF00000000EC084000D8
S2144001A040044020EC0840000000000010B5104815
S2144001B0104B98473E2100200F4B98470F4CA047C6
S2144001C00028FCD00E4B98470E4A0F4B9A620F4CB5
S2144001D0A0470028FCD002200D4B984700200D4B2E
S2144001E098470D4B98470248024B984710BD00BFB2
S2144001F000A3E1114506400095034000E903400096
S214400200F9034000013F182000060E400904400054
S214400210F902400031034000390540004163704711
S21440022021F00061B1F1405F05D1836B134214BFEA
S214400230012000207047C36BF8E7C06C7047806CA5
S214400240704700002DE9F041044688460E4B98471B
S214400250054620460D4B9847054013D00C4C04F1FC
S214400260600603E0B4420DD010345DB120684045CE
S214400270F8D161682942F5D0E3689847636825EA73
S2144002800305EFE7BDE8F0813B0240003F02400037
S2144002905804402008B50A210148024B984708BD3B
S2144002A0000E0E404502400008B50B210148024BA7
S2144002B0984708BD00100E404502400008B50C2186
S2144002C00148024B984708BD00120E4045024000C8
S2144002D008B510210148024B984708BD00140E404F
S2144002E04502400008B511210148024B984708BD19
S2144002F000160E4045024000032811D0042812D0B4
S21440030002280CBF4FF480710021084A136B23F477
S21440031040730B431363936E13F0080FFBD0704784
S2144003204FF44071F1E74FF40071EEE700060E40DF
S214400330174A136B23F0700318431063936E13F041
S214400340080F0AD14FF4805311498A6E12F0080FF5
S21440035003D1013BF9D1012070470D4A136B23F0BE
S214400360030343F002031363936E13F0080F0AD19E
S2144003704FF4805306498A6E12F0080F05D1013BB0
S214400380F9D101207047002070470020704700BF19
S21440039000060E40A0B90E48036A090289B20D4A0B
S2144003A01A400D4B1343194301620246936E13F0F5
S2144003B0010FFBD0064A116A084B0B431362704785
S2144003C003490B6A064A1A40064B13430B627047B2
S2144003D000060E40FCFFC8FF010037000000370152
S2144003E0FCFFC8FE02003701024B986E00F48030D6
S2144003F0704700BF00060E404FF00052014B9A6215
S214400400704700BF00060E40024B986E00F0020098
S214400410704700BF00060E403F281ED81F280CD845
S214400420114B9A6901238340934318D0012303FA62
S21440043000F00D4B18610020704720380A4BD3F867
S21440044008210123834093430BD0012303FA00F095
S214400450054BC3F80001002070470120704700207C
S21440046070470020704700BF00060E40FEE70000C1
S21440047000B583B0254B264A9A4210D0254B234AD6
S2144004809A420CD2013B9B1A23F0030304331344D5
S2144004901F4951F8040B42F8040B9A42F9D11E4BFF
S2144004A01E4A9A420AD2013B9B1A23F003030433A6
S2144004B01344002142F8041B9342FBD1184A194BBF
S2144004C023F07F039360EFF31083B3FA83F35B0963
S2144004D0019372B6BFF35F8F0022134B1A700199D7
S2144004E0124A136843F470031360BFF34F8FBFF391
S2144004F06F8F29B101220C4B1A70BFF35F8F62B623
S2144005000B4B98470B4B9847FEE700BF0000402038
S214400510EC0840003C044020EC0440203C044020D2
S21440052000ED00E0000040000A00402088ED00E0BA
S21440053055074000B90640003B4B1B6B03F00303D6
S214400540012B1DD083B1022B36D0374B1B6B03F0EB
S2144005507003702B5FD0344B1A6B3449C2F30212CF
S2144005600B68D3400B607047314B5B6913F0800FCC
S21440057014BF4FF400424FF4FA422C4B1A60E4E7A3
S214400580294B1B6A13F0807F03D02A4A274B1A60F8
S214400590DBE7294A254B1A60234B1B6A03F070039E
S2144005A0102B05D0202BD0D1224A204B1A60CCE706
S2144005B0224A1E4B1A60C8E71B4B1B6A13F0807F0B
S2144005C016D01C4A194B1A60174B1B6B03F00303DB
S2144005D0022BBAD1144A916A926A1448C1F30A416E
S2144005E0036801FB0333D2B2B3FBF2F30360ACE71C
S2144005F0114A0E4B1A600C4B1B6A03F07003102B0B
S21440060005D0202BE0D10B4A084B1A60DCE70B4A9A
S214400610064B1A60D8E7054A13680949A1FB03133D
S2144006205B081360704700BF00060E400C00402079
S21440063010180E40001BB70000093D0000127A005B
S214400640ABAAAAAA124B984211D9124B984213D978
S214400650114B984214D9114B984215D9104B9842D9
S21440066094BF4FF004220F4A0F4B1A6070474FF06A
S21440067080620D4B1A6070470C4A0B4B1A607047ED
S2144006800B4A094B1A6070470A4A074B1A60704774
S214400690FF2C3101FF596202FF869303FFB3C40467
S2144006A0FFE0F50500050004000C0E4000010004C4
S2144006B000020004000300042DE9F0471C4B984755
S2144006C04FF400421B4B5A600C201B4CA0471B4B60
S2144006D04FF480721A601A615A635A651A660A2085
S2144006E0A0474FF40062164B5A669A46134E154F73
S2144006F004E04FF480713046134B98474FF4006245
S2144007004FF020515046114B98470028F1D106240F
S2144007104FF48078C1460E4DC6F834903846A84708
S214400720C6F830803846A847013CF5D1E6E700BF1A
S214400730AD01400050180E401904400000120E4013
S214400740000E0E4049569A001D024000210240000D
S2144007500100402070B50F4E0F4D761BB61018BFE7
S214400760002405D0013455F8043B9847A642F9D1F9
S2144007700A4E0B4D761B00F0A7F8B61018BF0024A3
S21440078006D0013455F8043B9847A642F9D170BDCF
S21440079070BD00BFD4084000D4084000DC084000CC
S2144007A0D4084000024B13B1024800F005B8704729
S2144007B000000000C5074000002301461A461846C0
S2144007C000F01EB838B50A4C0A4D641BA4100AD077
S2144007D004F18043013B05EB8305013C55F80439A1
S2144007E09847002CF9D1BDE8384000F077B800BFF4
S2144007F0EC084000E8084000704700BF704700BF64
S2144008002DE9F8432C4D0646286898460F469146F3
S214400810FFF7F2FF294B1C68D4F84831002B3ED036
S2144008205A681F2A1CDC02F1010E76B103EB8201E6
S2144008300124C1F88890D3F8880194402043022EC2
S214400840C3F88801C1F8088123D00232C3F804E017
S214400850286843F82270FFF7D1FF0020BDE8F883F0
S214400860174B0BB34FF4C870AFF300800346D8B1B4
S214400870D4F848210260002141600A46C4F8480185
S2144008804FF0010EC0F88811C0F88C11002EDCD055
S214400890CCE7D3F88C110C43C3F88C41D5E704F56C
S2144008A0A673C4F84831BBE72868FFF7A7FF4FF0A8
S2144008B0FF30BDE8F88300BF38044020C40840003D
S2144008C00000000010004020F8B500BFF8BC08BC8F
S2144008D09E467047A507400065014000F8B500BF3A
S2104008E0F8BC08BC9E4670474101400032
S2144008ECBFF35F8F0138FBD17047010000093D0014
S2144008FC00000000FC02402064034020CC03402053
S21440090C0000000000000000000000000000000096
S21440091C0000000000000000000000000000000086
S21440092C0000000000000000000000000000000076
S21440093C0000000000000000000000000000000066
S21440094C0000000000000000000000000000000056
S21440095C0000000000000000000000000000000046
S21440096C0000000000000000000000000000000036
S21440097C0000000000000000000000000000000026
S21440098C0000000000000000000000000000000016
S21440099C0000000000000000010000000000000005
S2144009AC0E33CDAB34126DE6ECDE05000B000000CA
S2144009BC00000000000000000000000000000000E6
S2144009CC00000000000000000000000000000000D6
S2144009DC00000000000000000000000000000000C6
S2144009EC00000000000000000000000000000000B6
S210400D1C0000000000000000C80440205A
S80440047146
